{
  "_format": "hh-sol-artifact-1",
  "contractName": "ArtistV2",
  "sourceName": "contracts/ArtistV2.sol",
  "abi": [
    {
      "anonymous": false,
      "inputs": [
        {
          "indexed": true,
          "internalType": "address",
          "name": "owner",
          "type": "address"
        },
        {
          "indexed": true,
          "internalType": "address",
          "name": "approved",
          "type": "address"
        },
        {
          "indexed": true,
          "internalType": "uint256",
          "name": "tokenId",
          "type": "uint256"
        }
      ],
      "name": "Approval",
      "type": "event"
    },
    {
      "anonymous": false,
      "inputs": [
        {
          "indexed": true,
          "internalType": "address",
          "name": "owner",
          "type": "address"
        },
        {
          "indexed": true,
          "internalType": "address",
          "name": "operator",
          "type": "address"
        },
        {
          "indexed": false,
          "internalType": "bool",
          "name": "approved",
          "type": "bool"
        }
      ],
      "name": "ApprovalForAll",
      "type": "event"
    },
    {
      "anonymous": false,
      "inputs": [
        {
          "indexed": true,
          "internalType": "uint256",
          "name": "editionId",
          "type": "uint256"
        },
        {
          "indexed": false,
          "internalType": "address",
          "name": "fundingRecipient",
          "type": "address"
        },
        {
          "indexed": false,
          "internalType": "uint256",
          "name": "price",
          "type": "uint256"
        },
        {
          "indexed": false,
          "internalType": "uint32",
          "name": "quantity",
          "type": "uint32"
        },
        {
          "indexed": false,
          "internalType": "uint32",
          "name": "royaltyBPS",
          "type": "uint32"
        },
        {
          "indexed": false,
          "internalType": "uint32",
          "name": "startTime",
          "type": "uint32"
        },
        {
          "indexed": false,
          "internalType": "uint32",
          "name": "endTime",
          "type": "uint32"
        },
        {
          "indexed": false,
          "internalType": "string",
          "name": "uriHash",
          "type": "string"
        },
        {
          "indexed": false,
          "internalType": "string",
          "name": "imageHash",
          "type": "string"
        },
        {
          "indexed": false,
          "internalType": "string",
          "name": "musicHash",
          "type": "string"
        }
      ],
      "name": "EditionCreated",
      "type": "event"
    },
    {
      "anonymous": false,
      "inputs": [
        {
          "indexed": true,
          "internalType": "uint256",
          "name": "editionId",
          "type": "uint256"
        },
        {
          "indexed": true,
          "internalType": "uint256",
          "name": "tokenId",
          "type": "uint256"
        },
        {
          "indexed": false,
          "internalType": "uint32",
          "name": "numSold",
          "type": "uint32"
        },
        {
          "indexed": true,
          "internalType": "address",
          "name": "buyer",
          "type": "address"
        }
      ],
      "name": "EditionPurchased",
      "type": "event"
    },
    {
      "anonymous": false,
      "inputs": [
        {
          "indexed": true,
          "internalType": "address",
          "name": "previousOwner",
          "type": "address"
        },
        {
          "indexed": true,
          "internalType": "address",
          "name": "newOwner",
          "type": "address"
        }
      ],
      "name": "OwnershipTransferred",
      "type": "event"
    },
    {
      "anonymous": false,
      "inputs": [
        {
          "indexed": true,
          "internalType": "address",
          "name": "from",
          "type": "address"
        },
        {
          "indexed": true,
          "internalType": "address",
          "name": "to",
          "type": "address"
        },
        {
          "indexed": true,
          "internalType": "uint256",
          "name": "tokenId",
          "type": "uint256"
        }
      ],
      "name": "Transfer",
      "type": "event"
    },
    {
      "inputs": [
        {
          "internalType": "address",
          "name": "to",
          "type": "address"
        },
        {
          "internalType": "uint256",
          "name": "tokenId",
          "type": "uint256"
        }
      ],
      "name": "approve",
      "outputs": [],
      "stateMutability": "nonpayable",
      "type": "function"
    },
    {
      "inputs": [
        {
          "internalType": "address",
          "name": "owner",
          "type": "address"
        }
      ],
      "name": "balanceOf",
      "outputs": [
        {
          "internalType": "uint256",
          "name": "",
          "type": "uint256"
        }
      ],
      "stateMutability": "view",
      "type": "function"
    },
    {
      "inputs": [
        {
          "internalType": "uint256",
          "name": "_editionId",
          "type": "uint256"
        }
      ],
      "name": "buyEdition",
      "outputs": [],
      "stateMutability": "payable",
      "type": "function"
    },
    {
      "inputs": [],
      "name": "contractURI",
      "outputs": [
        {
          "internalType": "string",
          "name": "",
          "type": "string"
        }
      ],
      "stateMutability": "view",
      "type": "function"
    },
    {
      "inputs": [
        {
          "internalType": "uint256",
          "name": "_price",
          "type": "uint256"
        },
        {
          "internalType": "uint32",
          "name": "_quantity",
          "type": "uint32"
        },
        {
          "internalType": "uint32",
          "name": "_royaltyBPS",
          "type": "uint32"
        },
        {
          "internalType": "uint32",
          "name": "_startTime",
          "type": "uint32"
        },
        {
          "internalType": "uint32",
          "name": "_endTime",
          "type": "uint32"
        },
        {
          "internalType": "string",
          "name": "_uriHash",
          "type": "string"
        },
        {
          "internalType": "string",
          "name": "_imageHash",
          "type": "string"
        },
        {
          "internalType": "string",
          "name": "_musicHash",
          "type": "string"
        }
      ],
      "name": "createEdition",
      "outputs": [],
      "stateMutability": "nonpayable",
      "type": "function"
    },
    {
      "inputs": [
        {
          "internalType": "uint256",
          "name": "",
          "type": "uint256"
        }
      ],
      "name": "depositedForEdition",
      "outputs": [
        {
          "internalType": "uint256",
          "name": "",
          "type": "uint256"
        }
      ],
      "stateMutability": "view",
      "type": "function"
    },
    {
      "inputs": [
        {
          "internalType": "uint256",
          "name": "",
          "type": "uint256"
        }
      ],
      "name": "editions",
      "outputs": [
        {
          "internalType": "address payable",
          "name": "fundingRecipient",
          "type": "address"
        },
        {
          "internalType": "uint256",
          "name": "price",
          "type": "uint256"
        },
        {
          "internalType": "uint32",
          "name": "numSold",
          "type": "uint32"
        },
        {
          "internalType": "uint32",
          "name": "quantity",
          "type": "uint32"
        },
        {
          "internalType": "uint32",
          "name": "royaltyBPS",
          "type": "uint32"
        },
        {
          "internalType": "uint32",
          "name": "startTime",
          "type": "uint32"
        },
        {
          "internalType": "uint32",
          "name": "endTime",
          "type": "uint32"
        },
        {
          "internalType": "string",
          "name": "uriHash",
          "type": "string"
        },
        {
          "internalType": "string",
          "name": "imageHash",
          "type": "string"
        },
        {
          "internalType": "string",
          "name": "musicHash",
          "type": "string"
        }
      ],
      "stateMutability": "view",
      "type": "function"
    },
    {
      "inputs": [
        {
          "internalType": "uint256",
          "name": "tokenId",
          "type": "uint256"
        }
      ],
      "name": "getApproved",
      "outputs": [
        {
          "internalType": "address",
          "name": "",
          "type": "address"
        }
      ],
      "stateMutability": "view",
      "type": "function"
    },
    {
      "inputs": [
        {
          "internalType": "uint256",
          "name": "_editionId",
          "type": "uint256"
        }
      ],
      "name": "getOwnersOfEdition",
      "outputs": [
        {
          "internalType": "address[]",
          "name": "",
          "type": "address[]"
        }
      ],
      "stateMutability": "view",
      "type": "function"
    },
    {
      "inputs": [
        {
          "internalType": "uint256",
          "name": "_editionId",
          "type": "uint256"
        }
      ],
      "name": "getTokenIdsOfEdition",
      "outputs": [
        {
          "internalType": "uint256[]",
          "name": "",
          "type": "uint256[]"
        }
      ],
      "stateMutability": "view",
      "type": "function"
    },
    {
      "inputs": [
        {
          "internalType": "address",
          "name": "_owner",
          "type": "address"
        },
        {
          "internalType": "string",
          "name": "_name",
          "type": "string"
        },
        {
          "internalType": "string",
          "name": "_symbol",
          "type": "string"
        },
        {
          "internalType": "string",
          "name": "_baseURI",
          "type": "string"
        }
      ],
      "name": "initialize",
      "outputs": [],
      "stateMutability": "nonpayable",
      "type": "function"
    },
    {
      "inputs": [
        {
          "internalType": "address",
          "name": "owner",
          "type": "address"
        },
        {
          "internalType": "address",
          "name": "operator",
          "type": "address"
        }
      ],
      "name": "isApprovedForAll",
      "outputs": [
        {
          "internalType": "bool",
          "name": "",
          "type": "bool"
        }
      ],
      "stateMutability": "view",
      "type": "function"
    },
    {
      "inputs": [],
      "name": "name",
      "outputs": [
        {
          "internalType": "string",
          "name": "",
          "type": "string"
        }
      ],
      "stateMutability": "view",
      "type": "function"
    },
    {
      "inputs": [],
      "name": "owner",
      "outputs": [
        {
          "internalType": "address",
          "name": "",
          "type": "address"
        }
      ],
      "stateMutability": "view",
      "type": "function"
    },
    {
      "inputs": [
        {
          "internalType": "uint256",
          "name": "tokenId",
          "type": "uint256"
        }
      ],
      "name": "ownerOf",
      "outputs": [
        {
          "internalType": "address",
          "name": "",
          "type": "address"
        }
      ],
      "stateMutability": "view",
      "type": "function"
    },
    {
      "inputs": [],
      "name": "renounceOwnership",
      "outputs": [],
      "stateMutability": "nonpayable",
      "type": "function"
    },
    {
      "inputs": [
        {
          "internalType": "uint256",
          "name": "_editionId",
          "type": "uint256"
        },
        {
          "internalType": "uint256",
          "name": "_salePrice",
          "type": "uint256"
        }
      ],
      "name": "royaltyInfo",
      "outputs": [
        {
          "internalType": "address",
          "name": "fundingRecipient",
          "type": "address"
        },
        {
          "internalType": "uint256",
          "name": "royaltyAmount",
          "type": "uint256"
        }
      ],
      "stateMutability": "view",
      "type": "function"
    },
    {
      "inputs": [
        {
          "internalType": "address",
          "name": "from",
          "type": "address"
        },
        {
          "internalType": "address",
          "name": "to",
          "type": "address"
        },
        {
          "internalType": "uint256",
          "name": "tokenId",
          "type": "uint256"
        }
      ],
      "name": "safeTransferFrom",
      "outputs": [],
      "stateMutability": "nonpayable",
      "type": "function"
    },
    {
      "inputs": [
        {
          "internalType": "address",
          "name": "from",
          "type": "address"
        },
        {
          "internalType": "address",
          "name": "to",
          "type": "address"
        },
        {
          "internalType": "uint256",
          "name": "tokenId",
          "type": "uint256"
        },
        {
          "internalType": "bytes",
          "name": "_data",
          "type": "bytes"
        }
      ],
      "name": "safeTransferFrom",
      "outputs": [],
      "stateMutability": "nonpayable",
      "type": "function"
    },
    {
      "inputs": [
        {
          "internalType": "address",
          "name": "operator",
          "type": "address"
        },
        {
          "internalType": "bool",
          "name": "approved",
          "type": "bool"
        }
      ],
      "name": "setApprovalForAll",
      "outputs": [],
      "stateMutability": "nonpayable",
      "type": "function"
    },
    {
      "inputs": [
        {
          "internalType": "uint256",
          "name": "_editionId",
          "type": "uint256"
        },
        {
          "internalType": "uint32",
          "name": "_endTime",
          "type": "uint32"
        }
      ],
      "name": "setEndTime",
      "outputs": [],
      "stateMutability": "nonpayable",
      "type": "function"
    },
    {
      "inputs": [
        {
          "internalType": "uint256",
          "name": "_editionId",
          "type": "uint256"
        },
        {
          "internalType": "uint32",
          "name": "_startTime",
          "type": "uint32"
        }
      ],
      "name": "setStartTime",
      "outputs": [],
      "stateMutability": "nonpayable",
      "type": "function"
    },
    {
      "inputs": [
        {
          "internalType": "bytes4",
          "name": "_interfaceId",
          "type": "bytes4"
        }
      ],
      "name": "supportsInterface",
      "outputs": [
        {
          "internalType": "bool",
          "name": "",
          "type": "bool"
        }
      ],
      "stateMutability": "view",
      "type": "function"
    },
    {
      "inputs": [],
      "name": "symbol",
      "outputs": [
        {
          "internalType": "string",
          "name": "",
          "type": "string"
        }
      ],
      "stateMutability": "view",
      "type": "function"
    },
    {
      "inputs": [
        {
          "internalType": "uint256",
          "name": "",
          "type": "uint256"
        }
      ],
      "name": "tokenToEdition",
      "outputs": [
        {
          "internalType": "uint256",
          "name": "",
          "type": "uint256"
        }
      ],
      "stateMutability": "view",
      "type": "function"
    },
    {
      "inputs": [
        {
          "internalType": "uint256",
          "name": "_tokenId",
          "type": "uint256"
        }
      ],
      "name": "tokenURI",
      "outputs": [
        {
          "internalType": "string",
          "name": "",
          "type": "string"
        }
      ],
      "stateMutability": "view",
      "type": "function"
    },
    {
      "inputs": [],
      "name": "totalSupply",
      "outputs": [
        {
          "internalType": "uint256",
          "name": "",
          "type": "uint256"
        }
      ],
      "stateMutability": "view",
      "type": "function"
    },
    {
      "inputs": [
        {
          "internalType": "address",
          "name": "from",
          "type": "address"
        },
        {
          "internalType": "address",
          "name": "to",
          "type": "address"
        },
        {
          "internalType": "uint256",
          "name": "tokenId",
          "type": "uint256"
        }
      ],
      "name": "transferFrom",
      "outputs": [],
      "stateMutability": "nonpayable",
      "type": "function"
    },
    {
      "inputs": [
        {
          "internalType": "address",
          "name": "newOwner",
          "type": "address"
        }
      ],
      "name": "transferOwnership",
      "outputs": [],
      "stateMutability": "nonpayable",
      "type": "function"
    },
    {
      "inputs": [
        {
          "internalType": "uint256",
          "name": "_editionId",
          "type": "uint256"
        }
      ],
      "name": "withdrawFunds",
      "outputs": [],
      "stateMutability": "nonpayable",
      "type": "function"
    },
    {
      "inputs": [
        {
          "internalType": "uint256",
          "name": "",
          "type": "uint256"
        }
      ],
      "name": "withdrawnForEdition",
      "outputs": [
        {
          "internalType": "uint256",
          "name": "",
          "type": "uint256"
        }
      ],
      "stateMutability": "view",
      "type": "function"
    }
  ],
  "bytecode": "0x608060405234801561001057600080fd5b5061513c806100206000396000f3fe6080604052600436106101d85760003560e01c806370a0823111610102578063bd8616ec11610095578063e8a3d48511610064578063e8a3d48514610713578063e985e9c51461073e578063f2fde38b1461077b578063fbab9e04146107a4576101d8565b8063bd8616ec14610640578063c87b56dd1461065c578063d3bb052814610699578063e1a3d573146106d6576101d8565b806395d89b41116100d157806395d89b411461059a578063a22cb465146105c5578063b88d4fde146105ee578063bb314ca114610617576101d8565b806370a08231146104de578063715018a61461051b57806374e79189146105325780638da5cb5b1461056f576101d8565b806323b872dd1161017a5780635f1e6f6d116101495780635f1e6f6d146104125780635fadde5d1461043b578063602787ed146104645780636352211e146104a1576101d8565b806323b872dd1461033c578063279c806e146103655780632a55205a146103ab57806342842e0e146103e9576101d8565b8063095ea7b3116101b6578063095ea7b31461028257806313dd2960146102ab578063155dd5ee146102e857806318160ddd14610311576101d8565b806301ffc9a7146101dd57806306fdde031461021a578063081812fc14610245575b600080fd5b3480156101e957600080fd5b5061020460048036038101906101ff91906136b0565b6107cd565b604051610211919061415e565b60405180910390f35b34801561022657600080fd5b5061022f610847565b60405161023c9190614179565b60405180910390f35b34801561025157600080fd5b5061026c60048036038101906102679190613702565b6108d9565b6040516102799190613f37565b60405180910390f35b34801561028e57600080fd5b506102a960048036038101906102a49190613674565b61095e565b005b3480156102b757600080fd5b506102d260048036038101906102cd9190613702565b610a76565b6040516102df919061411a565b60405180910390f35b3480156102f457600080fd5b5061030f600480360381019061030a9190613702565b610bf4565b005b34801561031d57600080fd5b50610326610c99565b60405161033391906144bb565b60405180910390f35b34801561034857600080fd5b50610363600480360381019061035e91906134c3565b610cb6565b005b34801561037157600080fd5b5061038c60048036038101906103879190613702565b610d16565b6040516103a29a99989796959493929190613f52565b60405180910390f35b3480156103b757600080fd5b506103d260048036038101906103cd919061372b565b610f72565b6040516103e092919061404f565b60405180910390f35b3480156103f557600080fd5b50610410600480360381019061040b91906134c3565b6112f1565b005b34801561041e57600080fd5b50610439600480360381019061043491906135c9565b611311565b005b34801561044757600080fd5b50610462600480360381019061045d91906137a3565b61145e565b005b34801561047057600080fd5b5061048b60048036038101906104869190613702565b611746565b60405161049891906144bb565b60405180910390f35b3480156104ad57600080fd5b506104c860048036038101906104c39190613702565b61175e565b6040516104d59190613f37565b60405180910390f35b3480156104ea57600080fd5b506105056004803603810190610500919061345e565b611810565b60405161051291906144bb565b60405180910390f35b34801561052757600080fd5b506105306118c8565b005b34801561053e57600080fd5b5061055960048036038101906105549190613702565b611950565b604051610566919061413c565b60405180910390f35b34801561057b57600080fd5b50610584611a98565b6040516105919190613f37565b60405180910390f35b3480156105a657600080fd5b506105af611ac2565b6040516105bc9190614179565b60405180910390f35b3480156105d157600080fd5b506105ec60048036038101906105e7919061358d565b611b54565b005b3480156105fa57600080fd5b5061061560048036038101906106109190613512565b611b6a565b005b34801561062357600080fd5b5061063e60048036038101906106399190613767565b611bcc565b005b61065a60048036038101906106559190613702565b611c81565b005b34801561066857600080fd5b50610683600480360381019061067e9190613702565b611ffe565b6040516106909190614179565b60405180910390f35b3480156106a557600080fd5b506106c060048036038101906106bb9190613702565b61209a565b6040516106cd91906144bb565b60405180910390f35b3480156106e257600080fd5b506106fd60048036038101906106f89190613702565b6120b2565b60405161070a91906144bb565b60405180910390f35b34801561071f57600080fd5b506107286120ca565b6040516107359190614179565b60405180910390f35b34801561074a57600080fd5b5061076560048036038101906107609190613487565b6120f2565b604051610772919061415e565b60405180910390f35b34801561078757600080fd5b506107a2600480360381019061079d919061345e565b612186565b005b3480156107b057600080fd5b506107cb60048036038101906107c69190613767565b61227e565b005b6000817bffffffffffffffffffffffffffffffffffffffffffffffffffffffff19167f2a55205a000000000000000000000000000000000000000000000000000000007bffffffffffffffffffffffffffffffffffffffffffffffffffffffff19161480610840575061083f82612333565b5b9050919050565b6060606580546108569061483a565b80601f01602080910402602001604051908101604052809291908181526020018280546108829061483a565b80156108cf5780601f106108a4576101008083540402835291602001916108cf565b820191906000526020600020905b8154815290600101906020018083116108b257829003601f168201915b5050505050905090565b60006108e482612415565b610923576040517f08c379a000000000000000000000000000000000000000000000000000000000815260040161091a9061435b565b60405180910390fd5b6069600083815260200190815260200160002060009054906101000a900473ffffffffffffffffffffffffffffffffffffffff169050919050565b60006109698261175e565b90508073ffffffffffffffffffffffffffffffffffffffff168373ffffffffffffffffffffffffffffffffffffffff1614156109da576040517f08c379a00000000000000000000000000000000000000000000000000000000081526004016109d19061441b565b60405180910390fd5b8073ffffffffffffffffffffffffffffffffffffffff166109f9612481565b73ffffffffffffffffffffffffffffffffffffffff161480610a285750610a2781610a22612481565b6120f2565b5b610a67576040517f08c379a0000000000000000000000000000000000000000000000000000000008152600401610a5e9061429b565b60405180910390fd5b610a718383612489565b505050565b6060600060cc600084815260200190815260200160002060020160009054906101000a900463ffffffff1663ffffffff1667ffffffffffffffff811115610ae6577f4e487b7100000000000000000000000000000000000000000000000000000000600052604160045260246000fd5b604051908082528060200260200182016040528015610b145781602001602082028036833780820191505090505b509050600080600190505b610b2960ca612542565b811015610be9578460cd6000838152602001908152602001600020541415610bd657610b548161175e565b838381518110610b8d577f4e487b7100000000000000000000000000000000000000000000000000000000600052603260045260246000fd5b602002602001019073ffffffffffffffffffffffffffffffffffffffff16908173ffffffffffffffffffffffffffffffffffffffff16815250508180610bd29061489d565b9250505b8080610be19061489d565b915050610b1f565b508192505050919050565b600060cf60008381526020019081526020016000205460ce600084815260200190815260200160002054610c28919061472e565b905060ce60008381526020019081526020016000205460cf600084815260200190815260200160002081905550610c9560cc600084815260200190815260200160002060000160009054906101000a900473ffffffffffffffffffffffffffffffffffffffff1682612550565b5050565b60006001610ca760ca612542565b610cb1919061472e565b905090565b610cc7610cc1612481565b82612644565b610d06576040517f08c379a0000000000000000000000000000000000000000000000000000000008152600401610cfd9061443b565b60405180910390fd5b610d11838383612722565b505050565b60cc6020528060005260406000206000915090508060000160009054906101000a900473ffffffffffffffffffffffffffffffffffffffff16908060010154908060020160009054906101000a900463ffffffff16908060020160049054906101000a900463ffffffff16908060020160089054906101000a900463ffffffff169080600201600c9054906101000a900463ffffffff16908060020160109054906101000a900463ffffffff1690806003018054610dd39061483a565b80601f0160208091040260200160405190810160405280929190818152602001828054610dff9061483a565b8015610e4c5780601f10610e2157610100808354040283529160200191610e4c565b820191906000526020600020905b815481529060010190602001808311610e2f57829003601f168201915b505050505090806004018054610e619061483a565b80601f0160208091040260200160405190810160405280929190818152602001828054610e8d9061483a565b8015610eda5780601f10610eaf57610100808354040283529160200191610eda565b820191906000526020600020905b815481529060010190602001808311610ebd57829003601f168201915b505050505090806005018054610eef9061483a565b80601f0160208091040260200160405190810160405280929190818152602001828054610f1b9061483a565b8015610f685780601f10610f3d57610100808354040283529160200191610f68565b820191906000526020600020905b815481529060010190602001808311610f4b57829003601f168201915b505050505090508a565b600080600060cc6000868152602001908152602001600020604051806101400160405290816000820160009054906101000a900473ffffffffffffffffffffffffffffffffffffffff1673ffffffffffffffffffffffffffffffffffffffff1673ffffffffffffffffffffffffffffffffffffffff168152602001600182015481526020016002820160009054906101000a900463ffffffff1663ffffffff1663ffffffff1681526020016002820160049054906101000a900463ffffffff1663ffffffff1663ffffffff1681526020016002820160089054906101000a900463ffffffff1663ffffffff1663ffffffff16815260200160028201600c9054906101000a900463ffffffff1663ffffffff1663ffffffff1681526020016002820160109054906101000a900463ffffffff1663ffffffff1663ffffffff1681526020016003820180546110c49061483a565b80601f01602080910402602001604051908101604052809291908181526020018280546110f09061483a565b801561113d5780601f106111125761010080835404028352916020019161113d565b820191906000526020600020905b81548152906001019060200180831161112057829003601f168201915b505050505081526020016004820180546111569061483a565b80601f01602080910402602001604051908101604052809291908181526020018280546111829061483a565b80156111cf5780601f106111a4576101008083540402835291602001916111cf565b820191906000526020600020905b8154815290600101906020018083116111b257829003601f168201915b505050505081526020016005820180546111e89061483a565b80601f01602080910402602001604051908101604052809291908181526020018280546112149061483a565b80156112615780601f1061123657610100808354040283529160200191611261565b820191906000526020600020905b81548152906001019060200180831161124457829003601f168201915b5050505050815250509050600073ffffffffffffffffffffffffffffffffffffffff16816000015173ffffffffffffffffffffffffffffffffffffffff1614156112b6578060000151600092509250506112ea565b6000816080015163ffffffff169050816000015161271082876112d991906146d4565b6112e391906146a3565b9350935050505b9250929050565b61130c83838360405180602001604052806000815250611b6a565b505050565b600060019054906101000a900460ff166113395760008054906101000a900460ff1615611342565b61134161297e565b5b611381576040517f08c379a0000000000000000000000000000000000000000000000000000000008152600401611378906142fb565b60405180910390fd5b60008060019054906101000a900460ff1615905080156113d1576001600060016101000a81548160ff02191690831515021790555060016000806101000a81548160ff0219169083151502179055505b6113db848461298f565b6113e36129fc565b6113ec85612186565b816040516020016113fd9190613ec5565b60405160208183030381529060405260c9908051906020019061142192919061326d565b5061142c60ca612a5d565b61143660cb612a5d565b80156114575760008060016101000a81548160ff0219169083151502179055505b5050505050565b611466612481565b73ffffffffffffffffffffffffffffffffffffffff16611484611a98565b73ffffffffffffffffffffffffffffffffffffffff16146114da576040517f08c379a00000000000000000000000000000000000000000000000000000000081526004016114d19061437b565b60405180910390fd5b6040518061014001604052803373ffffffffffffffffffffffffffffffffffffffff168152602001898152602001600063ffffffff1681526020018863ffffffff1681526020018763ffffffff1681526020018663ffffffff1681526020018563ffffffff1681526020018481526020018381526020018281525060cc600061156360cb612542565b815260200190815260200160002060008201518160000160006101000a81548173ffffffffffffffffffffffffffffffffffffffff021916908373ffffffffffffffffffffffffffffffffffffffff1602179055506020820151816001015560408201518160020160006101000a81548163ffffffff021916908363ffffffff16021790555060608201518160020160046101000a81548163ffffffff021916908363ffffffff16021790555060808201518160020160086101000a81548163ffffffff021916908363ffffffff16021790555060a082015181600201600c6101000a81548163ffffffff021916908363ffffffff16021790555060c08201518160020160106101000a81548163ffffffff021916908363ffffffff16021790555060e08201518160030190805190602001906116a192919061326d565b506101008201518160040190805190602001906116bf92919061326d565b506101208201518160050190805190602001906116dd92919061326d565b509050506116eb60cb612542565b7fa7e6b61f637e9c8b6c7c35bb7f1759bcbb89ebdd3697ebc509b0da00b7055c83338a8a8a8a8a8a8a8a60405161172a99989796959493929190614078565b60405180910390a261173c60cb612a5d565b5050505050505050565b60cd6020528060005260406000206000915090505481565b6000806067600084815260200190815260200160002060009054906101000a900473ffffffffffffffffffffffffffffffffffffffff169050600073ffffffffffffffffffffffffffffffffffffffff168173ffffffffffffffffffffffffffffffffffffffff161415611807576040517f08c379a00000000000000000000000000000000000000000000000000000000081526004016117fe906142db565b60405180910390fd5b80915050919050565b60008073ffffffffffffffffffffffffffffffffffffffff168273ffffffffffffffffffffffffffffffffffffffff161415611881576040517f08c379a0000000000000000000000000000000000000000000000000000000008152600401611878906142bb565b60405180910390fd5b606860008373ffffffffffffffffffffffffffffffffffffffff1673ffffffffffffffffffffffffffffffffffffffff168152602001908152602001600020549050919050565b6118d0612481565b73ffffffffffffffffffffffffffffffffffffffff166118ee611a98565b73ffffffffffffffffffffffffffffffffffffffff1614611944576040517f08c379a000000000000000000000000000000000000000000000000000000000815260040161193b9061437b565b60405180910390fd5b61194e6000612a73565b565b6060600060cc600084815260200190815260200160002060020160009054906101000a900463ffffffff1663ffffffff1667ffffffffffffffff8111156119c0577f4e487b7100000000000000000000000000000000000000000000000000000000600052604160045260246000fd5b6040519080825280602002602001820160405280156119ee5781602001602082028036833780820191505090505b509050600080600190505b611a0360ca612542565b811015611a8d578460cd6000838152602001908152602001600020541415611a7a5780838381518110611a5f577f4e487b7100000000000000000000000000000000000000000000000000000000600052603260045260246000fd5b6020026020010181815250508180611a769061489d565b9250505b8080611a859061489d565b9150506119f9565b508192505050919050565b6000609760009054906101000a900473ffffffffffffffffffffffffffffffffffffffff16905090565b606060668054611ad19061483a565b80601f0160208091040260200160405190810160405280929190818152602001828054611afd9061483a565b8015611b4a5780601f10611b1f57610100808354040283529160200191611b4a565b820191906000526020600020905b815481529060010190602001808311611b2d57829003601f168201915b5050505050905090565b611b66611b5f612481565b8383612b39565b5050565b611b7b611b75612481565b83612644565b611bba576040517f08c379a0000000000000000000000000000000000000000000000000000000008152600401611bb19061443b565b60405180910390fd5b611bc684848484612ca6565b50505050565b611bd4612481565b73ffffffffffffffffffffffffffffffffffffffff16611bf2611a98565b73ffffffffffffffffffffffffffffffffffffffff1614611c48576040517f08c379a0000000000000000000000000000000000000000000000000000000008152600401611c3f9061437b565b60405180910390fd5b8060cc600084815260200190815260200160002060020160106101000a81548163ffffffff021916908363ffffffff1602179055505050565b600060cc600083815260200190815260200160002060020160049054906101000a900463ffffffff1663ffffffff1611611cf0576040517f08c379a0000000000000000000000000000000000000000000000000000000008152600401611ce79061449b565b60405180910390fd5b60cc600082815260200190815260200160002060020160049054906101000a900463ffffffff1663ffffffff1660cc600083815260200190815260200160002060020160009054906101000a900463ffffffff1663ffffffff1610611d8a576040517f08c379a0000000000000000000000000000000000000000000000000000000008152600401611d819061439b565b60405180910390fd5b60cc600082815260200190815260200160002060010154341015611de3576040517f08c379a0000000000000000000000000000000000000000000000000000000008152600401611dda906143fb565b60405180910390fd5b4260cc6000838152602001908152602001600020600201600c9054906101000a900463ffffffff1663ffffffff1610611e51576040517f08c379a0000000000000000000000000000000000000000000000000000000008152600401611e489061431b565b60405180910390fd5b4260cc600083815260200190815260200160002060020160109054906101000a900463ffffffff1663ffffffff1611611ebf576040517f08c379a0000000000000000000000000000000000000000000000000000000008152600401611eb69061425b565b60405180910390fd5b611ed233611ecd60ca612542565b612d02565b3460ce60008381526020019081526020016000206000828254611ef5919061464d565b9250508190555060cc6000828152602001908152602001600020600201600081819054906101000a900463ffffffff1680929190611f32906148e6565b91906101000a81548163ffffffff021916908363ffffffff160217905550508060cd6000611f6060ca612542565b8152602001908152602001600020819055503373ffffffffffffffffffffffffffffffffffffffff16611f9360ca612542565b827fe38cb07a52e5d88a83de7c9d29c2841118103e462d20f8c526b35872f997778560cc600086815260200190815260200160002060020160009054906101000a900463ffffffff16604051611fe991906144d6565b60405180910390a4611ffb60ca612a5d565b50565b606061200982612415565b612048576040517f08c379a000000000000000000000000000000000000000000000000000000000815260040161203f906143db565b60405180910390fd5b60c960cc600060cd6000868152602001908152602001600020548152602001908152602001600020600301604051602001612084929190613edc565b6040516020818303038152906040529050919050565b60cf6020528060005260406000206000915090505481565b60ce6020528060005260406000206000915090505481565b606060c96040516020016120de9190613f00565b604051602081830303815290604052905090565b6000606a60008473ffffffffffffffffffffffffffffffffffffffff1673ffffffffffffffffffffffffffffffffffffffff16815260200190815260200160002060008373ffffffffffffffffffffffffffffffffffffffff1673ffffffffffffffffffffffffffffffffffffffff16815260200190815260200160002060009054906101000a900460ff16905092915050565b61218e612481565b73ffffffffffffffffffffffffffffffffffffffff166121ac611a98565b73ffffffffffffffffffffffffffffffffffffffff1614612202576040517f08c379a00000000000000000000000000000000000000000000000000000000081526004016121f99061437b565b60405180910390fd5b600073ffffffffffffffffffffffffffffffffffffffff168173ffffffffffffffffffffffffffffffffffffffff161415612272576040517f08c379a0000000000000000000000000000000000000000000000000000000008152600401612269906141bb565b60405180910390fd5b61227b81612a73565b50565b612286612481565b73ffffffffffffffffffffffffffffffffffffffff166122a4611a98565b73ffffffffffffffffffffffffffffffffffffffff16146122fa576040517f08c379a00000000000000000000000000000000000000000000000000000000081526004016122f19061437b565b60405180910390fd5b8060cc6000848152602001908152602001600020600201600c6101000a81548163ffffffff021916908363ffffffff1602179055505050565b60007f80ac58cd000000000000000000000000000000000000000000000000000000007bffffffffffffffffffffffffffffffffffffffffffffffffffffffff1916827bffffffffffffffffffffffffffffffffffffffffffffffffffffffff191614806123fe57507f5b5e139f000000000000000000000000000000000000000000000000000000007bffffffffffffffffffffffffffffffffffffffffffffffffffffffff1916827bffffffffffffffffffffffffffffffffffffffffffffffffffffffff1916145b8061240e575061240d82612ed0565b5b9050919050565b60008073ffffffffffffffffffffffffffffffffffffffff166067600084815260200190815260200160002060009054906101000a900473ffffffffffffffffffffffffffffffffffffffff1673ffffffffffffffffffffffffffffffffffffffff1614159050919050565b600033905090565b816069600083815260200190815260200160002060006101000a81548173ffffffffffffffffffffffffffffffffffffffff021916908373ffffffffffffffffffffffffffffffffffffffff160217905550808273ffffffffffffffffffffffffffffffffffffffff166124fc8361175e565b73ffffffffffffffffffffffffffffffffffffffff167f8c5be1e5ebec7d5bd14f71427d1e84f3dd0314c0f7b2291e5b200ac8c7c3b92560405160405180910390a45050565b600081600001549050919050565b80471015612593576040517f08c379a000000000000000000000000000000000000000000000000000000000815260040161258a906141db565b60405180910390fd5b60008273ffffffffffffffffffffffffffffffffffffffff16826040516125b990613f22565b60006040518083038185875af1925050503d80600081146125f6576040519150601f19603f3d011682016040523d82523d6000602084013e6125fb565b606091505b505090508061263f576040517f08c379a00000000000000000000000000000000000000000000000000000000081526004016126369061447b565b60405180910390fd5b505050565b600061264f82612415565b61268e576040517f08c379a00000000000000000000000000000000000000000000000000000000081526004016126859061427b565b60405180910390fd5b60006126998361175e565b90508073ffffffffffffffffffffffffffffffffffffffff168473ffffffffffffffffffffffffffffffffffffffff16148061270857508373ffffffffffffffffffffffffffffffffffffffff166126f0846108d9565b73ffffffffffffffffffffffffffffffffffffffff16145b80612719575061271881856120f2565b5b91505092915050565b8273ffffffffffffffffffffffffffffffffffffffff166127428261175e565b73ffffffffffffffffffffffffffffffffffffffff1614612798576040517f08c379a000000000000000000000000000000000000000000000000000000000815260040161278f906143bb565b60405180910390fd5b600073ffffffffffffffffffffffffffffffffffffffff168273ffffffffffffffffffffffffffffffffffffffff161415612808576040517f08c379a00000000000000000000000000000000000000000000000000000000081526004016127ff9061421b565b60405180910390fd5b612813838383612f3a565b61281e600082612489565b6001606860008573ffffffffffffffffffffffffffffffffffffffff1673ffffffffffffffffffffffffffffffffffffffff168152602001908152602001600020600082825461286e919061472e565b925050819055506001606860008473ffffffffffffffffffffffffffffffffffffffff1673ffffffffffffffffffffffffffffffffffffffff16815260200190815260200160002060008282546128c5919061464d565b92505081905550816067600083815260200190815260200160002060006101000a81548173ffffffffffffffffffffffffffffffffffffffff021916908373ffffffffffffffffffffffffffffffffffffffff160217905550808273ffffffffffffffffffffffffffffffffffffffff168473ffffffffffffffffffffffffffffffffffffffff167fddf252ad1be2c89b69c2b068fc378daa952ba7f163c4a11628f55a4df523b3ef60405160405180910390a4505050565b600061298930612f3f565b15905090565b600060019054906101000a900460ff166129de576040517f08c379a00000000000000000000000000000000000000000000000000000000081526004016129d59061445b565b60405180910390fd5b6129e6612f52565b6129ee612fa3565b6129f88282612ff4565b5050565b600060019054906101000a900460ff16612a4b576040517f08c379a0000000000000000000000000000000000000000000000000000000008152600401612a429061445b565b60405180910390fd5b612a53612f52565b612a5b613075565b565b6001816000016000828254019250508190555050565b6000609760009054906101000a900473ffffffffffffffffffffffffffffffffffffffff16905081609760006101000a81548173ffffffffffffffffffffffffffffffffffffffff021916908373ffffffffffffffffffffffffffffffffffffffff1602179055508173ffffffffffffffffffffffffffffffffffffffff168173ffffffffffffffffffffffffffffffffffffffff167f8be0079c531659141344cd1fd0a4f28419497f9722a3daafe3b4186f6b6457e060405160405180910390a35050565b8173ffffffffffffffffffffffffffffffffffffffff168373ffffffffffffffffffffffffffffffffffffffff161415612ba8576040517f08c379a0000000000000000000000000000000000000000000000000000000008152600401612b9f9061423b565b60405180910390fd5b80606a60008573ffffffffffffffffffffffffffffffffffffffff1673ffffffffffffffffffffffffffffffffffffffff16815260200190815260200160002060008473ffffffffffffffffffffffffffffffffffffffff1673ffffffffffffffffffffffffffffffffffffffff16815260200190815260200160002060006101000a81548160ff0219169083151502179055508173ffffffffffffffffffffffffffffffffffffffff168373ffffffffffffffffffffffffffffffffffffffff167f17307eab39ab6107e8899845ad3d59bd9653f200f220920489ca2b5937696c3183604051612c99919061415e565b60405180910390a3505050565b612cb1848484612722565b612cbd848484846130d6565b612cfc576040517f08c379a0000000000000000000000000000000000000000000000000000000008152600401612cf39061419b565b60405180910390fd5b50505050565b600073ffffffffffffffffffffffffffffffffffffffff168273ffffffffffffffffffffffffffffffffffffffff161415612d72576040517f08c379a0000000000000000000000000000000000000000000000000000000008152600401612d699061433b565b60405180910390fd5b612d7b81612415565b15612dbb576040517f08c379a0000000000000000000000000000000000000000000000000000000008152600401612db2906141fb565b60405180910390fd5b612dc760008383612f3a565b6001606860008473ffffffffffffffffffffffffffffffffffffffff1673ffffffffffffffffffffffffffffffffffffffff1681526020019081526020016000206000828254612e17919061464d565b92505081905550816067600083815260200190815260200160002060006101000a81548173ffffffffffffffffffffffffffffffffffffffff021916908373ffffffffffffffffffffffffffffffffffffffff160217905550808273ffffffffffffffffffffffffffffffffffffffff16600073ffffffffffffffffffffffffffffffffffffffff167fddf252ad1be2c89b69c2b068fc378daa952ba7f163c4a11628f55a4df523b3ef60405160405180910390a45050565b60007f01ffc9a7000000000000000000000000000000000000000000000000000000007bffffffffffffffffffffffffffffffffffffffffffffffffffffffff1916827bffffffffffffffffffffffffffffffffffffffffffffffffffffffff1916149050919050565b505050565b600080823b905060008111915050919050565b600060019054906101000a900460ff16612fa1576040517f08c379a0000000000000000000000000000000000000000000000000000000008152600401612f989061445b565b60405180910390fd5b565b600060019054906101000a900460ff16612ff2576040517f08c379a0000000000000000000000000000000000000000000000000000000008152600401612fe99061445b565b60405180910390fd5b565b600060019054906101000a900460ff16613043576040517f08c379a000000000000000000000000000000000000000000000000000000000815260040161303a9061445b565b60405180910390fd5b816065908051906020019061305992919061326d565b50806066908051906020019061307092919061326d565b505050565b600060019054906101000a900460ff166130c4576040517f08c379a00000000000000000000000000000000000000000000000000000000081526004016130bb9061445b565b60405180910390fd5b6130d46130cf612481565b612a73565b565b60006130f78473ffffffffffffffffffffffffffffffffffffffff16612f3f565b15613260578373ffffffffffffffffffffffffffffffffffffffff1663150b7a02613120612481565b8786866040518563ffffffff1660e01b81526004016131429493929190614003565b602060405180830381600087803b15801561315c57600080fd5b505af192505050801561318d57506040513d601f19601f8201168201806040525081019061318a91906136d9565b60015b613210573d80600081146131bd576040519150601f19603f3d011682016040523d82523d6000602084013e6131c2565b606091505b50600081511415613208576040517f08c379a00000000000000000000000000000000000000000000000000000000081526004016131ff9061419b565b60405180910390fd5b805181602001fd5b63150b7a0260e01b7bffffffffffffffffffffffffffffffffffffffffffffffffffffffff1916817bffffffffffffffffffffffffffffffffffffffffffffffffffffffff191614915050613265565b600190505b949350505050565b8280546132799061483a565b90600052602060002090601f01602090048101928261329b57600085556132e2565b82601f106132b457805160ff19168380011785556132e2565b828001600101855582156132e2579182015b828111156132e15782518255916020019190600101906132c6565b5b5090506132ef91906132f3565b5090565b5b8082111561330c5760008160009055506001016132f4565b5090565b600061332361331e84614516565b6144f1565b90508281526020810184848401111561333b57600080fd5b6133468482856147f8565b509392505050565b600061336161335c84614547565b6144f1565b90508281526020810184848401111561337957600080fd5b6133848482856147f8565b509392505050565b60008135905061339b81615093565b92915050565b6000813590506133b0816150aa565b92915050565b6000813590506133c5816150c1565b92915050565b6000815190506133da816150c1565b92915050565b600082601f8301126133f157600080fd5b8135613401848260208601613310565b91505092915050565b600082601f83011261341b57600080fd5b813561342b84826020860161334e565b91505092915050565b600081359050613443816150d8565b92915050565b600081359050613458816150ef565b92915050565b60006020828403121561347057600080fd5b600061347e8482850161338c565b91505092915050565b6000806040838503121561349a57600080fd5b60006134a88582860161338c565b92505060206134b98582860161338c565b9150509250929050565b6000806000606084860312156134d857600080fd5b60006134e68682870161338c565b93505060206134f78682870161338c565b925050604061350886828701613434565b9150509250925092565b6000806000806080858703121561352857600080fd5b60006135368782880161338c565b94505060206135478782880161338c565b935050604061355887828801613434565b925050606085013567ffffffffffffffff81111561357557600080fd5b613581878288016133e0565b91505092959194509250565b600080604083850312156135a057600080fd5b60006135ae8582860161338c565b92505060206135bf858286016133a1565b9150509250929050565b600080600080608085870312156135df57600080fd5b60006135ed8782880161338c565b945050602085013567ffffffffffffffff81111561360a57600080fd5b6136168782880161340a565b935050604085013567ffffffffffffffff81111561363357600080fd5b61363f8782880161340a565b925050606085013567ffffffffffffffff81111561365c57600080fd5b6136688782880161340a565b91505092959194509250565b6000806040838503121561368757600080fd5b60006136958582860161338c565b92505060206136a685828601613434565b9150509250929050565b6000602082840312156136c257600080fd5b60006136d0848285016133b6565b91505092915050565b6000602082840312156136eb57600080fd5b60006136f9848285016133cb565b91505092915050565b60006020828403121561371457600080fd5b600061372284828501613434565b91505092915050565b6000806040838503121561373e57600080fd5b600061374c85828601613434565b925050602061375d85828601613434565b9150509250929050565b6000806040838503121561377a57600080fd5b600061378885828601613434565b925050602061379985828601613449565b9150509250929050565b600080600080600080600080610100898b0312156137c057600080fd5b60006137ce8b828c01613434565b98505060206137df8b828c01613449565b97505060406137f08b828c01613449565b96505060606138018b828c01613449565b95505060806138128b828c01613449565b94505060a089013567ffffffffffffffff81111561382f57600080fd5b61383b8b828c0161340a565b93505060c089013567ffffffffffffffff81111561385857600080fd5b6138648b828c0161340a565b92505060e089013567ffffffffffffffff81111561388157600080fd5b61388d8b828c0161340a565b9150509295985092959890939650565b60006138a983836138dc565b60208301905092915050565b60006138c18383613e98565b60208301905092915050565b6138d681614774565b82525050565b6138e581614762565b82525050565b6138f481614762565b82525050565b6000613905826145ad565b61390f81856145f3565b935061391a83614578565b8060005b8381101561394b578151613932888261389d565b975061393d836145d9565b92505060018101905061391e565b5085935050505092915050565b6000613963826145b8565b61396d8185614604565b935061397883614588565b8060005b838110156139a957815161399088826138b5565b975061399b836145e6565b92505060018101905061397c565b5085935050505092915050565b6139bf81614786565b82525050565b60006139d0826145c3565b6139da8185614615565b93506139ea818560208601614807565b6139f3816149cf565b840191505092915050565b6000613a09826145ce565b613a138185614631565b9350613a23818560208601614807565b613a2c816149cf565b840191505092915050565b6000613a42826145ce565b613a4c8185614642565b9350613a5c818560208601614807565b80840191505092915050565b60008154613a758161483a565b613a7f8186614642565b94506001821660008114613a9a5760018114613aab57613ade565b60ff19831686528186019350613ade565b613ab485614598565b60005b83811015613ad657815481890152600182019150602081019050613ab7565b838801955050505b50505092915050565b6000613af4603283614631565b9150613aff826149e0565b604082019050919050565b6000613b17602683614631565b9150613b2282614a2f565b604082019050919050565b6000613b3a601d83614631565b9150613b4582614a7e565b602082019050919050565b6000613b5d601c83614631565b9150613b6882614aa7565b602082019050919050565b6000613b80602483614631565b9150613b8b82614ad0565b604082019050919050565b6000613ba3601983614631565b9150613bae82614b1f565b602082019050919050565b6000613bc6601183614631565b9150613bd182614b48565b602082019050919050565b6000613be9602c83614631565b9150613bf482614b71565b604082019050919050565b6000613c0c603883614631565b9150613c1782614bc0565b604082019050919050565b6000613c2f602a83614631565b9150613c3a82614c0f565b604082019050919050565b6000613c52602983614631565b9150613c5d82614c5e565b604082019050919050565b6000613c75602e83614631565b9150613c8082614cad565b604082019050919050565b6000613c98601683614631565b9150613ca382614cfc565b602082019050919050565b6000613cbb602083614631565b9150613cc682614d25565b602082019050919050565b6000613cde602c83614631565b9150613ce982614d4e565b604082019050919050565b6000613d01600a83614642565b9150613d0c82614d9d565b600a82019050919050565b6000613d24602083614631565b9150613d2f82614dc6565b602082019050919050565b6000613d47602183614631565b9150613d5282614def565b604082019050919050565b6000613d6a602983614631565b9150613d7582614e3e565b604082019050919050565b6000613d8d602f83614631565b9150613d9882614e8d565b604082019050919050565b6000613db0602983614631565b9150613dbb82614edc565b604082019050919050565b6000613dd3602183614631565b9150613dde82614f2b565b604082019050919050565b6000613df6600083614626565b9150613e0182614f7a565b600082019050919050565b6000613e19603183614631565b9150613e2482614f7d565b604082019050919050565b6000613e3c602b83614631565b9150613e4782614fcc565b604082019050919050565b6000613e5f603183614631565b9150613e6a8261501b565b604082019050919050565b6000613e82601683614631565b9150613e8d8261506a565b602082019050919050565b613ea1816147de565b82525050565b613eb0816147de565b82525050565b613ebf816147e8565b82525050565b6000613ed18284613a37565b915081905092915050565b6000613ee88285613a68565b9150613ef48284613a68565b91508190509392505050565b6000613f0c8284613a68565b9150613f1782613cf4565b915081905092915050565b6000613f2d82613de9565b9150819050919050565b6000602082019050613f4c60008301846138eb565b92915050565b600061014082019050613f68600083018d6138cd565b613f75602083018c613ea7565b613f82604083018b613eb6565b613f8f606083018a613eb6565b613f9c6080830189613eb6565b613fa960a0830188613eb6565b613fb660c0830187613eb6565b81810360e0830152613fc881866139fe565b9050818103610100830152613fdd81856139fe565b9050818103610120830152613ff281846139fe565b90509b9a5050505050505050505050565b600060808201905061401860008301876138eb565b61402560208301866138eb565b6140326040830185613ea7565b818103606083015261404481846139c5565b905095945050505050565b600060408201905061406460008301856138eb565b6140716020830184613ea7565b9392505050565b60006101208201905061408e600083018c6138eb565b61409b602083018b613ea7565b6140a8604083018a613eb6565b6140b56060830189613eb6565b6140c26080830188613eb6565b6140cf60a0830187613eb6565b81810360c08301526140e181866139fe565b905081810360e08301526140f581856139fe565b905081810361010083015261410a81846139fe565b90509a9950505050505050505050565b6000602082019050818103600083015261413481846138fa565b905092915050565b600060208201905081810360008301526141568184613958565b905092915050565b600060208201905061417360008301846139b6565b92915050565b6000602082019050818103600083015261419381846139fe565b905092915050565b600060208201905081810360008301526141b481613ae7565b9050919050565b600060208201905081810360008301526141d481613b0a565b9050919050565b600060208201905081810360008301526141f481613b2d565b9050919050565b6000602082019050818103600083015261421481613b50565b9050919050565b6000602082019050818103600083015261423481613b73565b9050919050565b6000602082019050818103600083015261425481613b96565b9050919050565b6000602082019050818103600083015261427481613bb9565b9050919050565b6000602082019050818103600083015261429481613bdc565b9050919050565b600060208201905081810360008301526142b481613bff565b9050919050565b600060208201905081810360008301526142d481613c22565b9050919050565b600060208201905081810360008301526142f481613c45565b9050919050565b6000602082019050818103600083015261431481613c68565b9050919050565b6000602082019050818103600083015261433481613c8b565b9050919050565b6000602082019050818103600083015261435481613cae565b9050919050565b6000602082019050818103600083015261437481613cd1565b9050919050565b6000602082019050818103600083015261439481613d17565b9050919050565b600060208201905081810360008301526143b481613d3a565b9050919050565b600060208201905081810360008301526143d481613d5d565b9050919050565b600060208201905081810360008301526143f481613d80565b9050919050565b6000602082019050818103600083015261441481613da3565b9050919050565b6000602082019050818103600083015261443481613dc6565b9050919050565b6000602082019050818103600083015261445481613e0c565b9050919050565b6000602082019050818103600083015261447481613e2f565b9050919050565b6000602082019050818103600083015261449481613e52565b9050919050565b600060208201905081810360008301526144b481613e75565b9050919050565b60006020820190506144d06000830184613ea7565b92915050565b60006020820190506144eb6000830184613eb6565b92915050565b60006144fb61450c565b9050614507828261486c565b919050565b6000604051905090565b600067ffffffffffffffff821115614531576145306149a0565b5b61453a826149cf565b9050602081019050919050565b600067ffffffffffffffff821115614562576145616149a0565b5b61456b826149cf565b9050602081019050919050565b6000819050602082019050919050565b6000819050602082019050919050565b60008190508160005260206000209050919050565b600081519050919050565b600081519050919050565b600081519050919050565b600081519050919050565b6000602082019050919050565b6000602082019050919050565b600082825260208201905092915050565b600082825260208201905092915050565b600082825260208201905092915050565b600081905092915050565b600082825260208201905092915050565b600081905092915050565b6000614658826147de565b9150614663836147de565b9250827fffffffffffffffffffffffffffffffffffffffffffffffffffffffffffffffff0382111561469857614697614913565b5b828201905092915050565b60006146ae826147de565b91506146b9836147de565b9250826146c9576146c8614942565b5b828204905092915050565b60006146df826147de565b91506146ea836147de565b9250817fffffffffffffffffffffffffffffffffffffffffffffffffffffffffffffffff048311821515161561472357614722614913565b5b828202905092915050565b6000614739826147de565b9150614744836147de565b92508282101561475757614756614913565b5b828203905092915050565b600061476d826147be565b9050919050565b600061477f826147be565b9050919050565b60008115159050919050565b60007fffffffff0000000000000000000000000000000000000000000000000000000082169050919050565b600073ffffffffffffffffffffffffffffffffffffffff82169050919050565b6000819050919050565b600063ffffffff82169050919050565b82818337600083830152505050565b60005b8381101561482557808201518184015260208101905061480a565b83811115614834576000848401525b50505050565b6000600282049050600182168061485257607f821691505b6020821081141561486657614865614971565b5b50919050565b614875826149cf565b810181811067ffffffffffffffff82111715614894576148936149a0565b5b80604052505050565b60006148a8826147de565b91507fffffffffffffffffffffffffffffffffffffffffffffffffffffffffffffffff8214156148db576148da614913565b5b600182019050919050565b60006148f1826147e8565b915063ffffffff82141561490857614907614913565b5b600182019050919050565b7f4e487b7100000000000000000000000000000000000000000000000000000000600052601160045260246000fd5b7f4e487b7100000000000000000000000000000000000000000000000000000000600052601260045260246000fd5b7f4e487b7100000000000000000000000000000000000000000000000000000000600052602260045260246000fd5b7f4e487b7100000000000000000000000000000000000000000000000000000000600052604160045260246000fd5b6000601f19601f8301169050919050565b7f4552433732313a207472616e7366657220746f206e6f6e20455243373231526560008201527f63656976657220696d706c656d656e7465720000000000000000000000000000602082015250565b7f4f776e61626c653a206e6577206f776e657220697320746865207a65726f206160008201527f6464726573730000000000000000000000000000000000000000000000000000602082015250565b7f496e73756666696369656e742062616c616e636520666f722073656e64000000600082015250565b7f4552433732313a20746f6b656e20616c7265616479206d696e74656400000000600082015250565b7f4552433732313a207472616e7366657220746f20746865207a65726f2061646460008201527f7265737300000000000000000000000000000000000000000000000000000000602082015250565b7f4552433732313a20617070726f766520746f2063616c6c657200000000000000600082015250565b7f41756374696f6e2068617320656e646564000000000000000000000000000000600082015250565b7f4552433732313a206f70657261746f7220717565727920666f72206e6f6e657860008201527f697374656e7420746f6b656e0000000000000000000000000000000000000000602082015250565b7f4552433732313a20617070726f76652063616c6c6572206973206e6f74206f7760008201527f6e6572206e6f7220617070726f76656420666f7220616c6c0000000000000000602082015250565b7f4552433732313a2062616c616e636520717565727920666f7220746865207a6560008201527f726f206164647265737300000000000000000000000000000000000000000000602082015250565b7f4552433732313a206f776e657220717565727920666f72206e6f6e657869737460008201527f656e7420746f6b656e0000000000000000000000000000000000000000000000602082015250565b7f496e697469616c697a61626c653a20636f6e747261637420697320616c72656160008201527f647920696e697469616c697a6564000000000000000000000000000000000000602082015250565b7f41756374696f6e206861736e2774207374617274656400000000000000000000600082015250565b7f4552433732313a206d696e7420746f20746865207a65726f2061646472657373600082015250565b7f4552433732313a20617070726f76656420717565727920666f72206e6f6e657860008201527f697374656e7420746f6b656e0000000000000000000000000000000000000000602082015250565b7f73746f726566726f6e7400000000000000000000000000000000000000000000600082015250565b7f4f776e61626c653a2063616c6c6572206973206e6f7420746865206f776e6572600082015250565b7f546869732065646974696f6e20697320616c726561647920736f6c64206f757460008201527f2e00000000000000000000000000000000000000000000000000000000000000602082015250565b7f4552433732313a207472616e73666572206f6620746f6b656e2074686174206960008201527f73206e6f74206f776e0000000000000000000000000000000000000000000000602082015250565b7f4552433732314d657461646174613a2055524920717565727920666f72206e6f60008201527f6e6578697374656e7420746f6b656e0000000000000000000000000000000000602082015250565b7f4d7573742073656e6420656e6f75676820746f2070757263686173652074686560008201527f2065646974696f6e2e0000000000000000000000000000000000000000000000602082015250565b7f4552433732313a20617070726f76616c20746f2063757272656e74206f776e6560008201527f7200000000000000000000000000000000000000000000000000000000000000602082015250565b50565b7f4552433732313a207472616e736665722063616c6c6572206973206e6f74206f60008201527f776e6572206e6f7220617070726f766564000000000000000000000000000000602082015250565b7f496e697469616c697a61626c653a20636f6e7472616374206973206e6f74206960008201527f6e697469616c697a696e67000000000000000000000000000000000000000000602082015250565b7f556e61626c6520746f2073656e642076616c75653a20726563697069656e742060008201527f6d61792068617665207265766572746564000000000000000000000000000000602082015250565b7f45646974696f6e20646f6573206e6f7420657869737400000000000000000000600082015250565b61509c81614762565b81146150a757600080fd5b50565b6150b381614786565b81146150be57600080fd5b50565b6150ca81614792565b81146150d557600080fd5b50565b6150e1816147de565b81146150ec57600080fd5b50565b6150f8816147e8565b811461510357600080fd5b5056fea26469706673582212200f8281a2e044ab1c2d2b4455712deeb0505fa733175cb01665472710a408e8ec64736f6c63430008040033",
  "linkReferences": {},
  "deployedLinkReferences": {}
}