{
  "_format": "hh-sol-artifact-1",
  "contractName": "ArtistCreator",
  "sourceName": "contracts/ArtistCreator.sol",
  "abi": [
    {
      "anonymous": false,
      "inputs": [
        {
          "indexed": false,
          "internalType": "address",
          "name": "previousAdmin",
          "type": "address"
        },
        {
          "indexed": false,
          "internalType": "address",
          "name": "newAdmin",
          "type": "address"
        }
      ],
      "name": "AdminChanged",
      "type": "event"
    },
    {
      "anonymous": false,
      "inputs": [
        {
          "indexed": true,
          "internalType": "address",
          "name": "beacon",
          "type": "address"
        }
      ],
      "name": "BeaconUpgraded",
      "type": "event"
    },
    {
      "anonymous": false,
      "inputs": [
        {
          "indexed": false,
          "internalType": "uint256",
          "name": "artistId",
          "type": "uint256"
        },
        {
          "indexed": false,
          "internalType": "string",
          "name": "name",
          "type": "string"
        },
        {
          "indexed": false,
          "internalType": "string",
          "name": "symbol",
          "type": "string"
        },
        {
          "indexed": true,
          "internalType": "address",
          "name": "artistAddress",
          "type": "address"
        }
      ],
      "name": "CreatedArtist",
      "type": "event"
    },
    {
      "anonymous": false,
      "inputs": [
        {
          "indexed": true,
          "internalType": "address",
          "name": "previousOwner",
          "type": "address"
        },
        {
          "indexed": true,
          "internalType": "address",
          "name": "newOwner",
          "type": "address"
        }
      ],
      "name": "OwnershipTransferred",
      "type": "event"
    },
    {
      "anonymous": false,
      "inputs": [
        {
          "indexed": true,
          "internalType": "address",
          "name": "implementation",
          "type": "address"
        }
      ],
      "name": "Upgraded",
      "type": "event"
    },
    {
      "inputs": [],
      "name": "DOMAIN_SEPARATOR",
      "outputs": [
        {
          "internalType": "bytes32",
          "name": "",
          "type": "bytes32"
        }
      ],
      "stateMutability": "view",
      "type": "function"
    },
    {
      "inputs": [],
      "name": "MINTER_TYPEHASH",
      "outputs": [
        {
          "internalType": "bytes32",
          "name": "",
          "type": "bytes32"
        }
      ],
      "stateMutability": "view",
      "type": "function"
    },
    {
      "inputs": [],
      "name": "admin",
      "outputs": [
        {
          "internalType": "address",
          "name": "",
          "type": "address"
        }
      ],
      "stateMutability": "view",
      "type": "function"
    },
    {
      "inputs": [
        {
          "internalType": "uint256",
          "name": "",
          "type": "uint256"
        }
      ],
      "name": "artistContracts",
      "outputs": [
        {
          "internalType": "address",
          "name": "",
          "type": "address"
        }
      ],
      "stateMutability": "view",
      "type": "function"
    },
    {
      "inputs": [],
      "name": "beaconAddress",
      "outputs": [
        {
          "internalType": "address",
          "name": "",
          "type": "address"
        }
      ],
      "stateMutability": "view",
      "type": "function"
    },
    {
      "inputs": [
        {
          "internalType": "string",
          "name": "_name",
          "type": "string"
        },
        {
          "internalType": "string",
          "name": "_symbol",
          "type": "string"
        },
        {
          "internalType": "string",
          "name": "_baseURI",
          "type": "string"
        }
      ],
      "name": "createArtist",
      "outputs": [
        {
          "internalType": "address",
          "name": "",
          "type": "address"
        }
      ],
      "stateMutability": "nonpayable",
      "type": "function"
    },
    {
      "inputs": [
        {
          "internalType": "bytes",
          "name": "signature",
          "type": "bytes"
        }
      ],
      "name": "getSigner",
      "outputs": [
        {
          "internalType": "address",
          "name": "",
          "type": "address"
        }
      ],
      "stateMutability": "view",
      "type": "function"
    },
    {
      "inputs": [
        {
          "internalType": "address",
          "name": "_beaconAddress",
          "type": "address"
        }
      ],
      "name": "initialize",
      "outputs": [],
      "stateMutability": "nonpayable",
      "type": "function"
    },
    {
      "inputs": [],
      "name": "owner",
      "outputs": [
        {
          "internalType": "address",
          "name": "",
          "type": "address"
        }
      ],
      "stateMutability": "view",
      "type": "function"
    },
    {
      "inputs": [],
      "name": "renounceOwnership",
      "outputs": [],
      "stateMutability": "nonpayable",
      "type": "function"
    },
    {
      "inputs": [
        {
          "internalType": "address",
          "name": "_newAdmin",
          "type": "address"
        }
      ],
      "name": "setAdmin",
      "outputs": [],
      "stateMutability": "nonpayable",
      "type": "function"
    },
    {
      "inputs": [
        {
          "internalType": "address",
          "name": "newOwner",
          "type": "address"
        }
      ],
      "name": "transferOwnership",
      "outputs": [],
      "stateMutability": "nonpayable",
      "type": "function"
    },
    {
      "inputs": [
        {
          "internalType": "address",
          "name": "newImplementation",
          "type": "address"
        }
      ],
      "name": "upgradeTo",
      "outputs": [],
      "stateMutability": "nonpayable",
      "type": "function"
    },
    {
      "inputs": [
        {
          "internalType": "address",
          "name": "newImplementation",
          "type": "address"
        },
        {
          "internalType": "bytes",
          "name": "data",
          "type": "bytes"
        }
      ],
      "name": "upgradeToAndCall",
      "outputs": [],
      "stateMutability": "payable",
      "type": "function"
    }
  ],
  "bytecode": "0x60a06040523073ffffffffffffffffffffffffffffffffffffffff1660809073ffffffffffffffffffffffffffffffffffffffff1660601b81525034801561004657600080fd5b5060805160601c613e5f61007a60003960008181610613015281816106a5015281816107d001526108620152613e5f6000f3fe608060405260043610620000f25760003560e01c80638da5cb5b116200008b578063e6adabfd1162000061578063e6adabfd14620002d3578063f2fde38b1462000317578063f851a4401462000345578063fa4d280c146200037557620000f2565b80638da5cb5b1462000231578063b16a43f01462000261578063c4d66de814620002a557620000f2565b80634f1ef28611620000cd5780634f1ef2861462000199578063704b6c0214620001b9578063715018a614620001e75780637e2ec6d0146200020157620000f2565b806310afc0cf14620000f75780633644e515146200013b5780633659cfe6146200016b575b600080fd5b3480156200010457600080fd5b506200012360048036038101906200011d919062001e63565b620003a5565b60405162000132919062002375565b60405180910390f35b3480156200014857600080fd5b50620001536200060b565b6040516200016291906200243e565b60405180910390f35b3480156200017857600080fd5b5062000197600480360381019062000191919062001d94565b62000611565b005b620001b76004803603810190620001b1919062001dc0565b620007ce565b005b348015620001c657600080fd5b50620001e56004803603810190620001df919062001d94565b62000917565b005b348015620001f457600080fd5b50620001ff62000a40565b005b3480156200020e57600080fd5b506200021962000ad1565b60405162000228919062002375565b60405180910390f35b3480156200023e57600080fd5b506200024962000af7565b60405162000258919062002375565b60405180910390f35b3480156200026e57600080fd5b506200028d600480360381019062000287919062001f11565b62000b21565b6040516200029c919062002375565b60405180910390f35b348015620002b257600080fd5b50620002d16004803603810190620002cb919062001d94565b62000b61565b005b348015620002e057600080fd5b50620002ff6004803603810190620002f9919062001e1a565b62000d38565b6040516200030e919062002375565b60405180910390f35b3480156200032457600080fd5b506200034360048036038101906200033d919062001d94565b62000eb1565b005b3480156200035257600080fd5b506200035d62000fb5565b6040516200036c919062002375565b60405180910390f35b3480156200038257600080fd5b506200038d62000fdb565b6040516200039c91906200243e565b60405180910390f35b600060ca60009054906101000a900473ffffffffffffffffffffffffffffffffffffffff1673ffffffffffffffffffffffffffffffffffffffff163373ffffffffffffffffffffffffffffffffffffffff16146200043a576040517f08c379a0000000000000000000000000000000000000000000000000000000008152600401620004319062002702565b60405180910390fd5b600060cc60009054906101000a900473ffffffffffffffffffffffffffffffffffffffff1663abfc83a060e01b336200047460c962000fff565b8b8b8b8b8b8b60405160240162000493989796959493929190620023c6565b604051602081830303815290604052907bffffffffffffffffffffffffffffffffffffffffffffffffffffffff19166020820180517bffffffffffffffffffffffffffffffffffffffffffffffffffffffff8381831617835250505050604051620004fe9062001c4c565b6200050b92919062002392565b604051809103906000f08015801562000528573d6000803e3d6000fd5b50905060cd819080600181540180825580915050600190039060005260206000200160009091909190916101000a81548173ffffffffffffffffffffffffffffffffffffffff021916908373ffffffffffffffffffffffffffffffffffffffff1602179055508073ffffffffffffffffffffffffffffffffffffffff167f23748b43b77f98380e738976c6324996908ffc1989994dd3c68631c87a65a7c0620005d260c962000fff565b8a8a8a8a604051620005e995949392919062002746565b60405180910390a2620005fd60c96200100d565b809150509695505050505050565b60cb5481565b7f000000000000000000000000000000000000000000000000000000000000000073ffffffffffffffffffffffffffffffffffffffff163073ffffffffffffffffffffffffffffffffffffffff161415620006a3576040517f08c379a00000000000000000000000000000000000000000000000000000000081526004016200069a90620025ae565b60405180910390fd5b7f000000000000000000000000000000000000000000000000000000000000000073ffffffffffffffffffffffffffffffffffffffff16620006e462001023565b73ffffffffffffffffffffffffffffffffffffffff16146200073d576040517f08c379a00000000000000000000000000000000000000000000000000000000081526004016200073490620025f2565b60405180910390fd5b62000748816200107c565b620007cb81600067ffffffffffffffff8111156200078f577f4e487b7100000000000000000000000000000000000000000000000000000000600052604160045260246000fd5b6040519080825280601f01601f191660200182016040528015620007c25781602001600182028036833780820191505090505b50600062001102565b50565b7f000000000000000000000000000000000000000000000000000000000000000073ffffffffffffffffffffffffffffffffffffffff163073ffffffffffffffffffffffffffffffffffffffff16141562000860576040517f08c379a00000000000000000000000000000000000000000000000000000000081526004016200085790620025ae565b60405180910390fd5b7f000000000000000000000000000000000000000000000000000000000000000073ffffffffffffffffffffffffffffffffffffffff16620008a162001023565b73ffffffffffffffffffffffffffffffffffffffff1614620008fa576040517f08c379a0000000000000000000000000000000000000000000000000000000008152600401620008f190620025f2565b60405180910390fd5b62000905826200107c565b620009138282600162001102565b5050565b62000921620012e9565b73ffffffffffffffffffffffffffffffffffffffff166200094162000af7565b73ffffffffffffffffffffffffffffffffffffffff161480620009ba575062000969620012e9565b73ffffffffffffffffffffffffffffffffffffffff1660ca60009054906101000a900473ffffffffffffffffffffffffffffffffffffffff1673ffffffffffffffffffffffffffffffffffffffff16145b620009fc576040517f08c379a0000000000000000000000000000000000000000000000000000000008152600401620009f39062002614565b60405180910390fd5b8060ca60006101000a81548173ffffffffffffffffffffffffffffffffffffffff021916908373ffffffffffffffffffffffffffffffffffffffff16021790555050565b62000a4a620012e9565b73ffffffffffffffffffffffffffffffffffffffff1662000a6a62000af7565b73ffffffffffffffffffffffffffffffffffffffff161462000ac3576040517f08c379a000000000000000000000000000000000000000000000000000000000815260040162000aba906200269c565b60405180910390fd5b62000acf6000620012f1565b565b60cc60009054906101000a900473ffffffffffffffffffffffffffffffffffffffff1681565b6000609760009054906101000a900473ffffffffffffffffffffffffffffffffffffffff16905090565b60cd818154811062000b3257600080fd5b906000526020600020016000915054906101000a900473ffffffffffffffffffffffffffffffffffffffff1681565b600060019054906101000a900460ff1662000b8b5760008054906101000a900460ff161562000b96565b62000b95620013b7565b5b62000bd8576040517f08c379a000000000000000000000000000000000000000000000000000000000815260040162000bcf9062002636565b60405180910390fd5b60008060019054906101000a900460ff16159050801562000c29576001600060016101000a81548160ff02191690831515021790555060016000806101000a81548160ff0219169083151502179055505b62000c33620013ca565b3360ca60006101000a81548173ffffffffffffffffffffffffffffffffffffffff021916908373ffffffffffffffffffffffffffffffffffffffff1602179055507fc49a8e302e3e5d6753b2bb3dbc3c28deba5e16e2572a92aef568063c963e34654660405160200162000ca992919062002488565b6040516020818303038152906040528051906020012060cb819055508160cc60006101000a81548173ffffffffffffffffffffffffffffffffffffffff021916908373ffffffffffffffffffffffffffffffffffffffff16021790555062000d1260c96200100d565b801562000d345760008060016101000a81548160ff0219169083151502179055505b5050565b60008073ffffffffffffffffffffffffffffffffffffffff1660ca60009054906101000a900473ffffffffffffffffffffffffffffffffffffffff1673ffffffffffffffffffffffffffffffffffffffff16141562000dce576040517f08c379a000000000000000000000000000000000000000000000000000000000815260040162000dc59062002724565b60405180910390fd5b600060cb547f5925e35aebbeb7738ae3e97ad24e3b4cc09001c8668d81f3365213a0ec1e85b23360405160200162000e089291906200245b565b6040516020818303038152906040528051906020012060405160200162000e3192919062002338565b604051602081830303815290604052805190602001209050600062000ea485858080601f016020809104026020016040519081016040528093929190818152602001838380828437600081840152601f19601f82011690508083019250505050505050836200143290919063ffffffff16565b9050809250505092915050565b62000ebb620012e9565b73ffffffffffffffffffffffffffffffffffffffff1662000edb62000af7565b73ffffffffffffffffffffffffffffffffffffffff161462000f34576040517f08c379a000000000000000000000000000000000000000000000000000000000815260040162000f2b906200269c565b60405180910390fd5b600073ffffffffffffffffffffffffffffffffffffffff168173ffffffffffffffffffffffffffffffffffffffff16141562000fa7576040517f08c379a000000000000000000000000000000000000000000000000000000000815260040162000f9e906200258c565b60405180910390fd5b62000fb281620012f1565b50565b60ca60009054906101000a900473ffffffffffffffffffffffffffffffffffffffff1681565b7f5925e35aebbeb7738ae3e97ad24e3b4cc09001c8668d81f3365213a0ec1e85b281565b600081600001549050919050565b6001816000016000828254019250508190555050565b6000620010537f360894a13ba1a3210667c828492db98dca3e2076cc3735a920a3ca505d382bbc60001b6200145d565b60000160009054906101000a900473ffffffffffffffffffffffffffffffffffffffff16905090565b62001086620012e9565b73ffffffffffffffffffffffffffffffffffffffff16620010a662000af7565b73ffffffffffffffffffffffffffffffffffffffff1614620010ff576040517f08c379a0000000000000000000000000000000000000000000000000000000008152600401620010f6906200269c565b60405180910390fd5b50565b60006200110e62001023565b90506200111b8462001467565b600083511180620011295750815b156200113d576200113b848462001527565b505b60006200116d7f4910fdfa16fed3260ed0e7147f7cc6da11a60208b5b9406d12a635614ffd914360001b62001617565b90508060000160009054906101000a900460ff16620012e25760018160000160006101000a81548160ff0219169083151502179055506200123e8583604051602401620011bb919062002375565b6040516020818303038152906040527f3659cfe6000000000000000000000000000000000000000000000000000000007bffffffffffffffffffffffffffffffffffffffffffffffffffffffff19166020820180517bffffffffffffffffffffffffffffffffffffffffffffffffffffffff838183161783525050505062001527565b5060008160000160006101000a81548160ff0219169083151502179055506200126662001023565b73ffffffffffffffffffffffffffffffffffffffff168273ffffffffffffffffffffffffffffffffffffffff1614620012d6576040517f08c379a0000000000000000000000000000000000000000000000000000000008152600401620012cd906200256a565b60405180910390fd5b620012e18562001621565b5b5050505050565b600033905090565b6000609760009054906101000a900473ffffffffffffffffffffffffffffffffffffffff16905081609760006101000a81548173ffffffffffffffffffffffffffffffffffffffff021916908373ffffffffffffffffffffffffffffffffffffffff1602179055508173ffffffffffffffffffffffffffffffffffffffff168173ffffffffffffffffffffffffffffffffffffffff167f8be0079c531659141344cd1fd0a4f28419497f9722a3daafe3b4186f6b6457e060405160405180910390a35050565b6000620013c43062001672565b15905090565b600060019054906101000a900460ff166200141c576040517f08c379a00000000000000000000000000000000000000000000000000000000081526004016200141390620026e0565b60405180910390fd5b620014306200142a620012e9565b620012f1565b565b600080600062001443858562001685565b91509150620014528162001710565b819250505092915050565b6000819050919050565b620014728162001672565b620014b4576040517f08c379a0000000000000000000000000000000000000000000000000000000008152600401620014ab906200267a565b60405180910390fd5b80620014e37f360894a13ba1a3210667c828492db98dca3e2076cc3735a920a3ca505d382bbc60001b6200145d565b60000160006101000a81548173ffffffffffffffffffffffffffffffffffffffff021916908373ffffffffffffffffffffffffffffffffffffffff16021790555050565b6060620015348362001672565b62001576576040517f08c379a00000000000000000000000000000000000000000000000000000000081526004016200156d90620026be565b60405180910390fd5b6000808473ffffffffffffffffffffffffffffffffffffffff1684604051620015a091906200231f565b600060405180830381855af49150503d8060008114620015dd576040519150601f19603f3d011682016040523d82523d6000602084013e620015e2565b606091505b50915091506200160d828260405180606001604052806027815260200162003e036027913962001a79565b9250505092915050565b6000819050919050565b6200162c8162001467565b8073ffffffffffffffffffffffffffffffffffffffff167fbc7cd75a20ee27fd9adebab32041f755214dbc6bffa90cc0225b39da2e5c2d3b60405160405180910390a250565b600080823b905060008111915050919050565b600080604183511415620016cb5760008060006020860151925060408601519150606086015160001a9050620016be8782858562001ae5565b9450945050505062001709565b60408351141562001700576000806020850151915060408501519050620016f486838362001bfc565b93509350505062001709565b60006002915091505b9250929050565b600060048111156200174b577f4e487b7100000000000000000000000000000000000000000000000000000000600052602160045260246000fd5b81600481111562001785577f4e487b7100000000000000000000000000000000000000000000000000000000600052602160045260246000fd5b1415620017925762001a76565b60016004811115620017cd577f4e487b7100000000000000000000000000000000000000000000000000000000600052602160045260246000fd5b81600481111562001807577f4e487b7100000000000000000000000000000000000000000000000000000000600052602160045260246000fd5b14156200184b576040517f08c379a0000000000000000000000000000000000000000000000000000000008152600401620018429062002526565b60405180910390fd5b6002600481111562001886577f4e487b7100000000000000000000000000000000000000000000000000000000600052602160045260246000fd5b816004811115620018c0577f4e487b7100000000000000000000000000000000000000000000000000000000600052602160045260246000fd5b141562001904576040517f08c379a0000000000000000000000000000000000000000000000000000000008152600401620018fb9062002548565b60405180910390fd5b600360048111156200193f577f4e487b7100000000000000000000000000000000000000000000000000000000600052602160045260246000fd5b81600481111562001979577f4e487b7100000000000000000000000000000000000000000000000000000000600052602160045260246000fd5b1415620019bd576040517f08c379a0000000000000000000000000000000000000000000000000000000008152600401620019b490620025d0565b60405180910390fd5b600480811115620019f7577f4e487b7100000000000000000000000000000000000000000000000000000000600052602160045260246000fd5b81600481111562001a31577f4e487b7100000000000000000000000000000000000000000000000000000000600052602160045260246000fd5b141562001a75576040517f08c379a000000000000000000000000000000000000000000000000000000000815260040162001a6c9062002658565b60405180910390fd5b5b50565b6060831562001a8b5782905062001ade565b60008351111562001a9f5782518084602001fd5b816040517f08c379a000000000000000000000000000000000000000000000000000000000815260040162001ad5919062002502565b60405180910390fd5b9392505050565b6000807f7fffffffffffffffffffffffffffffff5d576e7357a4501ddfe92f46681b20a08360001c111562001b2257600060039150915062001bf3565b601b8560ff161415801562001b3b5750601c8560ff1614155b1562001b4f57600060049150915062001bf3565b60006001878787876040516000815260200160405260405162001b769493929190620024b5565b6020604051602081039080840390855afa15801562001b99573d6000803e3d6000fd5b505050602060405103519050600073ffffffffffffffffffffffffffffffffffffffff168173ffffffffffffffffffffffffffffffffffffffff16141562001bea5760006001925092505062001bf3565b80600092509250505b94509492505050565b6000806000807f7fffffffffffffffffffffffffffffffffffffffffffffffffffffffffffffff85169150601b8560ff1c01905062001c3e8782888562001ae5565b935093505050935093915050565b61103d8062002dc683390190565b600062001c7162001c6b84620027be565b62002795565b90508281526020810184848401111562001c8a57600080fd5b62001c9784828562002897565b509392505050565b60008135905062001cb08162002d91565b92915050565b60008083601f84011262001cc957600080fd5b8235905067ffffffffffffffff81111562001ce357600080fd5b60208301915083600182028301111562001cfc57600080fd5b9250929050565b600082601f83011262001d1557600080fd5b813562001d2784826020860162001c5a565b91505092915050565b60008083601f84011262001d4357600080fd5b8235905067ffffffffffffffff81111562001d5d57600080fd5b60208301915083600182028301111562001d7657600080fd5b9250929050565b60008135905062001d8e8162002dab565b92915050565b60006020828403121562001da757600080fd5b600062001db78482850162001c9f565b91505092915050565b6000806040838503121562001dd457600080fd5b600062001de48582860162001c9f565b925050602083013567ffffffffffffffff81111562001e0257600080fd5b62001e108582860162001d03565b9150509250929050565b6000806020838503121562001e2e57600080fd5b600083013567ffffffffffffffff81111562001e4957600080fd5b62001e578582860162001cb6565b92509250509250929050565b6000806000806000806060878903121562001e7d57600080fd5b600087013567ffffffffffffffff81111562001e9857600080fd5b62001ea689828a0162001d30565b9650965050602087013567ffffffffffffffff81111562001ec657600080fd5b62001ed489828a0162001d30565b9450945050604087013567ffffffffffffffff81111562001ef457600080fd5b62001f0289828a0162001d30565b92509250509295509295509295565b60006020828403121562001f2457600080fd5b600062001f348482850162001d7d565b91505092915050565b62001f488162002842565b82525050565b62001f598162002856565b82525050565b62001f7462001f6e8262002856565b62002912565b82525050565b600062001f8782620027f4565b62001f9381856200280a565b935062001fa5818560208601620028a6565b62001fb0816200294b565b840191505092915050565b600062001fc882620027f4565b62001fd481856200281b565b935062001fe6818560208601620028a6565b80840191505092915050565b600062002000838562002826565b93506200200f83858462002897565b6200201a836200294b565b840190509392505050565b60006200203282620027ff565b6200203e818562002826565b935062002050818560208601620028a6565b6200205b816200294b565b840191505092915050565b60006200207560188362002826565b915062002082826200295c565b602082019050919050565b60006200209c601f8362002826565b9150620020a98262002985565b602082019050919050565b6000620020c3602f8362002826565b9150620020d082620029ae565b604082019050919050565b6000620020ea60268362002826565b9150620020f782620029fd565b604082019050919050565b60006200211160028362002837565b91506200211e8262002a4c565b600282019050919050565b600062002138602c8362002826565b9150620021458262002a75565b604082019050919050565b60006200215f60228362002826565b91506200216c8262002ac4565b604082019050919050565b600062002186602c8362002826565b9150620021938262002b13565b604082019050919050565b6000620021ad60158362002826565b9150620021ba8262002b62565b602082019050919050565b6000620021d4602e8362002826565b9150620021e18262002b8b565b604082019050919050565b6000620021fb60228362002826565b9150620022088262002bda565b604082019050919050565b600062002222602d8362002826565b91506200222f8262002c29565b604082019050919050565b60006200224960208362002826565b9150620022568262002c78565b602082019050919050565b60006200227060268362002826565b91506200227d8262002ca1565b604082019050919050565b600062002297602b8362002826565b9150620022a48262002cf0565b604082019050919050565b6000620022be600e8362002826565b9150620022cb8262002d3f565b602082019050919050565b6000620022e560158362002826565b9150620022f28262002d68565b602082019050919050565b620023088162002880565b82525050565b62002319816200288a565b82525050565b60006200232d828462001fbb565b915081905092915050565b6000620023458262002102565b915062002353828562001f5f565b60208201915062002365828462001f5f565b6020820191508190509392505050565b60006020820190506200238c600083018462001f3d565b92915050565b6000604082019050620023a9600083018562001f3d565b8181036020830152620023bd818462001f7a565b90509392505050565b600060a082019050620023dd600083018b62001f3d565b620023ec602083018a620022fd565b81810360408301526200240181888a62001ff2565b905081810360608301526200241881868862001ff2565b905081810360808301526200242f81848662001ff2565b90509998505050505050505050565b600060208201905062002455600083018462001f4e565b92915050565b600060408201905062002472600083018562001f4e565b62002481602083018462001f3d565b9392505050565b60006040820190506200249f600083018562001f4e565b620024ae6020830184620022fd565b9392505050565b6000608082019050620024cc600083018762001f4e565b620024db60208301866200230e565b620024ea604083018562001f4e565b620024f9606083018462001f4e565b95945050505050565b600060208201905081810360008301526200251e818462002025565b905092915050565b60006020820190508181036000830152620025418162002066565b9050919050565b6000602082019050818103600083015262002563816200208d565b9050919050565b600060208201905081810360008301526200258581620020b4565b9050919050565b60006020820190508181036000830152620025a781620020db565b9050919050565b60006020820190508181036000830152620025c98162002129565b9050919050565b60006020820190508181036000830152620025eb8162002150565b9050919050565b600060208201905081810360008301526200260d8162002177565b9050919050565b600060208201905081810360008301526200262f816200219e565b9050919050565b600060208201905081810360008301526200265181620021c5565b9050919050565b600060208201905081810360008301526200267381620021ec565b9050919050565b60006020820190508181036000830152620026958162002213565b9050919050565b60006020820190508181036000830152620026b7816200223a565b9050919050565b60006020820190508181036000830152620026d98162002261565b9050919050565b60006020820190508181036000830152620026fb8162002288565b9050919050565b600060208201905081810360008301526200271d81620022af565b9050919050565b600060208201905081810360008301526200273f81620022d6565b9050919050565b60006060820190506200275d6000830188620022fd565b81810360208301526200277281868862001ff2565b905081810360408301526200278981848662001ff2565b90509695505050505050565b6000620027a1620027b4565b9050620027af8282620028dc565b919050565b6000604051905090565b600067ffffffffffffffff821115620027dc57620027db6200291c565b5b620027e7826200294b565b9050602081019050919050565b600081519050919050565b600081519050919050565b600082825260208201905092915050565b600081905092915050565b600082825260208201905092915050565b600081905092915050565b60006200284f8262002860565b9050919050565b6000819050919050565b600073ffffffffffffffffffffffffffffffffffffffff82169050919050565b6000819050919050565b600060ff82169050919050565b82818337600083830152505050565b60005b83811015620028c6578082015181840152602081019050620028a9565b83811115620028d6576000848401525b50505050565b620028e7826200294b565b810181811067ffffffffffffffff821117156200290957620029086200291c565b5b80604052505050565b6000819050919050565b7f4e487b7100000000000000000000000000000000000000000000000000000000600052604160045260246000fd5b6000601f19601f8301169050919050565b7f45434453413a20696e76616c6964207369676e61747572650000000000000000600082015250565b7f45434453413a20696e76616c6964207369676e6174757265206c656e67746800600082015250565b7f45524331393637557067726164653a207570677261646520627265616b73206660008201527f7572746865722075706772616465730000000000000000000000000000000000602082015250565b7f4f776e61626c653a206e6577206f776e657220697320746865207a65726f206160008201527f6464726573730000000000000000000000000000000000000000000000000000602082015250565b7f1901000000000000000000000000000000000000000000000000000000000000600082015250565b7f46756e6374696f6e206d7573742062652063616c6c6564207468726f7567682060008201527f64656c656761746563616c6c0000000000000000000000000000000000000000602082015250565b7f45434453413a20696e76616c6964207369676e6174757265202773272076616c60008201527f7565000000000000000000000000000000000000000000000000000000000000602082015250565b7f46756e6374696f6e206d7573742062652063616c6c6564207468726f7567682060008201527f6163746976652070726f78790000000000000000000000000000000000000000602082015250565b7f696e76616c696420617574686f72697a6174696f6e0000000000000000000000600082015250565b7f496e697469616c697a61626c653a20636f6e747261637420697320616c72656160008201527f647920696e697469616c697a6564000000000000000000000000000000000000602082015250565b7f45434453413a20696e76616c6964207369676e6174757265202776272076616c60008201527f7565000000000000000000000000000000000000000000000000000000000000602082015250565b7f455243313936373a206e657720696d706c656d656e746174696f6e206973206e60008201527f6f74206120636f6e747261637400000000000000000000000000000000000000602082015250565b7f4f776e61626c653a2063616c6c6572206973206e6f7420746865206f776e6572600082015250565b7f416464726573733a2064656c65676174652063616c6c20746f206e6f6e2d636f60008201527f6e74726163740000000000000000000000000000000000000000000000000000602082015250565b7f496e697469616c697a61626c653a20636f6e7472616374206973206e6f74206960008201527f6e697469616c697a696e67000000000000000000000000000000000000000000602082015250565b7f4e6f7420617574686f72697a6564000000000000000000000000000000000000600082015250565b7f77686974656c697374206e6f7420656e61626c65640000000000000000000000600082015250565b62002d9c8162002842565b811462002da857600080fd5b50565b62002db68162002880565b811462002dc257600080fd5b5056fe60806040526040516200103d3803806200103d8339818101604052810190620000299190620005e1565b60017fa3f0ad74e5423aebfd80d3ef4346578335a9a72aeaee59ff6cb3582b35133d5160001c6200005b91906200085c565b60001b7fa3f0ad74e5423aebfd80d3ef4346578335a9a72aeaee59ff6cb3582b35133d5060001b14620000b7577f4e487b7100000000000000000000000000000000000000000000000000000000600052600160045260246000fd5b620000cb82826000620000d360201b60201c565b505062000ab7565b620000e483620001da60201b60201c565b8273ffffffffffffffffffffffffffffffffffffffff167f1cf3b03a6cf19fa2baba4df148e9dcabedea7f8a5c07840e207e5c089be95d3e60405160405180910390a2600082511180620001355750805b15620001d557620001d38373ffffffffffffffffffffffffffffffffffffffff16635c60da1b6040518163ffffffff1660e01b815260040160206040518083038186803b1580156200018657600080fd5b505afa1580156200019b573d6000803e3d6000fd5b505050506040513d601f19601f82011682018060405250810190620001c19190620005b5565b836200038960201b620000371760201c565b505b505050565b620001f081620003bf60201b620000641760201c565b62000232576040517f08c379a0000000000000000000000000000000000000000000000000000000008152600401620002299062000765565b60405180910390fd5b620002c98173ffffffffffffffffffffffffffffffffffffffff16635c60da1b6040518163ffffffff1660e01b815260040160206040518083038186803b1580156200027d57600080fd5b505afa15801562000292573d6000803e3d6000fd5b505050506040513d601f19601f82011682018060405250810190620002b89190620005b5565b620003bf60201b620000641760201c565b6200030b576040517f08c379a00000000000000000000000000000000000000000000000000000000081526004016200030290620007a9565b60405180910390fd5b80620003457fa3f0ad74e5423aebfd80d3ef4346578335a9a72aeaee59ff6cb3582b35133d5060001b620003d260201b620000771760201c565b60000160006101000a81548173ffffffffffffffffffffffffffffffffffffffff021916908373ffffffffffffffffffffffffffffffffffffffff16021790555050565b6060620003b783836040518060600160405280602781526020016200101660279139620003dc60201b60201c565b905092915050565b600080823b905060008111915050919050565b6000819050919050565b6060620003ef84620003bf60201b60201c565b62000431576040517f08c379a0000000000000000000000000000000000000000000000000000000008152600401620004289062000787565b60405180910390fd5b6000808573ffffffffffffffffffffffffffffffffffffffff16856040516200045b919062000728565b600060405180830381855af49150503d806000811462000498576040519150601f19603f3d011682016040523d82523d6000602084013e6200049d565b606091505b5091509150620004b5828286620004c060201b60201c565b925050509392505050565b60608315620004d25782905062000525565b600083511115620004e65782518084602001fd5b816040517f08c379a00000000000000000000000000000000000000000000000000000000081526004016200051c919062000741565b60405180910390fd5b9392505050565b6000620005436200053d84620007f4565b620007cb565b9050828152602081018484840111156200055c57600080fd5b62000569848285620008d5565b509392505050565b600081519050620005828162000a9d565b92915050565b600082601f8301126200059a57600080fd5b8151620005ac8482602086016200052c565b91505092915050565b600060208284031215620005c857600080fd5b6000620005d88482850162000571565b91505092915050565b60008060408385031215620005f557600080fd5b6000620006058582860162000571565b925050602083015167ffffffffffffffff8111156200062357600080fd5b620006318582860162000588565b9150509250929050565b600062000648826200082a565b62000654818562000840565b935062000666818560208601620008d5565b80840191505092915050565b60006200067f8262000835565b6200068b81856200084b565b93506200069d818560208601620008d5565b620006a8816200099f565b840191505092915050565b6000620006c26025836200084b565b9150620006cf82620009b0565b604082019050919050565b6000620006e96026836200084b565b9150620006f682620009ff565b604082019050919050565b6000620007106030836200084b565b91506200071d8262000a4e565b604082019050919050565b60006200073682846200063b565b915081905092915050565b600060208201905081810360008301526200075d818462000672565b905092915050565b600060208201905081810360008301526200078081620006b3565b9050919050565b60006020820190508181036000830152620007a281620006da565b9050919050565b60006020820190508181036000830152620007c48162000701565b9050919050565b6000620007d7620007ea565b9050620007e582826200090b565b919050565b6000604051905090565b600067ffffffffffffffff82111562000812576200081162000970565b5b6200081d826200099f565b9050602081019050919050565b600081519050919050565b600081519050919050565b600081905092915050565b600082825260208201905092915050565b60006200086982620008cb565b91506200087683620008cb565b9250828210156200088c576200088b62000941565b5b828203905092915050565b6000620008a482620008ab565b9050919050565b600073ffffffffffffffffffffffffffffffffffffffff82169050919050565b6000819050919050565b60005b83811015620008f5578082015181840152602081019050620008d8565b8381111562000905576000848401525b50505050565b62000916826200099f565b810181811067ffffffffffffffff8211171562000938576200093762000970565b5b80604052505050565b7f4e487b7100000000000000000000000000000000000000000000000000000000600052601160045260246000fd5b7f4e487b7100000000000000000000000000000000000000000000000000000000600052604160045260246000fd5b6000601f19601f8301169050919050565b7f455243313936373a206e657720626561636f6e206973206e6f74206120636f6e60008201527f7472616374000000000000000000000000000000000000000000000000000000602082015250565b7f416464726573733a2064656c65676174652063616c6c20746f206e6f6e2d636f60008201527f6e74726163740000000000000000000000000000000000000000000000000000602082015250565b7f455243313936373a20626561636f6e20696d706c656d656e746174696f6e206960008201527f73206e6f74206120636f6e747261637400000000000000000000000000000000602082015250565b62000aa88162000897565b811462000ab457600080fd5b50565b61054f8062000ac76000396000f3fe6080604052366100135761001161001d565b005b61001b61001d565b005b610025610081565b610035610030610083565b61010f565b565b606061005c83836040518060600160405280602781526020016104f360279139610135565b905092915050565b600080823b905060008111915050919050565b6000819050919050565b565b600061008d610202565b73ffffffffffffffffffffffffffffffffffffffff16635c60da1b6040518163ffffffff1660e01b815260040160206040518083038186803b1580156100d257600080fd5b505afa1580156100e6573d6000803e3d6000fd5b505050506040513d601f19601f8201168201806040525081019061010a91906102d5565b905090565b3660008037600080366000845af43d6000803e8060008114610130573d6000f35b3d6000fd5b606061014084610064565b61017f576040517f08c379a0000000000000000000000000000000000000000000000000000000008152600401610176906103c4565b60405180910390fd5b6000808573ffffffffffffffffffffffffffffffffffffffff16856040516101a7919061038b565b600060405180830381855af49150503d80600081146101e2576040519150601f19603f3d011682016040523d82523d6000602084013e6101e7565b606091505b50915091506101f7828286610259565b925050509392505050565b60006102307fa3f0ad74e5423aebfd80d3ef4346578335a9a72aeaee59ff6cb3582b35133d5060001b610077565b60000160009054906101000a900473ffffffffffffffffffffffffffffffffffffffff16905090565b60608315610269578290506102b9565b60008351111561027c5782518084602001fd5b816040517f08c379a00000000000000000000000000000000000000000000000000000000081526004016102b091906103a2565b60405180910390fd5b9392505050565b6000815190506102cf816104db565b92915050565b6000602082840312156102e757600080fd5b60006102f5848285016102c0565b91505092915050565b6000610309826103e4565b61031381856103fa565b9350610323818560208601610448565b80840191505092915050565b600061033a826103ef565b6103448185610405565b9350610354818560208601610448565b61035d8161047b565b840191505092915050565b6000610375602683610405565b91506103808261048c565b604082019050919050565b600061039782846102fe565b915081905092915050565b600060208201905081810360008301526103bc818461032f565b905092915050565b600060208201905081810360008301526103dd81610368565b9050919050565b600081519050919050565b600081519050919050565b600081905092915050565b600082825260208201905092915050565b600061042182610428565b9050919050565b600073ffffffffffffffffffffffffffffffffffffffff82169050919050565b60005b8381101561046657808201518184015260208101905061044b565b83811115610475576000848401525b50505050565b6000601f19601f8301169050919050565b7f416464726573733a2064656c65676174652063616c6c20746f206e6f6e2d636f60008201527f6e74726163740000000000000000000000000000000000000000000000000000602082015250565b6104e481610416565b81146104ef57600080fd5b5056fe416464726573733a206c6f772d6c6576656c2064656c65676174652063616c6c206661696c6564a2646970667358221220ad095c81284fd455199a2812ae9833590542bb0c90632f30b22bdc9925c7e37564736f6c63430008040033416464726573733a206c6f772d6c6576656c2064656c65676174652063616c6c206661696c6564416464726573733a206c6f772d6c6576656c2064656c65676174652063616c6c206661696c6564a26469706673582212204755db20a2de3f652cfb1aa5a6682ca40e0847b9369b6e33c6981c20a933236f64736f6c63430008040033",
  "linkReferences": {},
  "deployedLinkReferences": {}
}