{
  "_format": "hh-sol-artifact-1",
  "contractName": "ArtistCreator",
  "sourceName": "contracts/ArtistCreator.sol",
  "abi": [
    {
      "anonymous": false,
      "inputs": [
        {
          "indexed": false,
          "internalType": "address",
          "name": "previousAdmin",
          "type": "address"
        },
        {
          "indexed": false,
          "internalType": "address",
          "name": "newAdmin",
          "type": "address"
        }
      ],
      "name": "AdminChanged",
      "type": "event"
    },
    {
      "anonymous": false,
      "inputs": [
        {
          "indexed": true,
          "internalType": "address",
          "name": "beacon",
          "type": "address"
        }
      ],
      "name": "BeaconUpgraded",
      "type": "event"
    },
    {
      "anonymous": false,
      "inputs": [
        {
          "indexed": false,
          "internalType": "uint256",
          "name": "artistId",
          "type": "uint256"
        },
        {
          "indexed": false,
          "internalType": "string",
          "name": "name",
          "type": "string"
        },
        {
          "indexed": false,
          "internalType": "string",
          "name": "symbol",
          "type": "string"
        },
        {
          "indexed": true,
          "internalType": "address",
          "name": "artistAddress",
          "type": "address"
        }
      ],
      "name": "CreatedArtist",
      "type": "event"
    },
    {
      "anonymous": false,
      "inputs": [
        {
          "indexed": true,
          "internalType": "address",
          "name": "previousOwner",
          "type": "address"
        },
        {
          "indexed": true,
          "internalType": "address",
          "name": "newOwner",
          "type": "address"
        }
      ],
      "name": "OwnershipTransferred",
      "type": "event"
    },
    {
      "anonymous": false,
      "inputs": [
        {
          "indexed": true,
          "internalType": "address",
          "name": "implementation",
          "type": "address"
        }
      ],
      "name": "Upgraded",
      "type": "event"
    },
    {
      "inputs": [],
      "name": "DOMAIN_SEPARATOR",
      "outputs": [
        {
          "internalType": "bytes32",
          "name": "",
          "type": "bytes32"
        }
      ],
      "stateMutability": "view",
      "type": "function"
    },
    {
      "inputs": [],
      "name": "MINTER_TYPEHASH",
      "outputs": [
        {
          "internalType": "bytes32",
          "name": "",
          "type": "bytes32"
        }
      ],
      "stateMutability": "view",
      "type": "function"
    },
    {
      "inputs": [],
      "name": "admin",
      "outputs": [
        {
          "internalType": "address",
          "name": "",
          "type": "address"
        }
      ],
      "stateMutability": "view",
      "type": "function"
    },
    {
      "inputs": [],
      "name": "artistAdd",
      "outputs": [
        {
          "internalType": "address",
          "name": "",
          "type": "address"
        }
      ],
      "stateMutability": "view",
      "type": "function"
    },
    {
      "inputs": [
        {
          "internalType": "uint256",
          "name": "",
          "type": "uint256"
        }
      ],
      "name": "artistContracts",
      "outputs": [
        {
          "internalType": "address",
          "name": "",
          "type": "address"
        }
      ],
      "stateMutability": "view",
      "type": "function"
    },
    {
      "inputs": [],
      "name": "beaconAddress",
      "outputs": [
        {
          "internalType": "address",
          "name": "",
          "type": "address"
        }
      ],
      "stateMutability": "view",
      "type": "function"
    },
    {
      "inputs": [
        {
          "internalType": "string",
          "name": "_name",
          "type": "string"
        },
        {
          "internalType": "string",
          "name": "_symbol",
          "type": "string"
        },
        {
          "internalType": "string",
          "name": "_baseURI",
          "type": "string"
        }
      ],
      "name": "createArtist",
      "outputs": [
        {
          "internalType": "address",
          "name": "",
          "type": "address"
        }
      ],
      "stateMutability": "nonpayable",
      "type": "function"
    },
    {
      "inputs": [
        {
          "internalType": "bytes",
          "name": "signature",
          "type": "bytes"
        }
      ],
      "name": "getSigner",
      "outputs": [
        {
          "internalType": "address",
          "name": "",
          "type": "address"
        }
      ],
      "stateMutability": "view",
      "type": "function"
    },
    {
      "inputs": [
        {
          "internalType": "address",
          "name": "_beaconAddress",
          "type": "address"
        }
      ],
      "name": "initialize",
      "outputs": [],
      "stateMutability": "nonpayable",
      "type": "function"
    },
    {
      "inputs": [],
      "name": "owner",
      "outputs": [
        {
          "internalType": "address",
          "name": "",
          "type": "address"
        }
      ],
      "stateMutability": "view",
      "type": "function"
    },
    {
      "inputs": [],
      "name": "renounceOwnership",
      "outputs": [],
      "stateMutability": "nonpayable",
      "type": "function"
    },
    {
      "inputs": [
        {
          "internalType": "address",
          "name": "_newAdmin",
          "type": "address"
        }
      ],
      "name": "setAdmin",
      "outputs": [],
      "stateMutability": "nonpayable",
      "type": "function"
    },
    {
      "inputs": [
        {
          "internalType": "address",
          "name": "newOwner",
          "type": "address"
        }
      ],
      "name": "transferOwnership",
      "outputs": [],
      "stateMutability": "nonpayable",
      "type": "function"
    },
    {
      "inputs": [
        {
          "internalType": "address",
          "name": "newImplementation",
          "type": "address"
        }
      ],
      "name": "upgradeTo",
      "outputs": [],
      "stateMutability": "nonpayable",
      "type": "function"
    },
    {
      "inputs": [
        {
          "internalType": "address",
          "name": "newImplementation",
          "type": "address"
        },
        {
          "internalType": "bytes",
          "name": "data",
          "type": "bytes"
        }
      ],
      "name": "upgradeToAndCall",
      "outputs": [],
      "stateMutability": "payable",
      "type": "function"
    }
  ],
  "bytecode": "0x60a06040523073ffffffffffffffffffffffffffffffffffffffff1660809073ffffffffffffffffffffffffffffffffffffffff1660601b81525034801561004657600080fd5b5060805160601c613f0261007a60003960008181610690015281816107220152818161084d01526108df0152613f026000f3fe608060405260043610620000fe5760003560e01c80638da5cb5b1162000097578063e6adabfd1162000061578063e6adabfd146200030f578063f2fde38b1462000353578063f851a4401462000381578063fa4d280c14620003b157620000fe565b80638da5cb5b146200023d5780639ea5d0c4146200026d578063b16a43f0146200029d578063c4d66de814620002e157620000fe565b80634f1ef28611620000d95780634f1ef28614620001a5578063704b6c0214620001c5578063715018a614620001f35780637e2ec6d0146200020d57620000fe565b806310afc0cf14620001035780633644e51514620001475780633659cfe61462000177575b600080fd5b3480156200011057600080fd5b506200012f600480360381019062000129919062001f06565b620003e1565b6040516200013e919062002418565b60405180910390f35b3480156200015457600080fd5b506200015f62000688565b6040516200016e9190620024e1565b60405180910390f35b3480156200018457600080fd5b50620001a360048036038101906200019d919062001e37565b6200068e565b005b620001c36004803603810190620001bd919062001e63565b6200084b565b005b348015620001d257600080fd5b50620001f16004803603810190620001eb919062001e37565b62000994565b005b3480156200020057600080fd5b506200020b62000abd565b005b3480156200021a57600080fd5b506200022562000b4e565b60405162000234919062002418565b60405180910390f35b3480156200024a57600080fd5b506200025562000b74565b60405162000264919062002418565b60405180910390f35b3480156200027a57600080fd5b506200028562000b9e565b60405162000294919062002418565b60405180910390f35b348015620002aa57600080fd5b50620002c96004803603810190620002c3919062001fb4565b62000bc4565b604051620002d8919062002418565b60405180910390f35b348015620002ee57600080fd5b506200030d600480360381019062000307919062001e37565b62000c04565b005b3480156200031c57600080fd5b506200033b600480360381019062000335919062001ebd565b62000ddb565b6040516200034a919062002418565b60405180910390f35b3480156200036057600080fd5b506200037f600480360381019062000379919062001e37565b62000f54565b005b3480156200038e57600080fd5b506200039962001058565b604051620003a8919062002418565b60405180910390f35b348015620003be57600080fd5b50620003c96200107e565b604051620003d89190620024e1565b60405180910390f35b600060ca60009054906101000a900473ffffffffffffffffffffffffffffffffffffffff1673ffffffffffffffffffffffffffffffffffffffff163373ffffffffffffffffffffffffffffffffffffffff161462000476576040517f08c379a00000000000000000000000000000000000000000000000000000000081526004016200046d90620027a5565b60405180910390fd5b600060cc60009054906101000a900473ffffffffffffffffffffffffffffffffffffffff1663abfc83a060e01b33620004b060c9620010a2565b8b8b8b8b8b8b604051602401620004cf98979695949392919062002469565b604051602081830303815290604052907bffffffffffffffffffffffffffffffffffffffffffffffffffffffff19166020820180517bffffffffffffffffffffffffffffffffffffffffffffffffffffffff83818316178352505050506040516200053a9062001cef565b6200054792919062002435565b604051809103906000f08015801562000564573d6000803e3d6000fd5b50905060cd819080600181540180825580915050600190039060005260206000200160009091909190916101000a81548173ffffffffffffffffffffffffffffffffffffffff021916908373ffffffffffffffffffffffffffffffffffffffff1602179055508073ffffffffffffffffffffffffffffffffffffffff167f23748b43b77f98380e738976c6324996908ffc1989994dd3c68631c87a65a7c06200060e60c9620010a2565b8a8a8a8a60405162000625959493929190620027e9565b60405180910390a26200063960c9620010b0565b8060ce60006101000a81548173ffffffffffffffffffffffffffffffffffffffff021916908373ffffffffffffffffffffffffffffffffffffffff160217905550809150509695505050505050565b60cb5481565b7f000000000000000000000000000000000000000000000000000000000000000073ffffffffffffffffffffffffffffffffffffffff163073ffffffffffffffffffffffffffffffffffffffff16141562000720576040517f08c379a0000000000000000000000000000000000000000000000000000000008152600401620007179062002651565b60405180910390fd5b7f000000000000000000000000000000000000000000000000000000000000000073ffffffffffffffffffffffffffffffffffffffff1662000761620010c6565b73ffffffffffffffffffffffffffffffffffffffff1614620007ba576040517f08c379a0000000000000000000000000000000000000000000000000000000008152600401620007b19062002695565b60405180910390fd5b620007c5816200111f565b6200084881600067ffffffffffffffff8111156200080c577f4e487b7100000000000000000000000000000000000000000000000000000000600052604160045260246000fd5b6040519080825280601f01601f1916602001820160405280156200083f5781602001600182028036833780820191505090505b506000620011a5565b50565b7f000000000000000000000000000000000000000000000000000000000000000073ffffffffffffffffffffffffffffffffffffffff163073ffffffffffffffffffffffffffffffffffffffff161415620008dd576040517f08c379a0000000000000000000000000000000000000000000000000000000008152600401620008d49062002651565b60405180910390fd5b7f000000000000000000000000000000000000000000000000000000000000000073ffffffffffffffffffffffffffffffffffffffff166200091e620010c6565b73ffffffffffffffffffffffffffffffffffffffff161462000977576040517f08c379a00000000000000000000000000000000000000000000000000000000081526004016200096e9062002695565b60405180910390fd5b62000982826200111f565b6200099082826001620011a5565b5050565b6200099e6200138c565b73ffffffffffffffffffffffffffffffffffffffff16620009be62000b74565b73ffffffffffffffffffffffffffffffffffffffff16148062000a375750620009e66200138c565b73ffffffffffffffffffffffffffffffffffffffff1660ca60009054906101000a900473ffffffffffffffffffffffffffffffffffffffff1673ffffffffffffffffffffffffffffffffffffffff16145b62000a79576040517f08c379a000000000000000000000000000000000000000000000000000000000815260040162000a7090620026b7565b60405180910390fd5b8060ca60006101000a81548173ffffffffffffffffffffffffffffffffffffffff021916908373ffffffffffffffffffffffffffffffffffffffff16021790555050565b62000ac76200138c565b73ffffffffffffffffffffffffffffffffffffffff1662000ae762000b74565b73ffffffffffffffffffffffffffffffffffffffff161462000b40576040517f08c379a000000000000000000000000000000000000000000000000000000000815260040162000b37906200273f565b60405180910390fd5b62000b4c600062001394565b565b60cc60009054906101000a900473ffffffffffffffffffffffffffffffffffffffff1681565b6000609760009054906101000a900473ffffffffffffffffffffffffffffffffffffffff16905090565b60ce60009054906101000a900473ffffffffffffffffffffffffffffffffffffffff1681565b60cd818154811062000bd557600080fd5b906000526020600020016000915054906101000a900473ffffffffffffffffffffffffffffffffffffffff1681565b600060019054906101000a900460ff1662000c2e5760008054906101000a900460ff161562000c39565b62000c386200145a565b5b62000c7b576040517f08c379a000000000000000000000000000000000000000000000000000000000815260040162000c7290620026d9565b60405180910390fd5b60008060019054906101000a900460ff16159050801562000ccc576001600060016101000a81548160ff02191690831515021790555060016000806101000a81548160ff0219169083151502179055505b62000cd66200146d565b3360ca60006101000a81548173ffffffffffffffffffffffffffffffffffffffff021916908373ffffffffffffffffffffffffffffffffffffffff1602179055507fc49a8e302e3e5d6753b2bb3dbc3c28deba5e16e2572a92aef568063c963e34654660405160200162000d4c9291906200252b565b6040516020818303038152906040528051906020012060cb819055508160cc60006101000a81548173ffffffffffffffffffffffffffffffffffffffff021916908373ffffffffffffffffffffffffffffffffffffffff16021790555062000db560c9620010b0565b801562000dd75760008060016101000a81548160ff0219169083151502179055505b5050565b60008073ffffffffffffffffffffffffffffffffffffffff1660ca60009054906101000a900473ffffffffffffffffffffffffffffffffffffffff1673ffffffffffffffffffffffffffffffffffffffff16141562000e71576040517f08c379a000000000000000000000000000000000000000000000000000000000815260040162000e6890620027c7565b60405180910390fd5b600060cb547f5925e35aebbeb7738ae3e97ad24e3b4cc09001c8668d81f3365213a0ec1e85b23360405160200162000eab929190620024fe565b6040516020818303038152906040528051906020012060405160200162000ed4929190620023db565b604051602081830303815290604052805190602001209050600062000f4785858080601f016020809104026020016040519081016040528093929190818152602001838380828437600081840152601f19601f8201169050808301925050505050505083620014d590919063ffffffff16565b9050809250505092915050565b62000f5e6200138c565b73ffffffffffffffffffffffffffffffffffffffff1662000f7e62000b74565b73ffffffffffffffffffffffffffffffffffffffff161462000fd7576040517f08c379a000000000000000000000000000000000000000000000000000000000815260040162000fce906200273f565b60405180910390fd5b600073ffffffffffffffffffffffffffffffffffffffff168173ffffffffffffffffffffffffffffffffffffffff1614156200104a576040517f08c379a000000000000000000000000000000000000000000000000000000000815260040162001041906200262f565b60405180910390fd5b620010558162001394565b50565b60ca60009054906101000a900473ffffffffffffffffffffffffffffffffffffffff1681565b7f5925e35aebbeb7738ae3e97ad24e3b4cc09001c8668d81f3365213a0ec1e85b281565b600081600001549050919050565b6001816000016000828254019250508190555050565b6000620010f67f360894a13ba1a3210667c828492db98dca3e2076cc3735a920a3ca505d382bbc60001b62001500565b60000160009054906101000a900473ffffffffffffffffffffffffffffffffffffffff16905090565b620011296200138c565b73ffffffffffffffffffffffffffffffffffffffff166200114962000b74565b73ffffffffffffffffffffffffffffffffffffffff1614620011a2576040517f08c379a000000000000000000000000000000000000000000000000000000000815260040162001199906200273f565b60405180910390fd5b50565b6000620011b1620010c6565b9050620011be846200150a565b600083511180620011cc5750815b15620011e057620011de8484620015ca565b505b6000620012107f4910fdfa16fed3260ed0e7147f7cc6da11a60208b5b9406d12a635614ffd914360001b620016ba565b90508060000160009054906101000a900460ff16620013855760018160000160006101000a81548160ff021916908315150217905550620012e185836040516024016200125e919062002418565b6040516020818303038152906040527f3659cfe6000000000000000000000000000000000000000000000000000000007bffffffffffffffffffffffffffffffffffffffffffffffffffffffff19166020820180517bffffffffffffffffffffffffffffffffffffffffffffffffffffffff8381831617835250505050620015ca565b5060008160000160006101000a81548160ff02191690831515021790555062001309620010c6565b73ffffffffffffffffffffffffffffffffffffffff168273ffffffffffffffffffffffffffffffffffffffff161462001379576040517f08c379a000000000000000000000000000000000000000000000000000000000815260040162001370906200260d565b60405180910390fd5b6200138485620016c4565b5b5050505050565b600033905090565b6000609760009054906101000a900473ffffffffffffffffffffffffffffffffffffffff16905081609760006101000a81548173ffffffffffffffffffffffffffffffffffffffff021916908373ffffffffffffffffffffffffffffffffffffffff1602179055508173ffffffffffffffffffffffffffffffffffffffff168173ffffffffffffffffffffffffffffffffffffffff167f8be0079c531659141344cd1fd0a4f28419497f9722a3daafe3b4186f6b6457e060405160405180910390a35050565b6000620014673062001715565b15905090565b600060019054906101000a900460ff16620014bf576040517f08c379a0000000000000000000000000000000000000000000000000000000008152600401620014b69062002783565b60405180910390fd5b620014d3620014cd6200138c565b62001394565b565b6000806000620014e6858562001728565b91509150620014f581620017b3565b819250505092915050565b6000819050919050565b620015158162001715565b62001557576040517f08c379a00000000000000000000000000000000000000000000000000000000081526004016200154e906200271d565b60405180910390fd5b80620015867f360894a13ba1a3210667c828492db98dca3e2076cc3735a920a3ca505d382bbc60001b62001500565b60000160006101000a81548173ffffffffffffffffffffffffffffffffffffffff021916908373ffffffffffffffffffffffffffffffffffffffff16021790555050565b6060620015d78362001715565b62001619576040517f08c379a0000000000000000000000000000000000000000000000000000000008152600401620016109062002761565b60405180910390fd5b6000808473ffffffffffffffffffffffffffffffffffffffff1684604051620016439190620023c2565b600060405180830381855af49150503d806000811462001680576040519150601f19603f3d011682016040523d82523d6000602084013e62001685565b606091505b5091509150620016b0828260405180606001604052806027815260200162003ea66027913962001b1c565b9250505092915050565b6000819050919050565b620016cf816200150a565b8073ffffffffffffffffffffffffffffffffffffffff167fbc7cd75a20ee27fd9adebab32041f755214dbc6bffa90cc0225b39da2e5c2d3b60405160405180910390a250565b600080823b905060008111915050919050565b6000806041835114156200176e5760008060006020860151925060408601519150606086015160001a9050620017618782858562001b88565b94509450505050620017ac565b604083511415620017a35760008060208501519150604085015190506200179786838362001c9f565b935093505050620017ac565b60006002915091505b9250929050565b60006004811115620017ee577f4e487b7100000000000000000000000000000000000000000000000000000000600052602160045260246000fd5b81600481111562001828577f4e487b7100000000000000000000000000000000000000000000000000000000600052602160045260246000fd5b1415620018355762001b19565b6001600481111562001870577f4e487b7100000000000000000000000000000000000000000000000000000000600052602160045260246000fd5b816004811115620018aa577f4e487b7100000000000000000000000000000000000000000000000000000000600052602160045260246000fd5b1415620018ee576040517f08c379a0000000000000000000000000000000000000000000000000000000008152600401620018e590620025c9565b60405180910390fd5b6002600481111562001929577f4e487b7100000000000000000000000000000000000000000000000000000000600052602160045260246000fd5b81600481111562001963577f4e487b7100000000000000000000000000000000000000000000000000000000600052602160045260246000fd5b1415620019a7576040517f08c379a00000000000000000000000000000000000000000000000000000000081526004016200199e90620025eb565b60405180910390fd5b60036004811115620019e2577f4e487b7100000000000000000000000000000000000000000000000000000000600052602160045260246000fd5b81600481111562001a1c577f4e487b7100000000000000000000000000000000000000000000000000000000600052602160045260246000fd5b141562001a60576040517f08c379a000000000000000000000000000000000000000000000000000000000815260040162001a579062002673565b60405180910390fd5b60048081111562001a9a577f4e487b7100000000000000000000000000000000000000000000000000000000600052602160045260246000fd5b81600481111562001ad4577f4e487b7100000000000000000000000000000000000000000000000000000000600052602160045260246000fd5b141562001b18576040517f08c379a000000000000000000000000000000000000000000000000000000000815260040162001b0f90620026fb565b60405180910390fd5b5b50565b6060831562001b2e5782905062001b81565b60008351111562001b425782518084602001fd5b816040517f08c379a000000000000000000000000000000000000000000000000000000000815260040162001b789190620025a5565b60405180910390fd5b9392505050565b6000807f7fffffffffffffffffffffffffffffff5d576e7357a4501ddfe92f46681b20a08360001c111562001bc557600060039150915062001c96565b601b8560ff161415801562001bde5750601c8560ff1614155b1562001bf257600060049150915062001c96565b60006001878787876040516000815260200160405260405162001c19949392919062002558565b6020604051602081039080840390855afa15801562001c3c573d6000803e3d6000fd5b505050602060405103519050600073ffffffffffffffffffffffffffffffffffffffff168173ffffffffffffffffffffffffffffffffffffffff16141562001c8d5760006001925092505062001c96565b80600092509250505b94509492505050565b6000806000807f7fffffffffffffffffffffffffffffffffffffffffffffffffffffffffffffff85169150601b8560ff1c01905062001ce18782888562001b88565b935093505050935093915050565b61103d8062002e6983390190565b600062001d1462001d0e8462002861565b62002838565b90508281526020810184848401111562001d2d57600080fd5b62001d3a8482856200293a565b509392505050565b60008135905062001d538162002e34565b92915050565b60008083601f84011262001d6c57600080fd5b8235905067ffffffffffffffff81111562001d8657600080fd5b60208301915083600182028301111562001d9f57600080fd5b9250929050565b600082601f83011262001db857600080fd5b813562001dca84826020860162001cfd565b91505092915050565b60008083601f84011262001de657600080fd5b8235905067ffffffffffffffff81111562001e0057600080fd5b60208301915083600182028301111562001e1957600080fd5b9250929050565b60008135905062001e318162002e4e565b92915050565b60006020828403121562001e4a57600080fd5b600062001e5a8482850162001d42565b91505092915050565b6000806040838503121562001e7757600080fd5b600062001e878582860162001d42565b925050602083013567ffffffffffffffff81111562001ea557600080fd5b62001eb38582860162001da6565b9150509250929050565b6000806020838503121562001ed157600080fd5b600083013567ffffffffffffffff81111562001eec57600080fd5b62001efa8582860162001d59565b92509250509250929050565b6000806000806000806060878903121562001f2057600080fd5b600087013567ffffffffffffffff81111562001f3b57600080fd5b62001f4989828a0162001dd3565b9650965050602087013567ffffffffffffffff81111562001f6957600080fd5b62001f7789828a0162001dd3565b9450945050604087013567ffffffffffffffff81111562001f9757600080fd5b62001fa589828a0162001dd3565b92509250509295509295509295565b60006020828403121562001fc757600080fd5b600062001fd78482850162001e20565b91505092915050565b62001feb81620028e5565b82525050565b62001ffc81620028f9565b82525050565b620020176200201182620028f9565b620029b5565b82525050565b60006200202a8262002897565b620020368185620028ad565b93506200204881856020860162002949565b6200205381620029ee565b840191505092915050565b60006200206b8262002897565b620020778185620028be565b93506200208981856020860162002949565b80840191505092915050565b6000620020a38385620028c9565b9350620020b28385846200293a565b620020bd83620029ee565b840190509392505050565b6000620020d582620028a2565b620020e18185620028c9565b9350620020f381856020860162002949565b620020fe81620029ee565b840191505092915050565b600062002118601883620028c9565b91506200212582620029ff565b602082019050919050565b60006200213f601f83620028c9565b91506200214c8262002a28565b602082019050919050565b600062002166602f83620028c9565b9150620021738262002a51565b604082019050919050565b60006200218d602683620028c9565b91506200219a8262002aa0565b604082019050919050565b6000620021b4600283620028da565b9150620021c18262002aef565b600282019050919050565b6000620021db602c83620028c9565b9150620021e88262002b18565b604082019050919050565b600062002202602283620028c9565b91506200220f8262002b67565b604082019050919050565b600062002229602c83620028c9565b9150620022368262002bb6565b604082019050919050565b600062002250601583620028c9565b91506200225d8262002c05565b602082019050919050565b600062002277602e83620028c9565b9150620022848262002c2e565b604082019050919050565b60006200229e602283620028c9565b9150620022ab8262002c7d565b604082019050919050565b6000620022c5602d83620028c9565b9150620022d28262002ccc565b604082019050919050565b6000620022ec602083620028c9565b9150620022f98262002d1b565b602082019050919050565b600062002313602683620028c9565b9150620023208262002d44565b604082019050919050565b60006200233a602b83620028c9565b9150620023478262002d93565b604082019050919050565b600062002361600e83620028c9565b91506200236e8262002de2565b602082019050919050565b600062002388601583620028c9565b9150620023958262002e0b565b602082019050919050565b620023ab8162002923565b82525050565b620023bc816200292d565b82525050565b6000620023d082846200205e565b915081905092915050565b6000620023e882620021a5565b9150620023f6828562002002565b60208201915062002408828462002002565b6020820191508190509392505050565b60006020820190506200242f600083018462001fe0565b92915050565b60006040820190506200244c600083018562001fe0565b81810360208301526200246081846200201d565b90509392505050565b600060a08201905062002480600083018b62001fe0565b6200248f602083018a620023a0565b8181036040830152620024a481888a62002095565b90508181036060830152620024bb81868862002095565b90508181036080830152620024d281848662002095565b90509998505050505050505050565b6000602082019050620024f8600083018462001ff1565b92915050565b600060408201905062002515600083018562001ff1565b62002524602083018462001fe0565b9392505050565b600060408201905062002542600083018562001ff1565b620025516020830184620023a0565b9392505050565b60006080820190506200256f600083018762001ff1565b6200257e6020830186620023b1565b6200258d604083018562001ff1565b6200259c606083018462001ff1565b95945050505050565b60006020820190508181036000830152620025c18184620020c8565b905092915050565b60006020820190508181036000830152620025e48162002109565b9050919050565b60006020820190508181036000830152620026068162002130565b9050919050565b60006020820190508181036000830152620026288162002157565b9050919050565b600060208201905081810360008301526200264a816200217e565b9050919050565b600060208201905081810360008301526200266c81620021cc565b9050919050565b600060208201905081810360008301526200268e81620021f3565b9050919050565b60006020820190508181036000830152620026b0816200221a565b9050919050565b60006020820190508181036000830152620026d28162002241565b9050919050565b60006020820190508181036000830152620026f48162002268565b9050919050565b6000602082019050818103600083015262002716816200228f565b9050919050565b600060208201905081810360008301526200273881620022b6565b9050919050565b600060208201905081810360008301526200275a81620022dd565b9050919050565b600060208201905081810360008301526200277c8162002304565b9050919050565b600060208201905081810360008301526200279e816200232b565b9050919050565b60006020820190508181036000830152620027c08162002352565b9050919050565b60006020820190508181036000830152620027e28162002379565b9050919050565b6000606082019050620028006000830188620023a0565b81810360208301526200281581868862002095565b905081810360408301526200282c81848662002095565b90509695505050505050565b60006200284462002857565b90506200285282826200297f565b919050565b6000604051905090565b600067ffffffffffffffff8211156200287f576200287e620029bf565b5b6200288a82620029ee565b9050602081019050919050565b600081519050919050565b600081519050919050565b600082825260208201905092915050565b600081905092915050565b600082825260208201905092915050565b600081905092915050565b6000620028f28262002903565b9050919050565b6000819050919050565b600073ffffffffffffffffffffffffffffffffffffffff82169050919050565b6000819050919050565b600060ff82169050919050565b82818337600083830152505050565b60005b83811015620029695780820151818401526020810190506200294c565b8381111562002979576000848401525b50505050565b6200298a82620029ee565b810181811067ffffffffffffffff82111715620029ac57620029ab620029bf565b5b80604052505050565b6000819050919050565b7f4e487b7100000000000000000000000000000000000000000000000000000000600052604160045260246000fd5b6000601f19601f8301169050919050565b7f45434453413a20696e76616c6964207369676e61747572650000000000000000600082015250565b7f45434453413a20696e76616c6964207369676e6174757265206c656e67746800600082015250565b7f45524331393637557067726164653a207570677261646520627265616b73206660008201527f7572746865722075706772616465730000000000000000000000000000000000602082015250565b7f4f776e61626c653a206e6577206f776e657220697320746865207a65726f206160008201527f6464726573730000000000000000000000000000000000000000000000000000602082015250565b7f1901000000000000000000000000000000000000000000000000000000000000600082015250565b7f46756e6374696f6e206d7573742062652063616c6c6564207468726f7567682060008201527f64656c656761746563616c6c0000000000000000000000000000000000000000602082015250565b7f45434453413a20696e76616c6964207369676e6174757265202773272076616c60008201527f7565000000000000000000000000000000000000000000000000000000000000602082015250565b7f46756e6374696f6e206d7573742062652063616c6c6564207468726f7567682060008201527f6163746976652070726f78790000000000000000000000000000000000000000602082015250565b7f696e76616c696420617574686f72697a6174696f6e0000000000000000000000600082015250565b7f496e697469616c697a61626c653a20636f6e747261637420697320616c72656160008201527f647920696e697469616c697a6564000000000000000000000000000000000000602082015250565b7f45434453413a20696e76616c6964207369676e6174757265202776272076616c60008201527f7565000000000000000000000000000000000000000000000000000000000000602082015250565b7f455243313936373a206e657720696d706c656d656e746174696f6e206973206e60008201527f6f74206120636f6e747261637400000000000000000000000000000000000000602082015250565b7f4f776e61626c653a2063616c6c6572206973206e6f7420746865206f776e6572600082015250565b7f416464726573733a2064656c65676174652063616c6c20746f206e6f6e2d636f60008201527f6e74726163740000000000000000000000000000000000000000000000000000602082015250565b7f496e697469616c697a61626c653a20636f6e7472616374206973206e6f74206960008201527f6e697469616c697a696e67000000000000000000000000000000000000000000602082015250565b7f4e6f7420617574686f72697a6564000000000000000000000000000000000000600082015250565b7f77686974656c697374206e6f7420656e61626c65640000000000000000000000600082015250565b62002e3f81620028e5565b811462002e4b57600080fd5b50565b62002e598162002923565b811462002e6557600080fd5b5056fe60806040526040516200103d3803806200103d8339818101604052810190620000299190620005e1565b60017fa3f0ad74e5423aebfd80d3ef4346578335a9a72aeaee59ff6cb3582b35133d5160001c6200005b91906200085c565b60001b7fa3f0ad74e5423aebfd80d3ef4346578335a9a72aeaee59ff6cb3582b35133d5060001b14620000b7577f4e487b7100000000000000000000000000000000000000000000000000000000600052600160045260246000fd5b620000cb82826000620000d360201b60201c565b505062000ab7565b620000e483620001da60201b60201c565b8273ffffffffffffffffffffffffffffffffffffffff167f1cf3b03a6cf19fa2baba4df148e9dcabedea7f8a5c07840e207e5c089be95d3e60405160405180910390a2600082511180620001355750805b15620001d557620001d38373ffffffffffffffffffffffffffffffffffffffff16635c60da1b6040518163ffffffff1660e01b815260040160206040518083038186803b1580156200018657600080fd5b505afa1580156200019b573d6000803e3d6000fd5b505050506040513d601f19601f82011682018060405250810190620001c19190620005b5565b836200038960201b620000371760201c565b505b505050565b620001f081620003bf60201b620000641760201c565b62000232576040517f08c379a0000000000000000000000000000000000000000000000000000000008152600401620002299062000765565b60405180910390fd5b620002c98173ffffffffffffffffffffffffffffffffffffffff16635c60da1b6040518163ffffffff1660e01b815260040160206040518083038186803b1580156200027d57600080fd5b505afa15801562000292573d6000803e3d6000fd5b505050506040513d601f19601f82011682018060405250810190620002b89190620005b5565b620003bf60201b620000641760201c565b6200030b576040517f08c379a00000000000000000000000000000000000000000000000000000000081526004016200030290620007a9565b60405180910390fd5b80620003457fa3f0ad74e5423aebfd80d3ef4346578335a9a72aeaee59ff6cb3582b35133d5060001b620003d260201b620000771760201c565b60000160006101000a81548173ffffffffffffffffffffffffffffffffffffffff021916908373ffffffffffffffffffffffffffffffffffffffff16021790555050565b6060620003b783836040518060600160405280602781526020016200101660279139620003dc60201b60201c565b905092915050565b600080823b905060008111915050919050565b6000819050919050565b6060620003ef84620003bf60201b60201c565b62000431576040517f08c379a0000000000000000000000000000000000000000000000000000000008152600401620004289062000787565b60405180910390fd5b6000808573ffffffffffffffffffffffffffffffffffffffff16856040516200045b919062000728565b600060405180830381855af49150503d806000811462000498576040519150601f19603f3d011682016040523d82523d6000602084013e6200049d565b606091505b5091509150620004b5828286620004c060201b60201c565b925050509392505050565b60608315620004d25782905062000525565b600083511115620004e65782518084602001fd5b816040517f08c379a00000000000000000000000000000000000000000000000000000000081526004016200051c919062000741565b60405180910390fd5b9392505050565b6000620005436200053d84620007f4565b620007cb565b9050828152602081018484840111156200055c57600080fd5b62000569848285620008d5565b509392505050565b600081519050620005828162000a9d565b92915050565b600082601f8301126200059a57600080fd5b8151620005ac8482602086016200052c565b91505092915050565b600060208284031215620005c857600080fd5b6000620005d88482850162000571565b91505092915050565b60008060408385031215620005f557600080fd5b6000620006058582860162000571565b925050602083015167ffffffffffffffff8111156200062357600080fd5b620006318582860162000588565b9150509250929050565b600062000648826200082a565b62000654818562000840565b935062000666818560208601620008d5565b80840191505092915050565b60006200067f8262000835565b6200068b81856200084b565b93506200069d818560208601620008d5565b620006a8816200099f565b840191505092915050565b6000620006c26025836200084b565b9150620006cf82620009b0565b604082019050919050565b6000620006e96026836200084b565b9150620006f682620009ff565b604082019050919050565b6000620007106030836200084b565b91506200071d8262000a4e565b604082019050919050565b60006200073682846200063b565b915081905092915050565b600060208201905081810360008301526200075d818462000672565b905092915050565b600060208201905081810360008301526200078081620006b3565b9050919050565b60006020820190508181036000830152620007a281620006da565b9050919050565b60006020820190508181036000830152620007c48162000701565b9050919050565b6000620007d7620007ea565b9050620007e582826200090b565b919050565b6000604051905090565b600067ffffffffffffffff82111562000812576200081162000970565b5b6200081d826200099f565b9050602081019050919050565b600081519050919050565b600081519050919050565b600081905092915050565b600082825260208201905092915050565b60006200086982620008cb565b91506200087683620008cb565b9250828210156200088c576200088b62000941565b5b828203905092915050565b6000620008a482620008ab565b9050919050565b600073ffffffffffffffffffffffffffffffffffffffff82169050919050565b6000819050919050565b60005b83811015620008f5578082015181840152602081019050620008d8565b8381111562000905576000848401525b50505050565b62000916826200099f565b810181811067ffffffffffffffff8211171562000938576200093762000970565b5b80604052505050565b7f4e487b7100000000000000000000000000000000000000000000000000000000600052601160045260246000fd5b7f4e487b7100000000000000000000000000000000000000000000000000000000600052604160045260246000fd5b6000601f19601f8301169050919050565b7f455243313936373a206e657720626561636f6e206973206e6f74206120636f6e60008201527f7472616374000000000000000000000000000000000000000000000000000000602082015250565b7f416464726573733a2064656c65676174652063616c6c20746f206e6f6e2d636f60008201527f6e74726163740000000000000000000000000000000000000000000000000000602082015250565b7f455243313936373a20626561636f6e20696d706c656d656e746174696f6e206960008201527f73206e6f74206120636f6e747261637400000000000000000000000000000000602082015250565b62000aa88162000897565b811462000ab457600080fd5b50565b61054f8062000ac76000396000f3fe6080604052366100135761001161001d565b005b61001b61001d565b005b610025610081565b610035610030610083565b61010f565b565b606061005c83836040518060600160405280602781526020016104f360279139610135565b905092915050565b600080823b905060008111915050919050565b6000819050919050565b565b600061008d610202565b73ffffffffffffffffffffffffffffffffffffffff16635c60da1b6040518163ffffffff1660e01b815260040160206040518083038186803b1580156100d257600080fd5b505afa1580156100e6573d6000803e3d6000fd5b505050506040513d601f19601f8201168201806040525081019061010a91906102d5565b905090565b3660008037600080366000845af43d6000803e8060008114610130573d6000f35b3d6000fd5b606061014084610064565b61017f576040517f08c379a0000000000000000000000000000000000000000000000000000000008152600401610176906103c4565b60405180910390fd5b6000808573ffffffffffffffffffffffffffffffffffffffff16856040516101a7919061038b565b600060405180830381855af49150503d80600081146101e2576040519150601f19603f3d011682016040523d82523d6000602084013e6101e7565b606091505b50915091506101f7828286610259565b925050509392505050565b60006102307fa3f0ad74e5423aebfd80d3ef4346578335a9a72aeaee59ff6cb3582b35133d5060001b610077565b60000160009054906101000a900473ffffffffffffffffffffffffffffffffffffffff16905090565b60608315610269578290506102b9565b60008351111561027c5782518084602001fd5b816040517f08c379a00000000000000000000000000000000000000000000000000000000081526004016102b091906103a2565b60405180910390fd5b9392505050565b6000815190506102cf816104db565b92915050565b6000602082840312156102e757600080fd5b60006102f5848285016102c0565b91505092915050565b6000610309826103e4565b61031381856103fa565b9350610323818560208601610448565b80840191505092915050565b600061033a826103ef565b6103448185610405565b9350610354818560208601610448565b61035d8161047b565b840191505092915050565b6000610375602683610405565b91506103808261048c565b604082019050919050565b600061039782846102fe565b915081905092915050565b600060208201905081810360008301526103bc818461032f565b905092915050565b600060208201905081810360008301526103dd81610368565b9050919050565b600081519050919050565b600081519050919050565b600081905092915050565b600082825260208201905092915050565b600061042182610428565b9050919050565b600073ffffffffffffffffffffffffffffffffffffffff82169050919050565b60005b8381101561046657808201518184015260208101905061044b565b83811115610475576000848401525b50505050565b6000601f19601f8301169050919050565b7f416464726573733a2064656c65676174652063616c6c20746f206e6f6e2d636f60008201527f6e74726163740000000000000000000000000000000000000000000000000000602082015250565b6104e481610416565b81146104ef57600080fd5b5056fe416464726573733a206c6f772d6c6576656c2064656c65676174652063616c6c206661696c6564a2646970667358221220ad095c81284fd455199a2812ae9833590542bb0c90632f30b22bdc9925c7e37564736f6c63430008040033416464726573733a206c6f772d6c6576656c2064656c65676174652063616c6c206661696c6564416464726573733a206c6f772d6c6576656c2064656c65676174652063616c6c206661696c6564a2646970667358221220975d4a167b1f23f56748289c56c65c68c8de71194ef2196a93c446fb8dad5d3b64736f6c63430008040033",
  "linkReferences": {},
  "deployedLinkReferences": {}
}