{
  "_format": "hh-sol-artifact-1",
  "contractName": "ArtistCreatorV2",
  "sourceName": "contracts/ArtistCreatorV2.sol",
  "abi": [
    {
      "anonymous": false,
      "inputs": [
        {
          "indexed": false,
          "internalType": "address",
          "name": "previousAdmin",
          "type": "address"
        },
        {
          "indexed": false,
          "internalType": "address",
          "name": "newAdmin",
          "type": "address"
        }
      ],
      "name": "AdminChanged",
      "type": "event"
    },
    {
      "anonymous": false,
      "inputs": [
        {
          "indexed": true,
          "internalType": "address",
          "name": "beacon",
          "type": "address"
        }
      ],
      "name": "BeaconUpgraded",
      "type": "event"
    },
    {
      "anonymous": false,
      "inputs": [
        {
          "indexed": false,
          "internalType": "uint256",
          "name": "artistId",
          "type": "uint256"
        },
        {
          "indexed": false,
          "internalType": "string",
          "name": "name",
          "type": "string"
        },
        {
          "indexed": false,
          "internalType": "string",
          "name": "symbol",
          "type": "string"
        },
        {
          "indexed": false,
          "internalType": "address",
          "name": "user",
          "type": "address"
        },
        {
          "indexed": true,
          "internalType": "address",
          "name": "artistAddress",
          "type": "address"
        }
      ],
      "name": "CreatedArtist",
      "type": "event"
    },
    {
      "anonymous": false,
      "inputs": [
        {
          "indexed": true,
          "internalType": "address",
          "name": "previousOwner",
          "type": "address"
        },
        {
          "indexed": true,
          "internalType": "address",
          "name": "newOwner",
          "type": "address"
        }
      ],
      "name": "OwnershipTransferred",
      "type": "event"
    },
    {
      "anonymous": false,
      "inputs": [
        {
          "indexed": true,
          "internalType": "address",
          "name": "implementation",
          "type": "address"
        }
      ],
      "name": "Upgraded",
      "type": "event"
    },
    {
      "inputs": [],
      "name": "DOMAIN_SEPARATOR",
      "outputs": [
        {
          "internalType": "bytes32",
          "name": "",
          "type": "bytes32"
        }
      ],
      "stateMutability": "view",
      "type": "function"
    },
    {
      "inputs": [],
      "name": "MINTER_TYPEHASH",
      "outputs": [
        {
          "internalType": "bytes32",
          "name": "",
          "type": "bytes32"
        }
      ],
      "stateMutability": "view",
      "type": "function"
    },
    {
      "inputs": [],
      "name": "admin",
      "outputs": [
        {
          "internalType": "address",
          "name": "",
          "type": "address"
        }
      ],
      "stateMutability": "view",
      "type": "function"
    },
    {
      "inputs": [
        {
          "internalType": "uint256",
          "name": "",
          "type": "uint256"
        }
      ],
      "name": "artistContracts",
      "outputs": [
        {
          "internalType": "address",
          "name": "",
          "type": "address"
        }
      ],
      "stateMutability": "view",
      "type": "function"
    },
    {
      "inputs": [],
      "name": "beaconAddress",
      "outputs": [
        {
          "internalType": "address",
          "name": "",
          "type": "address"
        }
      ],
      "stateMutability": "view",
      "type": "function"
    },
    {
      "inputs": [
        {
          "internalType": "string",
          "name": "_name",
          "type": "string"
        },
        {
          "internalType": "string",
          "name": "_symbol",
          "type": "string"
        },
        {
          "internalType": "string",
          "name": "_baseURI",
          "type": "string"
        }
      ],
      "name": "createArtist",
      "outputs": [
        {
          "internalType": "address",
          "name": "",
          "type": "address"
        }
      ],
      "stateMutability": "nonpayable",
      "type": "function"
    },
    {
      "inputs": [],
      "name": "getArtistContracts",
      "outputs": [
        {
          "internalType": "address[]",
          "name": "",
          "type": "address[]"
        }
      ],
      "stateMutability": "view",
      "type": "function"
    },
    {
      "inputs": [
        {
          "internalType": "bytes",
          "name": "signature",
          "type": "bytes"
        }
      ],
      "name": "getSigner",
      "outputs": [
        {
          "internalType": "address",
          "name": "",
          "type": "address"
        }
      ],
      "stateMutability": "view",
      "type": "function"
    },
    {
      "inputs": [
        {
          "internalType": "address",
          "name": "_beaconAddress",
          "type": "address"
        }
      ],
      "name": "initialize",
      "outputs": [],
      "stateMutability": "nonpayable",
      "type": "function"
    },
    {
      "inputs": [],
      "name": "owner",
      "outputs": [
        {
          "internalType": "address",
          "name": "",
          "type": "address"
        }
      ],
      "stateMutability": "view",
      "type": "function"
    },
    {
      "inputs": [],
      "name": "renounceOwnership",
      "outputs": [],
      "stateMutability": "nonpayable",
      "type": "function"
    },
    {
      "inputs": [
        {
          "internalType": "address",
          "name": "_newAdmin",
          "type": "address"
        }
      ],
      "name": "setAdmin",
      "outputs": [],
      "stateMutability": "nonpayable",
      "type": "function"
    },
    {
      "inputs": [
        {
          "internalType": "address",
          "name": "newOwner",
          "type": "address"
        }
      ],
      "name": "transferOwnership",
      "outputs": [],
      "stateMutability": "nonpayable",
      "type": "function"
    },
    {
      "inputs": [
        {
          "internalType": "address",
          "name": "newImplementation",
          "type": "address"
        }
      ],
      "name": "upgradeTo",
      "outputs": [],
      "stateMutability": "nonpayable",
      "type": "function"
    },
    {
      "inputs": [
        {
          "internalType": "address",
          "name": "newImplementation",
          "type": "address"
        },
        {
          "internalType": "bytes",
          "name": "data",
          "type": "bytes"
        }
      ],
      "name": "upgradeToAndCall",
      "outputs": [],
      "stateMutability": "payable",
      "type": "function"
    }
  ],
  "bytecode": "0x60a06040523073ffffffffffffffffffffffffffffffffffffffff1660809073ffffffffffffffffffffffffffffffffffffffff1660601b81525034801561004657600080fd5b5060805160601c613f0c61007a60003960008181610640015281816106d2015281816107fd015261088f0152613f0c6000f3fe608060405260043610620000fe5760003560e01c80637e2ec6d01162000097578063e6adabfd1162000061578063e6adabfd146200030f578063f2fde38b1462000353578063f851a4401462000381578063fa4d280c14620003b157620000fe565b80637e2ec6d0146200023d5780638da5cb5b146200026d578063b16a43f0146200029d578063c4d66de814620002e157620000fe565b80633659cfe611620000d95780633659cfe614620001a75780634f1ef28614620001d5578063704b6c0214620001f5578063715018a6146200022357620000fe565b806310afc0cf146200010357806313ea160314620001475780633644e5151462000177575b600080fd5b3480156200011057600080fd5b506200012f600480360381019062000129919062001e90565b620003e1565b6040516200013e919062002410565b60405180910390f35b3480156200015457600080fd5b506200015f620005a8565b6040516200016e9190620024c9565b60405180910390f35b3480156200018457600080fd5b506200018f62000638565b6040516200019e9190620024ed565b60405180910390f35b348015620001b457600080fd5b50620001d36004803603810190620001cd919062001dc1565b6200063e565b005b620001f36004803603810190620001ed919062001ded565b620007fb565b005b3480156200020257600080fd5b506200022160048036038101906200021b919062001dc1565b62000944565b005b3480156200023057600080fd5b506200023b62000a6d565b005b3480156200024a57600080fd5b506200025562000afe565b60405162000264919062002410565b60405180910390f35b3480156200027a57600080fd5b506200028562000b24565b60405162000294919062002410565b60405180910390f35b348015620002aa57600080fd5b50620002c96004803603810190620002c3919062001f3e565b62000b4e565b604051620002d8919062002410565b60405180910390f35b348015620002ee57600080fd5b506200030d600480360381019062000307919062001dc1565b62000b8e565b005b3480156200031c57600080fd5b506200033b600480360381019062000335919062001e47565b62000d65565b6040516200034a919062002410565b60405180910390f35b3480156200036057600080fd5b506200037f600480360381019062000379919062001dc1565b62000ede565b005b3480156200038e57600080fd5b506200039962000fe2565b604051620003a8919062002410565b60405180910390f35b348015620003be57600080fd5b50620003c962001008565b604051620003d89190620024ed565b60405180910390f35b60008060cc60009054906101000a900473ffffffffffffffffffffffffffffffffffffffff16635f1e6f6d60e01b338a8a8a8a8a8a6040516024016200042e979695949392919062002461565b604051602081830303815290604052907bffffffffffffffffffffffffffffffffffffffffffffffffffffffff19166020820180517bffffffffffffffffffffffffffffffffffffffffffffffffffffffff8381831617835250505050604051620004999062001c79565b620004a69291906200242d565b604051809103906000f080158015620004c3573d6000803e3d6000fd5b50905060cd819080600181540180825580915050600190039060005260206000200160009091909190916101000a81548173ffffffffffffffffffffffffffffffffffffffff021916908373ffffffffffffffffffffffffffffffffffffffff1602179055508073ffffffffffffffffffffffffffffffffffffffff167f787111829ce60193929f53b09d6668d07d5c59349bba0c3f25f43d92814363e86200056d60c96200102c565b8a8a8a8a336040516200058696959493929190620027d3565b60405180910390a26200059a60c96200103a565b809150509695505050505050565b606060cd8054806020026020016040519081016040528092919081815260200182805480156200062e57602002820191906000526020600020905b8160009054906101000a900473ffffffffffffffffffffffffffffffffffffffff1673ffffffffffffffffffffffffffffffffffffffff1681526020019060010190808311620005e3575b5050505050905090565b60cb5481565b7f000000000000000000000000000000000000000000000000000000000000000073ffffffffffffffffffffffffffffffffffffffff163073ffffffffffffffffffffffffffffffffffffffff161415620006d0576040517f08c379a0000000000000000000000000000000000000000000000000000000008152600401620006c7906200265d565b60405180910390fd5b7f000000000000000000000000000000000000000000000000000000000000000073ffffffffffffffffffffffffffffffffffffffff166200071162001050565b73ffffffffffffffffffffffffffffffffffffffff16146200076a576040517f08c379a00000000000000000000000000000000000000000000000000000000081526004016200076190620026a1565b60405180910390fd5b6200077581620010a9565b620007f881600067ffffffffffffffff811115620007bc577f4e487b7100000000000000000000000000000000000000000000000000000000600052604160045260246000fd5b6040519080825280601f01601f191660200182016040528015620007ef5781602001600182028036833780820191505090505b5060006200112f565b50565b7f000000000000000000000000000000000000000000000000000000000000000073ffffffffffffffffffffffffffffffffffffffff163073ffffffffffffffffffffffffffffffffffffffff1614156200088d576040517f08c379a000000000000000000000000000000000000000000000000000000000815260040162000884906200265d565b60405180910390fd5b7f000000000000000000000000000000000000000000000000000000000000000073ffffffffffffffffffffffffffffffffffffffff16620008ce62001050565b73ffffffffffffffffffffffffffffffffffffffff161462000927576040517f08c379a00000000000000000000000000000000000000000000000000000000081526004016200091e90620026a1565b60405180910390fd5b6200093282620010a9565b62000940828260016200112f565b5050565b6200094e62001316565b73ffffffffffffffffffffffffffffffffffffffff166200096e62000b24565b73ffffffffffffffffffffffffffffffffffffffff161480620009e757506200099662001316565b73ffffffffffffffffffffffffffffffffffffffff1660ca60009054906101000a900473ffffffffffffffffffffffffffffffffffffffff1673ffffffffffffffffffffffffffffffffffffffff16145b62000a29576040517f08c379a000000000000000000000000000000000000000000000000000000000815260040162000a2090620026c3565b60405180910390fd5b8060ca60006101000a81548173ffffffffffffffffffffffffffffffffffffffff021916908373ffffffffffffffffffffffffffffffffffffffff16021790555050565b62000a7762001316565b73ffffffffffffffffffffffffffffffffffffffff1662000a9762000b24565b73ffffffffffffffffffffffffffffffffffffffff161462000af0576040517f08c379a000000000000000000000000000000000000000000000000000000000815260040162000ae7906200274b565b60405180910390fd5b62000afc60006200131e565b565b60cc60009054906101000a900473ffffffffffffffffffffffffffffffffffffffff1681565b6000609760009054906101000a900473ffffffffffffffffffffffffffffffffffffffff16905090565b60cd818154811062000b5f57600080fd5b906000526020600020016000915054906101000a900473ffffffffffffffffffffffffffffffffffffffff1681565b600060019054906101000a900460ff1662000bb85760008054906101000a900460ff161562000bc3565b62000bc2620013e4565b5b62000c05576040517f08c379a000000000000000000000000000000000000000000000000000000000815260040162000bfc90620026e5565b60405180910390fd5b60008060019054906101000a900460ff16159050801562000c56576001600060016101000a81548160ff02191690831515021790555060016000806101000a81548160ff0219169083151502179055505b62000c60620013f7565b3360ca60006101000a81548173ffffffffffffffffffffffffffffffffffffffff021916908373ffffffffffffffffffffffffffffffffffffffff1602179055507fc49a8e302e3e5d6753b2bb3dbc3c28deba5e16e2572a92aef568063c963e34654660405160200162000cd692919062002537565b6040516020818303038152906040528051906020012060cb819055508160cc60006101000a81548173ffffffffffffffffffffffffffffffffffffffff021916908373ffffffffffffffffffffffffffffffffffffffff16021790555062000d3f60c96200103a565b801562000d615760008060016101000a81548160ff0219169083151502179055505b5050565b60008073ffffffffffffffffffffffffffffffffffffffff1660ca60009054906101000a900473ffffffffffffffffffffffffffffffffffffffff1673ffffffffffffffffffffffffffffffffffffffff16141562000dfb576040517f08c379a000000000000000000000000000000000000000000000000000000000815260040162000df290620027b1565b60405180910390fd5b600060cb547f5925e35aebbeb7738ae3e97ad24e3b4cc09001c8668d81f3365213a0ec1e85b23360405160200162000e359291906200250a565b6040516020818303038152906040528051906020012060405160200162000e5e929190620023d3565b604051602081830303815290604052805190602001209050600062000ed185858080601f016020809104026020016040519081016040528093929190818152602001838380828437600081840152601f19601f82011690508083019250505050505050836200145f90919063ffffffff16565b9050809250505092915050565b62000ee862001316565b73ffffffffffffffffffffffffffffffffffffffff1662000f0862000b24565b73ffffffffffffffffffffffffffffffffffffffff161462000f61576040517f08c379a000000000000000000000000000000000000000000000000000000000815260040162000f58906200274b565b60405180910390fd5b600073ffffffffffffffffffffffffffffffffffffffff168173ffffffffffffffffffffffffffffffffffffffff16141562000fd4576040517f08c379a000000000000000000000000000000000000000000000000000000000815260040162000fcb906200263b565b60405180910390fd5b62000fdf816200131e565b50565b60ca60009054906101000a900473ffffffffffffffffffffffffffffffffffffffff1681565b7f5925e35aebbeb7738ae3e97ad24e3b4cc09001c8668d81f3365213a0ec1e85b281565b600081600001549050919050565b6001816000016000828254019250508190555050565b6000620010807f360894a13ba1a3210667c828492db98dca3e2076cc3735a920a3ca505d382bbc60001b6200148a565b60000160009054906101000a900473ffffffffffffffffffffffffffffffffffffffff16905090565b620010b362001316565b73ffffffffffffffffffffffffffffffffffffffff16620010d362000b24565b73ffffffffffffffffffffffffffffffffffffffff16146200112c576040517f08c379a000000000000000000000000000000000000000000000000000000000815260040162001123906200274b565b60405180910390fd5b50565b60006200113b62001050565b9050620011488462001494565b600083511180620011565750815b156200116a5762001168848462001554565b505b60006200119a7f4910fdfa16fed3260ed0e7147f7cc6da11a60208b5b9406d12a635614ffd914360001b62001644565b90508060000160009054906101000a900460ff166200130f5760018160000160006101000a81548160ff0219169083151502179055506200126b8583604051602401620011e8919062002410565b6040516020818303038152906040527f3659cfe6000000000000000000000000000000000000000000000000000000007bffffffffffffffffffffffffffffffffffffffffffffffffffffffff19166020820180517bffffffffffffffffffffffffffffffffffffffffffffffffffffffff838183161783525050505062001554565b5060008160000160006101000a81548160ff0219169083151502179055506200129362001050565b73ffffffffffffffffffffffffffffffffffffffff168273ffffffffffffffffffffffffffffffffffffffff161462001303576040517f08c379a0000000000000000000000000000000000000000000000000000000008152600401620012fa9062002619565b60405180910390fd5b6200130e856200164e565b5b5050505050565b600033905090565b6000609760009054906101000a900473ffffffffffffffffffffffffffffffffffffffff16905081609760006101000a81548173ffffffffffffffffffffffffffffffffffffffff021916908373ffffffffffffffffffffffffffffffffffffffff1602179055508173ffffffffffffffffffffffffffffffffffffffff168173ffffffffffffffffffffffffffffffffffffffff167f8be0079c531659141344cd1fd0a4f28419497f9722a3daafe3b4186f6b6457e060405160405180910390a35050565b6000620013f1306200169f565b15905090565b600060019054906101000a900460ff1662001449576040517f08c379a000000000000000000000000000000000000000000000000000000000815260040162001440906200278f565b60405180910390fd5b6200145d6200145762001316565b6200131e565b565b6000806000620014708585620016b2565b915091506200147f816200173d565b819250505092915050565b6000819050919050565b6200149f816200169f565b620014e1576040517f08c379a0000000000000000000000000000000000000000000000000000000008152600401620014d89062002729565b60405180910390fd5b80620015107f360894a13ba1a3210667c828492db98dca3e2076cc3735a920a3ca505d382bbc60001b6200148a565b60000160006101000a81548173ffffffffffffffffffffffffffffffffffffffff021916908373ffffffffffffffffffffffffffffffffffffffff16021790555050565b606062001561836200169f565b620015a3576040517f08c379a00000000000000000000000000000000000000000000000000000000081526004016200159a906200276d565b60405180910390fd5b6000808473ffffffffffffffffffffffffffffffffffffffff1684604051620015cd9190620023ba565b600060405180830381855af49150503d80600081146200160a576040519150601f19603f3d011682016040523d82523d6000602084013e6200160f565b606091505b50915091506200163a828260405180606001604052806027815260200162003eb06027913962001aa6565b9250505092915050565b6000819050919050565b620016598162001494565b8073ffffffffffffffffffffffffffffffffffffffff167fbc7cd75a20ee27fd9adebab32041f755214dbc6bffa90cc0225b39da2e5c2d3b60405160405180910390a250565b600080823b905060008111915050919050565b600080604183511415620016f85760008060006020860151925060408601519150606086015160001a9050620016eb8782858562001b12565b9450945050505062001736565b6040835114156200172d5760008060208501519150604085015190506200172186838362001c29565b93509350505062001736565b60006002915091505b9250929050565b6000600481111562001778577f4e487b7100000000000000000000000000000000000000000000000000000000600052602160045260246000fd5b816004811115620017b2577f4e487b7100000000000000000000000000000000000000000000000000000000600052602160045260246000fd5b1415620017bf5762001aa3565b60016004811115620017fa577f4e487b7100000000000000000000000000000000000000000000000000000000600052602160045260246000fd5b81600481111562001834577f4e487b7100000000000000000000000000000000000000000000000000000000600052602160045260246000fd5b141562001878576040517f08c379a00000000000000000000000000000000000000000000000000000000081526004016200186f90620025d5565b60405180910390fd5b60026004811115620018b3577f4e487b7100000000000000000000000000000000000000000000000000000000600052602160045260246000fd5b816004811115620018ed577f4e487b7100000000000000000000000000000000000000000000000000000000600052602160045260246000fd5b141562001931576040517f08c379a00000000000000000000000000000000000000000000000000000000081526004016200192890620025f7565b60405180910390fd5b600360048111156200196c577f4e487b7100000000000000000000000000000000000000000000000000000000600052602160045260246000fd5b816004811115620019a6577f4e487b7100000000000000000000000000000000000000000000000000000000600052602160045260246000fd5b1415620019ea576040517f08c379a0000000000000000000000000000000000000000000000000000000008152600401620019e1906200267f565b60405180910390fd5b60048081111562001a24577f4e487b7100000000000000000000000000000000000000000000000000000000600052602160045260246000fd5b81600481111562001a5e577f4e487b7100000000000000000000000000000000000000000000000000000000600052602160045260246000fd5b141562001aa2576040517f08c379a000000000000000000000000000000000000000000000000000000000815260040162001a999062002707565b60405180910390fd5b5b50565b6060831562001ab85782905062001b0b565b60008351111562001acc5782518084602001fd5b816040517f08c379a000000000000000000000000000000000000000000000000000000000815260040162001b029190620025b1565b60405180910390fd5b9392505050565b6000807f7fffffffffffffffffffffffffffffff5d576e7357a4501ddfe92f46681b20a08360001c111562001b4f57600060039150915062001c20565b601b8560ff161415801562001b685750601c8560ff1614155b1562001b7c57600060049150915062001c20565b60006001878787876040516000815260200160405260405162001ba3949392919062002564565b6020604051602081039080840390855afa15801562001bc6573d6000803e3d6000fd5b505050602060405103519050600073ffffffffffffffffffffffffffffffffffffffff168173ffffffffffffffffffffffffffffffffffffffff16141562001c175760006001925092505062001c20565b80600092509250505b94509492505050565b6000806000807f7fffffffffffffffffffffffffffffffffffffffffffffffffffffffffffffff85169150601b8560ff1c01905062001c6b8782888562001b12565b935093505050935093915050565b61103d8062002e7383390190565b600062001c9e62001c98846200285b565b62002832565b90508281526020810184848401111562001cb757600080fd5b62001cc48482856200296d565b509392505050565b60008135905062001cdd8162002e3e565b92915050565b60008083601f84011262001cf657600080fd5b8235905067ffffffffffffffff81111562001d1057600080fd5b60208301915083600182028301111562001d2957600080fd5b9250929050565b600082601f83011262001d4257600080fd5b813562001d5484826020860162001c87565b91505092915050565b60008083601f84011262001d7057600080fd5b8235905067ffffffffffffffff81111562001d8a57600080fd5b60208301915083600182028301111562001da357600080fd5b9250929050565b60008135905062001dbb8162002e58565b92915050565b60006020828403121562001dd457600080fd5b600062001de48482850162001ccc565b91505092915050565b6000806040838503121562001e0157600080fd5b600062001e118582860162001ccc565b925050602083013567ffffffffffffffff81111562001e2f57600080fd5b62001e3d8582860162001d30565b9150509250929050565b6000806020838503121562001e5b57600080fd5b600083013567ffffffffffffffff81111562001e7657600080fd5b62001e848582860162001ce3565b92509250509250929050565b6000806000806000806060878903121562001eaa57600080fd5b600087013567ffffffffffffffff81111562001ec557600080fd5b62001ed389828a0162001d5d565b9650965050602087013567ffffffffffffffff81111562001ef357600080fd5b62001f0189828a0162001d5d565b9450945050604087013567ffffffffffffffff81111562001f2157600080fd5b62001f2f89828a0162001d5d565b92509250509295509295509295565b60006020828403121562001f5157600080fd5b600062001f618482850162001daa565b91505092915050565b600062001f78838362001f84565b60208301905092915050565b62001f8f8162002918565b82525050565b62001fa08162002918565b82525050565b600062001fb382620028a1565b62001fbf8185620028cf565b935062001fcc8362002891565b8060005b838110156200200357815162001fe7888262001f6a565b975062001ff483620028c2565b92505060018101905062001fd0565b5085935050505092915050565b6200201b816200292c565b82525050565b6200203662002030826200292c565b620029e8565b82525050565b60006200204982620028ac565b620020558185620028e0565b9350620020678185602086016200297c565b620020728162002a21565b840191505092915050565b60006200208a82620028ac565b620020968185620028f1565b9350620020a88185602086016200297c565b80840191505092915050565b6000620020c28385620028fc565b9350620020d18385846200296d565b620020dc8362002a21565b840190509392505050565b6000620020f482620028b7565b620021008185620028fc565b9350620021128185602086016200297c565b6200211d8162002a21565b840191505092915050565b600062002137601883620028fc565b9150620021448262002a32565b602082019050919050565b60006200215e601f83620028fc565b91506200216b8262002a5b565b602082019050919050565b600062002185602f83620028fc565b9150620021928262002a84565b604082019050919050565b6000620021ac602683620028fc565b9150620021b98262002ad3565b604082019050919050565b6000620021d36002836200290d565b9150620021e08262002b22565b600282019050919050565b6000620021fa602c83620028fc565b9150620022078262002b4b565b604082019050919050565b600062002221602283620028fc565b91506200222e8262002b9a565b604082019050919050565b600062002248602c83620028fc565b9150620022558262002be9565b604082019050919050565b60006200226f601583620028fc565b91506200227c8262002c38565b602082019050919050565b600062002296602e83620028fc565b9150620022a38262002c61565b604082019050919050565b6000620022bd602283620028fc565b9150620022ca8262002cb0565b604082019050919050565b6000620022e4602d83620028fc565b9150620022f18262002cff565b604082019050919050565b60006200230b602083620028fc565b9150620023188262002d4e565b602082019050919050565b600062002332602683620028fc565b91506200233f8262002d77565b604082019050919050565b600062002359602b83620028fc565b9150620023668262002dc6565b604082019050919050565b600062002380601583620028fc565b91506200238d8262002e15565b602082019050919050565b620023a38162002956565b82525050565b620023b48162002960565b82525050565b6000620023c882846200207d565b915081905092915050565b6000620023e082620021c4565b9150620023ee828562002021565b60208201915062002400828462002021565b6020820191508190509392505050565b600060208201905062002427600083018462001f95565b92915050565b600060408201905062002444600083018562001f95565b81810360208301526200245881846200203c565b90509392505050565b600060808201905062002478600083018a62001f95565b81810360208301526200248d81888a620020b4565b90508181036040830152620024a4818688620020b4565b90508181036060830152620024bb818486620020b4565b905098975050505050505050565b60006020820190508181036000830152620024e5818462001fa6565b905092915050565b600060208201905062002504600083018462002010565b92915050565b600060408201905062002521600083018562002010565b62002530602083018462001f95565b9392505050565b60006040820190506200254e600083018562002010565b6200255d602083018462002398565b9392505050565b60006080820190506200257b600083018762002010565b6200258a6020830186620023a9565b62002599604083018562002010565b620025a8606083018462002010565b95945050505050565b60006020820190508181036000830152620025cd8184620020e7565b905092915050565b60006020820190508181036000830152620025f08162002128565b9050919050565b6000602082019050818103600083015262002612816200214f565b9050919050565b60006020820190508181036000830152620026348162002176565b9050919050565b6000602082019050818103600083015262002656816200219d565b9050919050565b600060208201905081810360008301526200267881620021eb565b9050919050565b600060208201905081810360008301526200269a8162002212565b9050919050565b60006020820190508181036000830152620026bc8162002239565b9050919050565b60006020820190508181036000830152620026de8162002260565b9050919050565b60006020820190508181036000830152620027008162002287565b9050919050565b600060208201905081810360008301526200272281620022ae565b9050919050565b600060208201905081810360008301526200274481620022d5565b9050919050565b600060208201905081810360008301526200276681620022fc565b9050919050565b60006020820190508181036000830152620027888162002323565b9050919050565b60006020820190508181036000830152620027aa816200234a565b9050919050565b60006020820190508181036000830152620027cc8162002371565b9050919050565b6000608082019050620027ea600083018962002398565b8181036020830152620027ff818789620020b4565b9050818103604083015262002816818587620020b4565b905062002827606083018462001f95565b979650505050505050565b60006200283e62002851565b90506200284c8282620029b2565b919050565b6000604051905090565b600067ffffffffffffffff821115620028795762002878620029f2565b5b620028848262002a21565b9050602081019050919050565b6000819050602082019050919050565b600081519050919050565b600081519050919050565b600081519050919050565b6000602082019050919050565b600082825260208201905092915050565b600082825260208201905092915050565b600081905092915050565b600082825260208201905092915050565b600081905092915050565b6000620029258262002936565b9050919050565b6000819050919050565b600073ffffffffffffffffffffffffffffffffffffffff82169050919050565b6000819050919050565b600060ff82169050919050565b82818337600083830152505050565b60005b838110156200299c5780820151818401526020810190506200297f565b83811115620029ac576000848401525b50505050565b620029bd8262002a21565b810181811067ffffffffffffffff82111715620029df57620029de620029f2565b5b80604052505050565b6000819050919050565b7f4e487b7100000000000000000000000000000000000000000000000000000000600052604160045260246000fd5b6000601f19601f8301169050919050565b7f45434453413a20696e76616c6964207369676e61747572650000000000000000600082015250565b7f45434453413a20696e76616c6964207369676e6174757265206c656e67746800600082015250565b7f45524331393637557067726164653a207570677261646520627265616b73206660008201527f7572746865722075706772616465730000000000000000000000000000000000602082015250565b7f4f776e61626c653a206e6577206f776e657220697320746865207a65726f206160008201527f6464726573730000000000000000000000000000000000000000000000000000602082015250565b7f1901000000000000000000000000000000000000000000000000000000000000600082015250565b7f46756e6374696f6e206d7573742062652063616c6c6564207468726f7567682060008201527f64656c656761746563616c6c0000000000000000000000000000000000000000602082015250565b7f45434453413a20696e76616c6964207369676e6174757265202773272076616c60008201527f7565000000000000000000000000000000000000000000000000000000000000602082015250565b7f46756e6374696f6e206d7573742062652063616c6c6564207468726f7567682060008201527f6163746976652070726f78790000000000000000000000000000000000000000602082015250565b7f696e76616c696420617574686f72697a6174696f6e0000000000000000000000600082015250565b7f496e697469616c697a61626c653a20636f6e747261637420697320616c72656160008201527f647920696e697469616c697a6564000000000000000000000000000000000000602082015250565b7f45434453413a20696e76616c6964207369676e6174757265202776272076616c60008201527f7565000000000000000000000000000000000000000000000000000000000000602082015250565b7f455243313936373a206e657720696d706c656d656e746174696f6e206973206e60008201527f6f74206120636f6e747261637400000000000000000000000000000000000000602082015250565b7f4f776e61626c653a2063616c6c6572206973206e6f7420746865206f776e6572600082015250565b7f416464726573733a2064656c65676174652063616c6c20746f206e6f6e2d636f60008201527f6e74726163740000000000000000000000000000000000000000000000000000602082015250565b7f496e697469616c697a61626c653a20636f6e7472616374206973206e6f74206960008201527f6e697469616c697a696e67000000000000000000000000000000000000000000602082015250565b7f77686974656c697374206e6f7420656e61626c65640000000000000000000000600082015250565b62002e498162002918565b811462002e5557600080fd5b50565b62002e638162002956565b811462002e6f57600080fd5b5056fe60806040526040516200103d3803806200103d8339818101604052810190620000299190620005e1565b60017fa3f0ad74e5423aebfd80d3ef4346578335a9a72aeaee59ff6cb3582b35133d5160001c6200005b91906200085c565b60001b7fa3f0ad74e5423aebfd80d3ef4346578335a9a72aeaee59ff6cb3582b35133d5060001b14620000b7577f4e487b7100000000000000000000000000000000000000000000000000000000600052600160045260246000fd5b620000cb82826000620000d360201b60201c565b505062000ab7565b620000e483620001da60201b60201c565b8273ffffffffffffffffffffffffffffffffffffffff167f1cf3b03a6cf19fa2baba4df148e9dcabedea7f8a5c07840e207e5c089be95d3e60405160405180910390a2600082511180620001355750805b15620001d557620001d38373ffffffffffffffffffffffffffffffffffffffff16635c60da1b6040518163ffffffff1660e01b815260040160206040518083038186803b1580156200018657600080fd5b505afa1580156200019b573d6000803e3d6000fd5b505050506040513d601f19601f82011682018060405250810190620001c19190620005b5565b836200038960201b620000371760201c565b505b505050565b620001f081620003bf60201b620000641760201c565b62000232576040517f08c379a0000000000000000000000000000000000000000000000000000000008152600401620002299062000765565b60405180910390fd5b620002c98173ffffffffffffffffffffffffffffffffffffffff16635c60da1b6040518163ffffffff1660e01b815260040160206040518083038186803b1580156200027d57600080fd5b505afa15801562000292573d6000803e3d6000fd5b505050506040513d601f19601f82011682018060405250810190620002b89190620005b5565b620003bf60201b620000641760201c565b6200030b576040517f08c379a00000000000000000000000000000000000000000000000000000000081526004016200030290620007a9565b60405180910390fd5b80620003457fa3f0ad74e5423aebfd80d3ef4346578335a9a72aeaee59ff6cb3582b35133d5060001b620003d260201b620000771760201c565b60000160006101000a81548173ffffffffffffffffffffffffffffffffffffffff021916908373ffffffffffffffffffffffffffffffffffffffff16021790555050565b6060620003b783836040518060600160405280602781526020016200101660279139620003dc60201b60201c565b905092915050565b600080823b905060008111915050919050565b6000819050919050565b6060620003ef84620003bf60201b60201c565b62000431576040517f08c379a0000000000000000000000000000000000000000000000000000000008152600401620004289062000787565b60405180910390fd5b6000808573ffffffffffffffffffffffffffffffffffffffff16856040516200045b919062000728565b600060405180830381855af49150503d806000811462000498576040519150601f19603f3d011682016040523d82523d6000602084013e6200049d565b606091505b5091509150620004b5828286620004c060201b60201c565b925050509392505050565b60608315620004d25782905062000525565b600083511115620004e65782518084602001fd5b816040517f08c379a00000000000000000000000000000000000000000000000000000000081526004016200051c919062000741565b60405180910390fd5b9392505050565b6000620005436200053d84620007f4565b620007cb565b9050828152602081018484840111156200055c57600080fd5b62000569848285620008d5565b509392505050565b600081519050620005828162000a9d565b92915050565b600082601f8301126200059a57600080fd5b8151620005ac8482602086016200052c565b91505092915050565b600060208284031215620005c857600080fd5b6000620005d88482850162000571565b91505092915050565b60008060408385031215620005f557600080fd5b6000620006058582860162000571565b925050602083015167ffffffffffffffff8111156200062357600080fd5b620006318582860162000588565b9150509250929050565b600062000648826200082a565b62000654818562000840565b935062000666818560208601620008d5565b80840191505092915050565b60006200067f8262000835565b6200068b81856200084b565b93506200069d818560208601620008d5565b620006a8816200099f565b840191505092915050565b6000620006c26025836200084b565b9150620006cf82620009b0565b604082019050919050565b6000620006e96026836200084b565b9150620006f682620009ff565b604082019050919050565b6000620007106030836200084b565b91506200071d8262000a4e565b604082019050919050565b60006200073682846200063b565b915081905092915050565b600060208201905081810360008301526200075d818462000672565b905092915050565b600060208201905081810360008301526200078081620006b3565b9050919050565b60006020820190508181036000830152620007a281620006da565b9050919050565b60006020820190508181036000830152620007c48162000701565b9050919050565b6000620007d7620007ea565b9050620007e582826200090b565b919050565b6000604051905090565b600067ffffffffffffffff82111562000812576200081162000970565b5b6200081d826200099f565b9050602081019050919050565b600081519050919050565b600081519050919050565b600081905092915050565b600082825260208201905092915050565b60006200086982620008cb565b91506200087683620008cb565b9250828210156200088c576200088b62000941565b5b828203905092915050565b6000620008a482620008ab565b9050919050565b600073ffffffffffffffffffffffffffffffffffffffff82169050919050565b6000819050919050565b60005b83811015620008f5578082015181840152602081019050620008d8565b8381111562000905576000848401525b50505050565b62000916826200099f565b810181811067ffffffffffffffff8211171562000938576200093762000970565b5b80604052505050565b7f4e487b7100000000000000000000000000000000000000000000000000000000600052601160045260246000fd5b7f4e487b7100000000000000000000000000000000000000000000000000000000600052604160045260246000fd5b6000601f19601f8301169050919050565b7f455243313936373a206e657720626561636f6e206973206e6f74206120636f6e60008201527f7472616374000000000000000000000000000000000000000000000000000000602082015250565b7f416464726573733a2064656c65676174652063616c6c20746f206e6f6e2d636f60008201527f6e74726163740000000000000000000000000000000000000000000000000000602082015250565b7f455243313936373a20626561636f6e20696d706c656d656e746174696f6e206960008201527f73206e6f74206120636f6e747261637400000000000000000000000000000000602082015250565b62000aa88162000897565b811462000ab457600080fd5b50565b61054f8062000ac76000396000f3fe6080604052366100135761001161001d565b005b61001b61001d565b005b610025610081565b610035610030610083565b61010f565b565b606061005c83836040518060600160405280602781526020016104f360279139610135565b905092915050565b600080823b905060008111915050919050565b6000819050919050565b565b600061008d610202565b73ffffffffffffffffffffffffffffffffffffffff16635c60da1b6040518163ffffffff1660e01b815260040160206040518083038186803b1580156100d257600080fd5b505afa1580156100e6573d6000803e3d6000fd5b505050506040513d601f19601f8201168201806040525081019061010a91906102d5565b905090565b3660008037600080366000845af43d6000803e8060008114610130573d6000f35b3d6000fd5b606061014084610064565b61017f576040517f08c379a0000000000000000000000000000000000000000000000000000000008152600401610176906103c4565b60405180910390fd5b6000808573ffffffffffffffffffffffffffffffffffffffff16856040516101a7919061038b565b600060405180830381855af49150503d80600081146101e2576040519150601f19603f3d011682016040523d82523d6000602084013e6101e7565b606091505b50915091506101f7828286610259565b925050509392505050565b60006102307fa3f0ad74e5423aebfd80d3ef4346578335a9a72aeaee59ff6cb3582b35133d5060001b610077565b60000160009054906101000a900473ffffffffffffffffffffffffffffffffffffffff16905090565b60608315610269578290506102b9565b60008351111561027c5782518084602001fd5b816040517f08c379a00000000000000000000000000000000000000000000000000000000081526004016102b091906103a2565b60405180910390fd5b9392505050565b6000815190506102cf816104db565b92915050565b6000602082840312156102e757600080fd5b60006102f5848285016102c0565b91505092915050565b6000610309826103e4565b61031381856103fa565b9350610323818560208601610448565b80840191505092915050565b600061033a826103ef565b6103448185610405565b9350610354818560208601610448565b61035d8161047b565b840191505092915050565b6000610375602683610405565b91506103808261048c565b604082019050919050565b600061039782846102fe565b915081905092915050565b600060208201905081810360008301526103bc818461032f565b905092915050565b600060208201905081810360008301526103dd81610368565b9050919050565b600081519050919050565b600081519050919050565b600081905092915050565b600082825260208201905092915050565b600061042182610428565b9050919050565b600073ffffffffffffffffffffffffffffffffffffffff82169050919050565b60005b8381101561046657808201518184015260208101905061044b565b83811115610475576000848401525b50505050565b6000601f19601f8301169050919050565b7f416464726573733a2064656c65676174652063616c6c20746f206e6f6e2d636f60008201527f6e74726163740000000000000000000000000000000000000000000000000000602082015250565b6104e481610416565b81146104ef57600080fd5b5056fe416464726573733a206c6f772d6c6576656c2064656c65676174652063616c6c206661696c6564a2646970667358221220ad095c81284fd455199a2812ae9833590542bb0c90632f30b22bdc9925c7e37564736f6c63430008040033416464726573733a206c6f772d6c6576656c2064656c65676174652063616c6c206661696c6564416464726573733a206c6f772d6c6576656c2064656c65676174652063616c6c206661696c6564a26469706673582212201c7a85cfa1e3eaf86c1a11420fcb4cfb6d0dcebea64cc9e58157eb9080c2108064736f6c63430008040033",
  "linkReferences": {},
  "deployedLinkReferences": {}
}