{
  "_format": "hh-sol-artifact-1",
  "contractName": "Artist",
  "sourceName": "contracts/Artist.sol",
  "abi": [
    {
      "anonymous": false,
      "inputs": [
        {
          "indexed": true,
          "internalType": "address",
          "name": "owner",
          "type": "address"
        },
        {
          "indexed": true,
          "internalType": "address",
          "name": "approved",
          "type": "address"
        },
        {
          "indexed": true,
          "internalType": "uint256",
          "name": "tokenId",
          "type": "uint256"
        }
      ],
      "name": "Approval",
      "type": "event"
    },
    {
      "anonymous": false,
      "inputs": [
        {
          "indexed": true,
          "internalType": "address",
          "name": "owner",
          "type": "address"
        },
        {
          "indexed": true,
          "internalType": "address",
          "name": "operator",
          "type": "address"
        },
        {
          "indexed": false,
          "internalType": "bool",
          "name": "approved",
          "type": "bool"
        }
      ],
      "name": "ApprovalForAll",
      "type": "event"
    },
    {
      "anonymous": false,
      "inputs": [
        {
          "indexed": true,
          "internalType": "uint256",
          "name": "editionId",
          "type": "uint256"
        },
        {
          "indexed": false,
          "internalType": "address",
          "name": "fundingRecipient",
          "type": "address"
        },
        {
          "indexed": false,
          "internalType": "uint256",
          "name": "price",
          "type": "uint256"
        },
        {
          "indexed": false,
          "internalType": "uint32",
          "name": "quantity",
          "type": "uint32"
        },
        {
          "indexed": false,
          "internalType": "uint32",
          "name": "royaltyBPS",
          "type": "uint32"
        },
        {
          "indexed": false,
          "internalType": "uint32",
          "name": "startTime",
          "type": "uint32"
        },
        {
          "indexed": false,
          "internalType": "uint32",
          "name": "endTime",
          "type": "uint32"
        },
        {
          "indexed": false,
          "internalType": "string",
          "name": "uri",
          "type": "string"
        }
      ],
      "name": "EditionCreated",
      "type": "event"
    },
    {
      "anonymous": false,
      "inputs": [
        {
          "indexed": true,
          "internalType": "uint256",
          "name": "editionId",
          "type": "uint256"
        },
        {
          "indexed": true,
          "internalType": "uint256",
          "name": "tokenId",
          "type": "uint256"
        },
        {
          "indexed": false,
          "internalType": "uint32",
          "name": "numSold",
          "type": "uint32"
        },
        {
          "indexed": true,
          "internalType": "address",
          "name": "buyer",
          "type": "address"
        }
      ],
      "name": "EditionPurchased",
      "type": "event"
    },
    {
      "anonymous": false,
      "inputs": [
        {
          "indexed": true,
          "internalType": "address",
          "name": "previousOwner",
          "type": "address"
        },
        {
          "indexed": true,
          "internalType": "address",
          "name": "newOwner",
          "type": "address"
        }
      ],
      "name": "OwnershipTransferred",
      "type": "event"
    },
    {
      "anonymous": false,
      "inputs": [
        {
          "indexed": true,
          "internalType": "address",
          "name": "from",
          "type": "address"
        },
        {
          "indexed": true,
          "internalType": "address",
          "name": "to",
          "type": "address"
        },
        {
          "indexed": true,
          "internalType": "uint256",
          "name": "tokenId",
          "type": "uint256"
        }
      ],
      "name": "Transfer",
      "type": "event"
    },
    {
      "inputs": [
        {
          "internalType": "address",
          "name": "to",
          "type": "address"
        },
        {
          "internalType": "uint256",
          "name": "tokenId",
          "type": "uint256"
        }
      ],
      "name": "approve",
      "outputs": [],
      "stateMutability": "nonpayable",
      "type": "function"
    },
    {
      "inputs": [
        {
          "internalType": "address",
          "name": "owner",
          "type": "address"
        }
      ],
      "name": "balanceOf",
      "outputs": [
        {
          "internalType": "uint256",
          "name": "",
          "type": "uint256"
        }
      ],
      "stateMutability": "view",
      "type": "function"
    },
    {
      "inputs": [
        {
          "internalType": "uint256",
          "name": "_editionId",
          "type": "uint256"
        }
      ],
      "name": "buyEdition",
      "outputs": [],
      "stateMutability": "payable",
      "type": "function"
    },
    {
      "inputs": [],
      "name": "contractURI",
      "outputs": [
        {
          "internalType": "string",
          "name": "",
          "type": "string"
        }
      ],
      "stateMutability": "view",
      "type": "function"
    },
    {
      "inputs": [
        {
          "internalType": "uint256",
          "name": "_price",
          "type": "uint256"
        },
        {
          "internalType": "uint32",
          "name": "_quantity",
          "type": "uint32"
        },
        {
          "internalType": "uint32",
          "name": "_royaltyBPS",
          "type": "uint32"
        },
        {
          "internalType": "uint32",
          "name": "_startTime",
          "type": "uint32"
        },
        {
          "internalType": "uint32",
          "name": "_endTime",
          "type": "uint32"
        },
        {
          "internalType": "string",
          "name": "_hash",
          "type": "string"
        }
      ],
      "name": "createEdition",
      "outputs": [],
      "stateMutability": "nonpayable",
      "type": "function"
    },
    {
      "inputs": [
        {
          "internalType": "uint256",
          "name": "",
          "type": "uint256"
        }
      ],
      "name": "depositedForEdition",
      "outputs": [
        {
          "internalType": "uint256",
          "name": "",
          "type": "uint256"
        }
      ],
      "stateMutability": "view",
      "type": "function"
    },
    {
      "inputs": [
        {
          "internalType": "uint256",
          "name": "",
          "type": "uint256"
        }
      ],
      "name": "editions",
      "outputs": [
        {
          "internalType": "address payable",
          "name": "fundingRecipient",
          "type": "address"
        },
        {
          "internalType": "uint256",
          "name": "price",
          "type": "uint256"
        },
        {
          "internalType": "uint32",
          "name": "numSold",
          "type": "uint32"
        },
        {
          "internalType": "uint32",
          "name": "quantity",
          "type": "uint32"
        },
        {
          "internalType": "uint32",
          "name": "royaltyBPS",
          "type": "uint32"
        },
        {
          "internalType": "uint32",
          "name": "startTime",
          "type": "uint32"
        },
        {
          "internalType": "uint32",
          "name": "endTime",
          "type": "uint32"
        },
        {
          "internalType": "string",
          "name": "hash",
          "type": "string"
        }
      ],
      "stateMutability": "view",
      "type": "function"
    },
    {
      "inputs": [
        {
          "internalType": "uint256",
          "name": "tokenId",
          "type": "uint256"
        }
      ],
      "name": "getApproved",
      "outputs": [
        {
          "internalType": "address",
          "name": "",
          "type": "address"
        }
      ],
      "stateMutability": "view",
      "type": "function"
    },
    {
      "inputs": [
        {
          "internalType": "uint256",
          "name": "_editionId",
          "type": "uint256"
        }
      ],
      "name": "getOwnersOfEdition",
      "outputs": [
        {
          "internalType": "address[]",
          "name": "",
          "type": "address[]"
        }
      ],
      "stateMutability": "view",
      "type": "function"
    },
    {
      "inputs": [
        {
          "internalType": "uint256",
          "name": "_editionId",
          "type": "uint256"
        }
      ],
      "name": "getTokenIdsOfEdition",
      "outputs": [
        {
          "internalType": "uint256[]",
          "name": "",
          "type": "uint256[]"
        }
      ],
      "stateMutability": "view",
      "type": "function"
    },
    {
      "inputs": [
        {
          "internalType": "address",
          "name": "_owner",
          "type": "address"
        },
        {
          "internalType": "uint256",
          "name": "_artistId",
          "type": "uint256"
        },
        {
          "internalType": "string",
          "name": "_name",
          "type": "string"
        },
        {
          "internalType": "string",
          "name": "_symbol",
          "type": "string"
        },
        {
          "internalType": "string",
          "name": "_baseURI",
          "type": "string"
        }
      ],
      "name": "initialize",
      "outputs": [],
      "stateMutability": "nonpayable",
      "type": "function"
    },
    {
      "inputs": [
        {
          "internalType": "address",
          "name": "owner",
          "type": "address"
        },
        {
          "internalType": "address",
          "name": "operator",
          "type": "address"
        }
      ],
      "name": "isApprovedForAll",
      "outputs": [
        {
          "internalType": "bool",
          "name": "",
          "type": "bool"
        }
      ],
      "stateMutability": "view",
      "type": "function"
    },
    {
      "inputs": [],
      "name": "name",
      "outputs": [
        {
          "internalType": "string",
          "name": "",
          "type": "string"
        }
      ],
      "stateMutability": "view",
      "type": "function"
    },
    {
      "inputs": [],
      "name": "owner",
      "outputs": [
        {
          "internalType": "address",
          "name": "",
          "type": "address"
        }
      ],
      "stateMutability": "view",
      "type": "function"
    },
    {
      "inputs": [
        {
          "internalType": "uint256",
          "name": "tokenId",
          "type": "uint256"
        }
      ],
      "name": "ownerOf",
      "outputs": [
        {
          "internalType": "address",
          "name": "",
          "type": "address"
        }
      ],
      "stateMutability": "view",
      "type": "function"
    },
    {
      "inputs": [],
      "name": "renounceOwnership",
      "outputs": [],
      "stateMutability": "nonpayable",
      "type": "function"
    },
    {
      "inputs": [
        {
          "internalType": "uint256",
          "name": "_editionId",
          "type": "uint256"
        },
        {
          "internalType": "uint256",
          "name": "_salePrice",
          "type": "uint256"
        }
      ],
      "name": "royaltyInfo",
      "outputs": [
        {
          "internalType": "address",
          "name": "fundingRecipient",
          "type": "address"
        },
        {
          "internalType": "uint256",
          "name": "royaltyAmount",
          "type": "uint256"
        }
      ],
      "stateMutability": "view",
      "type": "function"
    },
    {
      "inputs": [
        {
          "internalType": "address",
          "name": "from",
          "type": "address"
        },
        {
          "internalType": "address",
          "name": "to",
          "type": "address"
        },
        {
          "internalType": "uint256",
          "name": "tokenId",
          "type": "uint256"
        }
      ],
      "name": "safeTransferFrom",
      "outputs": [],
      "stateMutability": "nonpayable",
      "type": "function"
    },
    {
      "inputs": [
        {
          "internalType": "address",
          "name": "from",
          "type": "address"
        },
        {
          "internalType": "address",
          "name": "to",
          "type": "address"
        },
        {
          "internalType": "uint256",
          "name": "tokenId",
          "type": "uint256"
        },
        {
          "internalType": "bytes",
          "name": "_data",
          "type": "bytes"
        }
      ],
      "name": "safeTransferFrom",
      "outputs": [],
      "stateMutability": "nonpayable",
      "type": "function"
    },
    {
      "inputs": [
        {
          "internalType": "address",
          "name": "operator",
          "type": "address"
        },
        {
          "internalType": "bool",
          "name": "approved",
          "type": "bool"
        }
      ],
      "name": "setApprovalForAll",
      "outputs": [],
      "stateMutability": "nonpayable",
      "type": "function"
    },
    {
      "inputs": [
        {
          "internalType": "uint256",
          "name": "_editionId",
          "type": "uint256"
        },
        {
          "internalType": "uint32",
          "name": "_endTime",
          "type": "uint32"
        }
      ],
      "name": "setEndTime",
      "outputs": [],
      "stateMutability": "nonpayable",
      "type": "function"
    },
    {
      "inputs": [
        {
          "internalType": "uint256",
          "name": "_editionId",
          "type": "uint256"
        },
        {
          "internalType": "uint32",
          "name": "_startTime",
          "type": "uint32"
        }
      ],
      "name": "setStartTime",
      "outputs": [],
      "stateMutability": "nonpayable",
      "type": "function"
    },
    {
      "inputs": [
        {
          "internalType": "bytes4",
          "name": "_interfaceId",
          "type": "bytes4"
        }
      ],
      "name": "supportsInterface",
      "outputs": [
        {
          "internalType": "bool",
          "name": "",
          "type": "bool"
        }
      ],
      "stateMutability": "view",
      "type": "function"
    },
    {
      "inputs": [],
      "name": "symbol",
      "outputs": [
        {
          "internalType": "string",
          "name": "",
          "type": "string"
        }
      ],
      "stateMutability": "view",
      "type": "function"
    },
    {
      "inputs": [
        {
          "internalType": "uint256",
          "name": "",
          "type": "uint256"
        }
      ],
      "name": "tokenToEdition",
      "outputs": [
        {
          "internalType": "uint256",
          "name": "",
          "type": "uint256"
        }
      ],
      "stateMutability": "view",
      "type": "function"
    },
    {
      "inputs": [
        {
          "internalType": "uint256",
          "name": "_tokenId",
          "type": "uint256"
        }
      ],
      "name": "tokenURI",
      "outputs": [
        {
          "internalType": "string",
          "name": "",
          "type": "string"
        }
      ],
      "stateMutability": "view",
      "type": "function"
    },
    {
      "inputs": [],
      "name": "totalSupply",
      "outputs": [
        {
          "internalType": "uint256",
          "name": "",
          "type": "uint256"
        }
      ],
      "stateMutability": "view",
      "type": "function"
    },
    {
      "inputs": [
        {
          "internalType": "address",
          "name": "from",
          "type": "address"
        },
        {
          "internalType": "address",
          "name": "to",
          "type": "address"
        },
        {
          "internalType": "uint256",
          "name": "tokenId",
          "type": "uint256"
        }
      ],
      "name": "transferFrom",
      "outputs": [],
      "stateMutability": "nonpayable",
      "type": "function"
    },
    {
      "inputs": [
        {
          "internalType": "address",
          "name": "newOwner",
          "type": "address"
        }
      ],
      "name": "transferOwnership",
      "outputs": [],
      "stateMutability": "nonpayable",
      "type": "function"
    },
    {
      "inputs": [
        {
          "internalType": "uint256",
          "name": "_editionId",
          "type": "uint256"
        }
      ],
      "name": "withdrawFunds",
      "outputs": [],
      "stateMutability": "nonpayable",
      "type": "function"
    },
    {
      "inputs": [
        {
          "internalType": "uint256",
          "name": "",
          "type": "uint256"
        }
      ],
      "name": "withdrawnForEdition",
      "outputs": [
        {
          "internalType": "uint256",
          "name": "",
          "type": "uint256"
        }
      ],
      "stateMutability": "view",
      "type": "function"
    }
  ],
  "bytecode": "0x608060405234801561001057600080fd5b50614dfd806100206000396000f3fe6080604052600436106101d85760003560e01c806374e7918911610102578063bd8616ec11610095578063e8a3d48511610064578063e8a3d48514610711578063e985e9c51461073c578063f2fde38b14610779578063fbab9e04146107a2576101d8565b8063bd8616ec1461063e578063c87b56dd1461065a578063d3bb052814610697578063e1a3d573146106d4576101d8565b8063a22cb465116100d1578063a22cb4651461059a578063abfc83a0146105c3578063b88d4fde146105ec578063bb314ca114610615576101d8565b806374e79189146104de578063820477bf1461051b5780638da5cb5b1461054457806395d89b411461056f576101d8565b806323b872dd1161017a578063602787ed11610149578063602787ed146104105780636352211e1461044d57806370a082311461048a578063715018a6146104c7576101d8565b806323b872dd1461033c578063279c806e146103655780632a55205a146103a957806342842e0e146103e7576101d8565b8063095ea7b3116101b6578063095ea7b31461028257806313dd2960146102ab578063155dd5ee146102e857806318160ddd14610311576101d8565b806301ffc9a7146101dd57806306fdde031461021a578063081812fc14610245575b600080fd5b3480156101e957600080fd5b5061020460048036038101906101ff9190613422565b6107cb565b6040516102119190613e1f565b60405180910390f35b34801561022657600080fd5b5061022f610845565b60405161023c9190613e3a565b60405180910390f35b34801561025157600080fd5b5061026c60048036038101906102679190613474565b6108d7565b6040516102799190613c50565b60405180910390f35b34801561028e57600080fd5b506102a960048036038101906102a49190613327565b61095c565b005b3480156102b757600080fd5b506102d260048036038101906102cd9190613474565b610a74565b6040516102df9190613ddb565b60405180910390f35b3480156102f457600080fd5b5061030f600480360381019061030a9190613474565b610bf2565b005b34801561031d57600080fd5b50610326610c97565b604051610333919061417c565b60405180910390f35b34801561034857600080fd5b50610363600480360381019061035e9190613221565b610cb4565b005b34801561037157600080fd5b5061038c60048036038101906103879190613474565b610d14565b6040516103a0989796959493929190613c6b565b60405180910390f35b3480156103b557600080fd5b506103d060048036038101906103cb919061349d565b610e54565b6040516103de929190613d3c565b60405180910390f35b3480156103f357600080fd5b5061040e60048036038101906104099190613221565b6110af565b005b34801561041c57600080fd5b5061043760048036038101906104329190613474565b6110cf565b604051610444919061417c565b60405180910390f35b34801561045957600080fd5b50610474600480360381019061046f9190613474565b6110e7565b6040516104819190613c50565b60405180910390f35b34801561049657600080fd5b506104b160048036038101906104ac91906131bc565b611199565b6040516104be919061417c565b60405180910390f35b3480156104d357600080fd5b506104dc611251565b005b3480156104ea57600080fd5b5061050560048036038101906105009190613474565b6112d9565b6040516105129190613dfd565b60405180910390f35b34801561052757600080fd5b50610542600480360381019061053d9190613515565b611421565b005b34801561055057600080fd5b506105596116bb565b6040516105669190613c50565b60405180910390f35b34801561057b57600080fd5b506105846116e5565b6040516105919190613e3a565b60405180910390f35b3480156105a657600080fd5b506105c160048036038101906105bc91906132eb565b611777565b005b3480156105cf57600080fd5b506105ea60048036038101906105e59190613363565b61178d565b005b3480156105f857600080fd5b50610613600480360381019061060e9190613270565b6118db565b005b34801561062157600080fd5b5061063c600480360381019061063791906134d9565b61193d565b005b61065860048036038101906106539190613474565b6119f2565b005b34801561066657600080fd5b50610681600480360381019061067c9190613474565b611d6f565b60405161068e9190613e3a565b60405180910390f35b3480156106a357600080fd5b506106be60048036038101906106b99190613474565b611df8565b6040516106cb919061417c565b60405180910390f35b3480156106e057600080fd5b506106fb60048036038101906106f69190613474565b611e10565b604051610708919061417c565b60405180910390f35b34801561071d57600080fd5b50610726611e28565b6040516107339190613e3a565b60405180910390f35b34801561074857600080fd5b50610763600480360381019061075e91906131e5565b611e50565b6040516107709190613e1f565b60405180910390f35b34801561078557600080fd5b506107a0600480360381019061079b91906131bc565b611ee4565b005b3480156107ae57600080fd5b506107c960048036038101906107c491906134d9565b611fdc565b005b6000817bffffffffffffffffffffffffffffffffffffffffffffffffffffffff19167f2a55205a000000000000000000000000000000000000000000000000000000007bffffffffffffffffffffffffffffffffffffffffffffffffffffffff1916148061083e575061083d82612091565b5b9050919050565b606060658054610854906144fb565b80601f0160208091040260200160405190810160405280929190818152602001828054610880906144fb565b80156108cd5780601f106108a2576101008083540402835291602001916108cd565b820191906000526020600020905b8154815290600101906020018083116108b057829003601f168201915b5050505050905090565b60006108e282612173565b610921576040517f08c379a00000000000000000000000000000000000000000000000000000000081526004016109189061401c565b60405180910390fd5b6069600083815260200190815260200160002060009054906101000a900473ffffffffffffffffffffffffffffffffffffffff169050919050565b6000610967826110e7565b90508073ffffffffffffffffffffffffffffffffffffffff168373ffffffffffffffffffffffffffffffffffffffff1614156109d8576040517f08c379a00000000000000000000000000000000000000000000000000000000081526004016109cf906140dc565b60405180910390fd5b8073ffffffffffffffffffffffffffffffffffffffff166109f76121df565b73ffffffffffffffffffffffffffffffffffffffff161480610a265750610a2581610a206121df565b611e50565b5b610a65576040517f08c379a0000000000000000000000000000000000000000000000000000000008152600401610a5c90613f5c565b60405180910390fd5b610a6f83836121e7565b505050565b6060600060cc600084815260200190815260200160002060020160009054906101000a900463ffffffff1663ffffffff1667ffffffffffffffff811115610ae4577f4e487b7100000000000000000000000000000000000000000000000000000000600052604160045260246000fd5b604051908082528060200260200182016040528015610b125781602001602082028036833780820191505090505b509050600080600190505b610b2760ca6122a0565b811015610be7578460cd6000838152602001908152602001600020541415610bd457610b52816110e7565b838381518110610b8b577f4e487b7100000000000000000000000000000000000000000000000000000000600052603260045260246000fd5b602002602001019073ffffffffffffffffffffffffffffffffffffffff16908173ffffffffffffffffffffffffffffffffffffffff16815250508180610bd09061455e565b9250505b8080610bdf9061455e565b915050610b1d565b508192505050919050565b600060cf60008381526020019081526020016000205460ce600084815260200190815260200160002054610c2691906143ef565b905060ce60008381526020019081526020016000205460cf600084815260200190815260200160002081905550610c9360cc600084815260200190815260200160002060000160009054906101000a900473ffffffffffffffffffffffffffffffffffffffff16826122ae565b5050565b60006001610ca560ca6122a0565b610caf91906143ef565b905090565b610cc5610cbf6121df565b826123a2565b610d04576040517f08c379a0000000000000000000000000000000000000000000000000000000008152600401610cfb906140fc565b60405180910390fd5b610d0f838383612480565b505050565b60cc6020528060005260406000206000915090508060000160009054906101000a900473ffffffffffffffffffffffffffffffffffffffff16908060010154908060020160009054906101000a900463ffffffff16908060020160049054906101000a900463ffffffff16908060020160089054906101000a900463ffffffff169080600201600c9054906101000a900463ffffffff16908060020160109054906101000a900463ffffffff1690806003018054610dd1906144fb565b80601f0160208091040260200160405190810160405280929190818152602001828054610dfd906144fb565b8015610e4a5780601f10610e1f57610100808354040283529160200191610e4a565b820191906000526020600020905b815481529060010190602001808311610e2d57829003601f168201915b5050505050905088565b600080600060cc6000868152602001908152602001600020604051806101000160405290816000820160009054906101000a900473ffffffffffffffffffffffffffffffffffffffff1673ffffffffffffffffffffffffffffffffffffffff1673ffffffffffffffffffffffffffffffffffffffff168152602001600182015481526020016002820160009054906101000a900463ffffffff1663ffffffff1663ffffffff1681526020016002820160049054906101000a900463ffffffff1663ffffffff1663ffffffff1681526020016002820160089054906101000a900463ffffffff1663ffffffff1663ffffffff16815260200160028201600c9054906101000a900463ffffffff1663ffffffff1663ffffffff1681526020016002820160109054906101000a900463ffffffff1663ffffffff1663ffffffff168152602001600382018054610fa6906144fb565b80601f0160208091040260200160405190810160405280929190818152602001828054610fd2906144fb565b801561101f5780601f10610ff45761010080835404028352916020019161101f565b820191906000526020600020905b81548152906001019060200180831161100257829003601f168201915b5050505050815250509050600073ffffffffffffffffffffffffffffffffffffffff16816000015173ffffffffffffffffffffffffffffffffffffffff161415611074578060000151600092509250506110a8565b6000816080015163ffffffff169050816000015161271082876110979190614395565b6110a19190614364565b9350935050505b9250929050565b6110ca838383604051806020016040528060008152506118db565b505050565b60cd6020528060005260406000206000915090505481565b6000806067600084815260200190815260200160002060009054906101000a900473ffffffffffffffffffffffffffffffffffffffff169050600073ffffffffffffffffffffffffffffffffffffffff168173ffffffffffffffffffffffffffffffffffffffff161415611190576040517f08c379a000000000000000000000000000000000000000000000000000000000815260040161118790613f9c565b60405180910390fd5b80915050919050565b60008073ffffffffffffffffffffffffffffffffffffffff168273ffffffffffffffffffffffffffffffffffffffff16141561120a576040517f08c379a000000000000000000000000000000000000000000000000000000000815260040161120190613f7c565b60405180910390fd5b606860008373ffffffffffffffffffffffffffffffffffffffff1673ffffffffffffffffffffffffffffffffffffffff168152602001908152602001600020549050919050565b6112596121df565b73ffffffffffffffffffffffffffffffffffffffff166112776116bb565b73ffffffffffffffffffffffffffffffffffffffff16146112cd576040517f08c379a00000000000000000000000000000000000000000000000000000000081526004016112c49061403c565b60405180910390fd5b6112d760006126dc565b565b6060600060cc600084815260200190815260200160002060020160009054906101000a900463ffffffff1663ffffffff1667ffffffffffffffff811115611349577f4e487b7100000000000000000000000000000000000000000000000000000000600052604160045260246000fd5b6040519080825280602002602001820160405280156113775781602001602082028036833780820191505090505b509050600080600190505b61138c60ca6122a0565b811015611416578460cd600083815260200190815260200160002054141561140357808383815181106113e8577f4e487b7100000000000000000000000000000000000000000000000000000000600052603260045260246000fd5b60200260200101818152505081806113ff9061455e565b9250505b808061140e9061455e565b915050611382565b508192505050919050565b6114296121df565b73ffffffffffffffffffffffffffffffffffffffff166114476116bb565b73ffffffffffffffffffffffffffffffffffffffff161461149d576040517f08c379a00000000000000000000000000000000000000000000000000000000081526004016114949061403c565b60405180910390fd5b6040518061010001604052803373ffffffffffffffffffffffffffffffffffffffff168152602001878152602001600063ffffffff1681526020018663ffffffff1681526020018563ffffffff1681526020018463ffffffff1681526020018363ffffffff1681526020018281525060cc600061151a60cb6122a0565b815260200190815260200160002060008201518160000160006101000a81548173ffffffffffffffffffffffffffffffffffffffff021916908373ffffffffffffffffffffffffffffffffffffffff1602179055506020820151816001015560408201518160020160006101000a81548163ffffffff021916908363ffffffff16021790555060608201518160020160046101000a81548163ffffffff021916908363ffffffff16021790555060808201518160020160086101000a81548163ffffffff021916908363ffffffff16021790555060a082015181600201600c6101000a81548163ffffffff021916908363ffffffff16021790555060c08201518160020160106101000a81548163ffffffff021916908363ffffffff16021790555060e0820151816003019080519060200190611658929190612fcb565b5090505061166660cb6122a0565b7f8cc6dfcd92c08327a8410921cef59bf78aa9685a064ce859628ccd08e4bb309f338888888888886040516116a19796959493929190613d65565b60405180910390a26116b360cb6127a2565b505050505050565b6000609760009054906101000a900473ffffffffffffffffffffffffffffffffffffffff16905090565b6060606680546116f4906144fb565b80601f0160208091040260200160405190810160405280929190818152602001828054611720906144fb565b801561176d5780601f106117425761010080835404028352916020019161176d565b820191906000526020600020905b81548152906001019060200180831161175057829003601f168201915b5050505050905090565b6117896117826121df565b83836127b8565b5050565b600060019054906101000a900460ff166117b55760008054906101000a900460ff16156117be565b6117bd612925565b5b6117fd576040517f08c379a00000000000000000000000000000000000000000000000000000000081526004016117f490613fbc565b60405180910390fd5b60008060019054906101000a900460ff16159050801561184d576001600060016101000a81548160ff02191690831515021790555060016000806101000a81548160ff0219169083151502179055505b6118578484612936565b61185f6129a3565b61186886611ee4565b816040516020016118799190613bde565b60405160208183030381529060405260c9908051906020019061189d929190612fcb565b506118a860ca6127a2565b6118b260cb6127a2565b80156118d35760008060016101000a81548160ff0219169083151502179055505b505050505050565b6118ec6118e66121df565b836123a2565b61192b576040517f08c379a0000000000000000000000000000000000000000000000000000000008152600401611922906140fc565b60405180910390fd5b61193784848484612a04565b50505050565b6119456121df565b73ffffffffffffffffffffffffffffffffffffffff166119636116bb565b73ffffffffffffffffffffffffffffffffffffffff16146119b9576040517f08c379a00000000000000000000000000000000000000000000000000000000081526004016119b09061403c565b60405180910390fd5b8060cc600084815260200190815260200160002060020160106101000a81548163ffffffff021916908363ffffffff1602179055505050565b600060cc600083815260200190815260200160002060020160049054906101000a900463ffffffff1663ffffffff1611611a61576040517f08c379a0000000000000000000000000000000000000000000000000000000008152600401611a589061415c565b60405180910390fd5b60cc600082815260200190815260200160002060020160049054906101000a900463ffffffff1663ffffffff1660cc600083815260200190815260200160002060020160009054906101000a900463ffffffff1663ffffffff1610611afb576040517f08c379a0000000000000000000000000000000000000000000000000000000008152600401611af29061405c565b60405180910390fd5b60cc600082815260200190815260200160002060010154341015611b54576040517f08c379a0000000000000000000000000000000000000000000000000000000008152600401611b4b906140bc565b60405180910390fd5b4260cc6000838152602001908152602001600020600201600c9054906101000a900463ffffffff1663ffffffff1610611bc2576040517f08c379a0000000000000000000000000000000000000000000000000000000008152600401611bb990613fdc565b60405180910390fd5b4260cc600083815260200190815260200160002060020160109054906101000a900463ffffffff1663ffffffff1611611c30576040517f08c379a0000000000000000000000000000000000000000000000000000000008152600401611c2790613f1c565b60405180910390fd5b611c4333611c3e60ca6122a0565b612a60565b3460ce60008381526020019081526020016000206000828254611c66919061430e565b9250508190555060cc6000828152602001908152602001600020600201600081819054906101000a900463ffffffff1680929190611ca3906145a7565b91906101000a81548163ffffffff021916908363ffffffff160217905550508060cd6000611cd160ca6122a0565b8152602001908152602001600020819055503373ffffffffffffffffffffffffffffffffffffffff16611d0460ca6122a0565b827fe38cb07a52e5d88a83de7c9d29c2841118103e462d20f8c526b35872f997778560cc600086815260200190815260200160002060020160009054906101000a900463ffffffff16604051611d5a9190614197565b60405180910390a4611d6c60ca6127a2565b50565b6060611d7a82612173565b611db9576040517f08c379a0000000000000000000000000000000000000000000000000000000008152600401611db09061409c565b60405180910390fd5b60c960cc6000848152602001908152602001600020600301604051602001611de2929190613bf5565b6040516020818303038152906040529050919050565b60cf6020528060005260406000206000915090505481565b60ce6020528060005260406000206000915090505481565b606060c9604051602001611e3c9190613c19565b604051602081830303815290604052905090565b6000606a60008473ffffffffffffffffffffffffffffffffffffffff1673ffffffffffffffffffffffffffffffffffffffff16815260200190815260200160002060008373ffffffffffffffffffffffffffffffffffffffff1673ffffffffffffffffffffffffffffffffffffffff16815260200190815260200160002060009054906101000a900460ff16905092915050565b611eec6121df565b73ffffffffffffffffffffffffffffffffffffffff16611f0a6116bb565b73ffffffffffffffffffffffffffffffffffffffff1614611f60576040517f08c379a0000000000000000000000000000000000000000000000000000000008152600401611f579061403c565b60405180910390fd5b600073ffffffffffffffffffffffffffffffffffffffff168173ffffffffffffffffffffffffffffffffffffffff161415611fd0576040517f08c379a0000000000000000000000000000000000000000000000000000000008152600401611fc790613e7c565b60405180910390fd5b611fd9816126dc565b50565b611fe46121df565b73ffffffffffffffffffffffffffffffffffffffff166120026116bb565b73ffffffffffffffffffffffffffffffffffffffff1614612058576040517f08c379a000000000000000000000000000000000000000000000000000000000815260040161204f9061403c565b60405180910390fd5b8060cc6000848152602001908152602001600020600201600c6101000a81548163ffffffff021916908363ffffffff1602179055505050565b60007f80ac58cd000000000000000000000000000000000000000000000000000000007bffffffffffffffffffffffffffffffffffffffffffffffffffffffff1916827bffffffffffffffffffffffffffffffffffffffffffffffffffffffff1916148061215c57507f5b5e139f000000000000000000000000000000000000000000000000000000007bffffffffffffffffffffffffffffffffffffffffffffffffffffffff1916827bffffffffffffffffffffffffffffffffffffffffffffffffffffffff1916145b8061216c575061216b82612c2e565b5b9050919050565b60008073ffffffffffffffffffffffffffffffffffffffff166067600084815260200190815260200160002060009054906101000a900473ffffffffffffffffffffffffffffffffffffffff1673ffffffffffffffffffffffffffffffffffffffff1614159050919050565b600033905090565b816069600083815260200190815260200160002060006101000a81548173ffffffffffffffffffffffffffffffffffffffff021916908373ffffffffffffffffffffffffffffffffffffffff160217905550808273ffffffffffffffffffffffffffffffffffffffff1661225a836110e7565b73ffffffffffffffffffffffffffffffffffffffff167f8c5be1e5ebec7d5bd14f71427d1e84f3dd0314c0f7b2291e5b200ac8c7c3b92560405160405180910390a45050565b600081600001549050919050565b804710156122f1576040517f08c379a00000000000000000000000000000000000000000000000000000000081526004016122e890613e9c565b60405180910390fd5b60008273ffffffffffffffffffffffffffffffffffffffff168260405161231790613c3b565b60006040518083038185875af1925050503d8060008114612354576040519150601f19603f3d011682016040523d82523d6000602084013e612359565b606091505b505090508061239d576040517f08c379a00000000000000000000000000000000000000000000000000000000081526004016123949061413c565b60405180910390fd5b505050565b60006123ad82612173565b6123ec576040517f08c379a00000000000000000000000000000000000000000000000000000000081526004016123e390613f3c565b60405180910390fd5b60006123f7836110e7565b90508073ffffffffffffffffffffffffffffffffffffffff168473ffffffffffffffffffffffffffffffffffffffff16148061246657508373ffffffffffffffffffffffffffffffffffffffff1661244e846108d7565b73ffffffffffffffffffffffffffffffffffffffff16145b8061247757506124768185611e50565b5b91505092915050565b8273ffffffffffffffffffffffffffffffffffffffff166124a0826110e7565b73ffffffffffffffffffffffffffffffffffffffff16146124f6576040517f08c379a00000000000000000000000000000000000000000000000000000000081526004016124ed9061407c565b60405180910390fd5b600073ffffffffffffffffffffffffffffffffffffffff168273ffffffffffffffffffffffffffffffffffffffff161415612566576040517f08c379a000000000000000000000000000000000000000000000000000000000815260040161255d90613edc565b60405180910390fd5b612571838383612c98565b61257c6000826121e7565b6001606860008573ffffffffffffffffffffffffffffffffffffffff1673ffffffffffffffffffffffffffffffffffffffff16815260200190815260200160002060008282546125cc91906143ef565b925050819055506001606860008473ffffffffffffffffffffffffffffffffffffffff1673ffffffffffffffffffffffffffffffffffffffff1681526020019081526020016000206000828254612623919061430e565b92505081905550816067600083815260200190815260200160002060006101000a81548173ffffffffffffffffffffffffffffffffffffffff021916908373ffffffffffffffffffffffffffffffffffffffff160217905550808273ffffffffffffffffffffffffffffffffffffffff168473ffffffffffffffffffffffffffffffffffffffff167fddf252ad1be2c89b69c2b068fc378daa952ba7f163c4a11628f55a4df523b3ef60405160405180910390a4505050565b6000609760009054906101000a900473ffffffffffffffffffffffffffffffffffffffff16905081609760006101000a81548173ffffffffffffffffffffffffffffffffffffffff021916908373ffffffffffffffffffffffffffffffffffffffff1602179055508173ffffffffffffffffffffffffffffffffffffffff168173ffffffffffffffffffffffffffffffffffffffff167f8be0079c531659141344cd1fd0a4f28419497f9722a3daafe3b4186f6b6457e060405160405180910390a35050565b6001816000016000828254019250508190555050565b8173ffffffffffffffffffffffffffffffffffffffff168373ffffffffffffffffffffffffffffffffffffffff161415612827576040517f08c379a000000000000000000000000000000000000000000000000000000000815260040161281e90613efc565b60405180910390fd5b80606a60008573ffffffffffffffffffffffffffffffffffffffff1673ffffffffffffffffffffffffffffffffffffffff16815260200190815260200160002060008473ffffffffffffffffffffffffffffffffffffffff1673ffffffffffffffffffffffffffffffffffffffff16815260200190815260200160002060006101000a81548160ff0219169083151502179055508173ffffffffffffffffffffffffffffffffffffffff168373ffffffffffffffffffffffffffffffffffffffff167f17307eab39ab6107e8899845ad3d59bd9653f200f220920489ca2b5937696c31836040516129189190613e1f565b60405180910390a3505050565b600061293030612c9d565b15905090565b600060019054906101000a900460ff16612985576040517f08c379a000000000000000000000000000000000000000000000000000000000815260040161297c9061411c565b60405180910390fd5b61298d612cb0565b612995612d01565b61299f8282612d52565b5050565b600060019054906101000a900460ff166129f2576040517f08c379a00000000000000000000000000000000000000000000000000000000081526004016129e99061411c565b60405180910390fd5b6129fa612cb0565b612a02612dd3565b565b612a0f848484612480565b612a1b84848484612e34565b612a5a576040517f08c379a0000000000000000000000000000000000000000000000000000000008152600401612a5190613e5c565b60405180910390fd5b50505050565b600073ffffffffffffffffffffffffffffffffffffffff168273ffffffffffffffffffffffffffffffffffffffff161415612ad0576040517f08c379a0000000000000000000000000000000000000000000000000000000008152600401612ac790613ffc565b60405180910390fd5b612ad981612173565b15612b19576040517f08c379a0000000000000000000000000000000000000000000000000000000008152600401612b1090613ebc565b60405180910390fd5b612b2560008383612c98565b6001606860008473ffffffffffffffffffffffffffffffffffffffff1673ffffffffffffffffffffffffffffffffffffffff1681526020019081526020016000206000828254612b75919061430e565b92505081905550816067600083815260200190815260200160002060006101000a81548173ffffffffffffffffffffffffffffffffffffffff021916908373ffffffffffffffffffffffffffffffffffffffff160217905550808273ffffffffffffffffffffffffffffffffffffffff16600073ffffffffffffffffffffffffffffffffffffffff167fddf252ad1be2c89b69c2b068fc378daa952ba7f163c4a11628f55a4df523b3ef60405160405180910390a45050565b60007f01ffc9a7000000000000000000000000000000000000000000000000000000007bffffffffffffffffffffffffffffffffffffffffffffffffffffffff1916827bffffffffffffffffffffffffffffffffffffffffffffffffffffffff1916149050919050565b505050565b600080823b905060008111915050919050565b600060019054906101000a900460ff16612cff576040517f08c379a0000000000000000000000000000000000000000000000000000000008152600401612cf69061411c565b60405180910390fd5b565b600060019054906101000a900460ff16612d50576040517f08c379a0000000000000000000000000000000000000000000000000000000008152600401612d479061411c565b60405180910390fd5b565b600060019054906101000a900460ff16612da1576040517f08c379a0000000000000000000000000000000000000000000000000000000008152600401612d989061411c565b60405180910390fd5b8160659080519060200190612db7929190612fcb565b508060669080519060200190612dce929190612fcb565b505050565b600060019054906101000a900460ff16612e22576040517f08c379a0000000000000000000000000000000000000000000000000000000008152600401612e199061411c565b60405180910390fd5b612e32612e2d6121df565b6126dc565b565b6000612e558473ffffffffffffffffffffffffffffffffffffffff16612c9d565b15612fbe578373ffffffffffffffffffffffffffffffffffffffff1663150b7a02612e7e6121df565b8786866040518563ffffffff1660e01b8152600401612ea09493929190613cf0565b602060405180830381600087803b158015612eba57600080fd5b505af1925050508015612eeb57506040513d601f19601f82011682018060405250810190612ee8919061344b565b60015b612f6e573d8060008114612f1b576040519150601f19603f3d011682016040523d82523d6000602084013e612f20565b606091505b50600081511415612f66576040517f08c379a0000000000000000000000000000000000000000000000000000000008152600401612f5d90613e5c565b60405180910390fd5b805181602001fd5b63150b7a0260e01b7bffffffffffffffffffffffffffffffffffffffffffffffffffffffff1916817bffffffffffffffffffffffffffffffffffffffffffffffffffffffff191614915050612fc3565b600190505b949350505050565b828054612fd7906144fb565b90600052602060002090601f016020900481019282612ff95760008555613040565b82601f1061301257805160ff1916838001178555613040565b82800160010185558215613040579182015b8281111561303f578251825591602001919060010190613024565b5b50905061304d9190613051565b5090565b5b8082111561306a576000816000905550600101613052565b5090565b600061308161307c846141d7565b6141b2565b90508281526020810184848401111561309957600080fd5b6130a48482856144b9565b509392505050565b60006130bf6130ba84614208565b6141b2565b9050828152602081018484840111156130d757600080fd5b6130e28482856144b9565b509392505050565b6000813590506130f981614d54565b92915050565b60008135905061310e81614d6b565b92915050565b60008135905061312381614d82565b92915050565b60008151905061313881614d82565b92915050565b600082601f83011261314f57600080fd5b813561315f84826020860161306e565b91505092915050565b600082601f83011261317957600080fd5b81356131898482602086016130ac565b91505092915050565b6000813590506131a181614d99565b92915050565b6000813590506131b681614db0565b92915050565b6000602082840312156131ce57600080fd5b60006131dc848285016130ea565b91505092915050565b600080604083850312156131f857600080fd5b6000613206858286016130ea565b9250506020613217858286016130ea565b9150509250929050565b60008060006060848603121561323657600080fd5b6000613244868287016130ea565b9350506020613255868287016130ea565b925050604061326686828701613192565b9150509250925092565b6000806000806080858703121561328657600080fd5b6000613294878288016130ea565b94505060206132a5878288016130ea565b93505060406132b687828801613192565b925050606085013567ffffffffffffffff8111156132d357600080fd5b6132df8782880161313e565b91505092959194509250565b600080604083850312156132fe57600080fd5b600061330c858286016130ea565b925050602061331d858286016130ff565b9150509250929050565b6000806040838503121561333a57600080fd5b6000613348858286016130ea565b925050602061335985828601613192565b9150509250929050565b600080600080600060a0868803121561337b57600080fd5b6000613389888289016130ea565b955050602061339a88828901613192565b945050604086013567ffffffffffffffff8111156133b757600080fd5b6133c388828901613168565b935050606086013567ffffffffffffffff8111156133e057600080fd5b6133ec88828901613168565b925050608086013567ffffffffffffffff81111561340957600080fd5b61341588828901613168565b9150509295509295909350565b60006020828403121561343457600080fd5b600061344284828501613114565b91505092915050565b60006020828403121561345d57600080fd5b600061346b84828501613129565b91505092915050565b60006020828403121561348657600080fd5b600061349484828501613192565b91505092915050565b600080604083850312156134b057600080fd5b60006134be85828601613192565b92505060206134cf85828601613192565b9150509250929050565b600080604083850312156134ec57600080fd5b60006134fa85828601613192565b925050602061350b858286016131a7565b9150509250929050565b60008060008060008060c0878903121561352e57600080fd5b600061353c89828a01613192565b965050602061354d89828a016131a7565b955050604061355e89828a016131a7565b945050606061356f89828a016131a7565b935050608061358089828a016131a7565b92505060a087013567ffffffffffffffff81111561359d57600080fd5b6135a989828a01613168565b9150509295509295509295565b60006135c283836135f5565b60208301905092915050565b60006135da8383613bb1565b60208301905092915050565b6135ef81614435565b82525050565b6135fe81614423565b82525050565b61360d81614423565b82525050565b600061361e8261426e565b61362881856142b4565b935061363383614239565b8060005b8381101561366457815161364b88826135b6565b97506136568361429a565b925050600181019050613637565b5085935050505092915050565b600061367c82614279565b61368681856142c5565b935061369183614249565b8060005b838110156136c25781516136a988826135ce565b97506136b4836142a7565b925050600181019050613695565b5085935050505092915050565b6136d881614447565b82525050565b60006136e982614284565b6136f381856142d6565b93506137038185602086016144c8565b61370c81614690565b840191505092915050565b60006137228261428f565b61372c81856142f2565b935061373c8185602086016144c8565b61374581614690565b840191505092915050565b600061375b8261428f565b6137658185614303565b93506137758185602086016144c8565b80840191505092915050565b6000815461378e816144fb565b6137988186614303565b945060018216600081146137b357600181146137c4576137f7565b60ff198316865281860193506137f7565b6137cd85614259565b60005b838110156137ef578154818901526001820191506020810190506137d0565b838801955050505b50505092915050565b600061380d6032836142f2565b9150613818826146a1565b604082019050919050565b60006138306026836142f2565b915061383b826146f0565b604082019050919050565b6000613853601d836142f2565b915061385e8261473f565b602082019050919050565b6000613876601c836142f2565b915061388182614768565b602082019050919050565b60006138996024836142f2565b91506138a482614791565b604082019050919050565b60006138bc6019836142f2565b91506138c7826147e0565b602082019050919050565b60006138df6011836142f2565b91506138ea82614809565b602082019050919050565b6000613902602c836142f2565b915061390d82614832565b604082019050919050565b60006139256038836142f2565b915061393082614881565b604082019050919050565b6000613948602a836142f2565b9150613953826148d0565b604082019050919050565b600061396b6029836142f2565b91506139768261491f565b604082019050919050565b600061398e602e836142f2565b91506139998261496e565b604082019050919050565b60006139b16016836142f2565b91506139bc826149bd565b602082019050919050565b60006139d46020836142f2565b91506139df826149e6565b602082019050919050565b60006139f7602c836142f2565b9150613a0282614a0f565b604082019050919050565b6000613a1a600a83614303565b9150613a2582614a5e565b600a82019050919050565b6000613a3d6020836142f2565b9150613a4882614a87565b602082019050919050565b6000613a606021836142f2565b9150613a6b82614ab0565b604082019050919050565b6000613a836029836142f2565b9150613a8e82614aff565b604082019050919050565b6000613aa6602f836142f2565b9150613ab182614b4e565b604082019050919050565b6000613ac96029836142f2565b9150613ad482614b9d565b604082019050919050565b6000613aec6021836142f2565b9150613af782614bec565b604082019050919050565b6000613b0f6000836142e7565b9150613b1a82614c3b565b600082019050919050565b6000613b326031836142f2565b9150613b3d82614c3e565b604082019050919050565b6000613b55602b836142f2565b9150613b6082614c8d565b604082019050919050565b6000613b786031836142f2565b9150613b8382614cdc565b604082019050919050565b6000613b9b6016836142f2565b9150613ba682614d2b565b602082019050919050565b613bba8161449f565b82525050565b613bc98161449f565b82525050565b613bd8816144a9565b82525050565b6000613bea8284613750565b915081905092915050565b6000613c018285613781565b9150613c0d8284613781565b91508190509392505050565b6000613c258284613781565b9150613c3082613a0d565b915081905092915050565b6000613c4682613b02565b9150819050919050565b6000602082019050613c656000830184613604565b92915050565b600061010082019050613c81600083018b6135e6565b613c8e602083018a613bc0565b613c9b6040830189613bcf565b613ca86060830188613bcf565b613cb56080830187613bcf565b613cc260a0830186613bcf565b613ccf60c0830185613bcf565b81810360e0830152613ce18184613717565b90509998505050505050505050565b6000608082019050613d056000830187613604565b613d126020830186613604565b613d1f6040830185613bc0565b8181036060830152613d3181846136de565b905095945050505050565b6000604082019050613d516000830185613604565b613d5e6020830184613bc0565b9392505050565b600060e082019050613d7a600083018a613604565b613d876020830189613bc0565b613d946040830188613bcf565b613da16060830187613bcf565b613dae6080830186613bcf565b613dbb60a0830185613bcf565b81810360c0830152613dcd8184613717565b905098975050505050505050565b60006020820190508181036000830152613df58184613613565b905092915050565b60006020820190508181036000830152613e178184613671565b905092915050565b6000602082019050613e3460008301846136cf565b92915050565b60006020820190508181036000830152613e548184613717565b905092915050565b60006020820190508181036000830152613e7581613800565b9050919050565b60006020820190508181036000830152613e9581613823565b9050919050565b60006020820190508181036000830152613eb581613846565b9050919050565b60006020820190508181036000830152613ed581613869565b9050919050565b60006020820190508181036000830152613ef58161388c565b9050919050565b60006020820190508181036000830152613f15816138af565b9050919050565b60006020820190508181036000830152613f35816138d2565b9050919050565b60006020820190508181036000830152613f55816138f5565b9050919050565b60006020820190508181036000830152613f7581613918565b9050919050565b60006020820190508181036000830152613f958161393b565b9050919050565b60006020820190508181036000830152613fb58161395e565b9050919050565b60006020820190508181036000830152613fd581613981565b9050919050565b60006020820190508181036000830152613ff5816139a4565b9050919050565b60006020820190508181036000830152614015816139c7565b9050919050565b60006020820190508181036000830152614035816139ea565b9050919050565b6000602082019050818103600083015261405581613a30565b9050919050565b6000602082019050818103600083015261407581613a53565b9050919050565b6000602082019050818103600083015261409581613a76565b9050919050565b600060208201905081810360008301526140b581613a99565b9050919050565b600060208201905081810360008301526140d581613abc565b9050919050565b600060208201905081810360008301526140f581613adf565b9050919050565b6000602082019050818103600083015261411581613b25565b9050919050565b6000602082019050818103600083015261413581613b48565b9050919050565b6000602082019050818103600083015261415581613b6b565b9050919050565b6000602082019050818103600083015261417581613b8e565b9050919050565b60006020820190506141916000830184613bc0565b92915050565b60006020820190506141ac6000830184613bcf565b92915050565b60006141bc6141cd565b90506141c8828261452d565b919050565b6000604051905090565b600067ffffffffffffffff8211156141f2576141f1614661565b5b6141fb82614690565b9050602081019050919050565b600067ffffffffffffffff82111561422357614222614661565b5b61422c82614690565b9050602081019050919050565b6000819050602082019050919050565b6000819050602082019050919050565b60008190508160005260206000209050919050565b600081519050919050565b600081519050919050565b600081519050919050565b600081519050919050565b6000602082019050919050565b6000602082019050919050565b600082825260208201905092915050565b600082825260208201905092915050565b600082825260208201905092915050565b600081905092915050565b600082825260208201905092915050565b600081905092915050565b60006143198261449f565b91506143248361449f565b9250827fffffffffffffffffffffffffffffffffffffffffffffffffffffffffffffffff03821115614359576143586145d4565b5b828201905092915050565b600061436f8261449f565b915061437a8361449f565b92508261438a57614389614603565b5b828204905092915050565b60006143a08261449f565b91506143ab8361449f565b9250817fffffffffffffffffffffffffffffffffffffffffffffffffffffffffffffffff04831182151516156143e4576143e36145d4565b5b828202905092915050565b60006143fa8261449f565b91506144058361449f565b925082821015614418576144176145d4565b5b828203905092915050565b600061442e8261447f565b9050919050565b60006144408261447f565b9050919050565b60008115159050919050565b60007fffffffff0000000000000000000000000000000000000000000000000000000082169050919050565b600073ffffffffffffffffffffffffffffffffffffffff82169050919050565b6000819050919050565b600063ffffffff82169050919050565b82818337600083830152505050565b60005b838110156144e65780820151818401526020810190506144cb565b838111156144f5576000848401525b50505050565b6000600282049050600182168061451357607f821691505b6020821081141561452757614526614632565b5b50919050565b61453682614690565b810181811067ffffffffffffffff8211171561455557614554614661565b5b80604052505050565b60006145698261449f565b91507fffffffffffffffffffffffffffffffffffffffffffffffffffffffffffffffff82141561459c5761459b6145d4565b5b600182019050919050565b60006145b2826144a9565b915063ffffffff8214156145c9576145c86145d4565b5b600182019050919050565b7f4e487b7100000000000000000000000000000000000000000000000000000000600052601160045260246000fd5b7f4e487b7100000000000000000000000000000000000000000000000000000000600052601260045260246000fd5b7f4e487b7100000000000000000000000000000000000000000000000000000000600052602260045260246000fd5b7f4e487b7100000000000000000000000000000000000000000000000000000000600052604160045260246000fd5b6000601f19601f8301169050919050565b7f4552433732313a207472616e7366657220746f206e6f6e20455243373231526560008201527f63656976657220696d706c656d656e7465720000000000000000000000000000602082015250565b7f4f776e61626c653a206e6577206f776e657220697320746865207a65726f206160008201527f6464726573730000000000000000000000000000000000000000000000000000602082015250565b7f496e73756666696369656e742062616c616e636520666f722073656e64000000600082015250565b7f4552433732313a20746f6b656e20616c7265616479206d696e74656400000000600082015250565b7f4552433732313a207472616e7366657220746f20746865207a65726f2061646460008201527f7265737300000000000000000000000000000000000000000000000000000000602082015250565b7f4552433732313a20617070726f766520746f2063616c6c657200000000000000600082015250565b7f41756374696f6e2068617320656e646564000000000000000000000000000000600082015250565b7f4552433732313a206f70657261746f7220717565727920666f72206e6f6e657860008201527f697374656e7420746f6b656e0000000000000000000000000000000000000000602082015250565b7f4552433732313a20617070726f76652063616c6c6572206973206e6f74206f7760008201527f6e6572206e6f7220617070726f76656420666f7220616c6c0000000000000000602082015250565b7f4552433732313a2062616c616e636520717565727920666f7220746865207a6560008201527f726f206164647265737300000000000000000000000000000000000000000000602082015250565b7f4552433732313a206f776e657220717565727920666f72206e6f6e657869737460008201527f656e7420746f6b656e0000000000000000000000000000000000000000000000602082015250565b7f496e697469616c697a61626c653a20636f6e747261637420697320616c72656160008201527f647920696e697469616c697a6564000000000000000000000000000000000000602082015250565b7f41756374696f6e206861736e2774207374617274656400000000000000000000600082015250565b7f4552433732313a206d696e7420746f20746865207a65726f2061646472657373600082015250565b7f4552433732313a20617070726f76656420717565727920666f72206e6f6e657860008201527f697374656e7420746f6b656e0000000000000000000000000000000000000000602082015250565b7f73746f726566726f6e7400000000000000000000000000000000000000000000600082015250565b7f4f776e61626c653a2063616c6c6572206973206e6f7420746865206f776e6572600082015250565b7f546869732065646974696f6e20697320616c726561647920736f6c64206f757460008201527f2e00000000000000000000000000000000000000000000000000000000000000602082015250565b7f4552433732313a207472616e73666572206f6620746f6b656e2074686174206960008201527f73206e6f74206f776e0000000000000000000000000000000000000000000000602082015250565b7f4552433732314d657461646174613a2055524920717565727920666f72206e6f60008201527f6e6578697374656e7420746f6b656e0000000000000000000000000000000000602082015250565b7f4d7573742073656e6420656e6f75676820746f2070757263686173652074686560008201527f2065646974696f6e2e0000000000000000000000000000000000000000000000602082015250565b7f4552433732313a20617070726f76616c20746f2063757272656e74206f776e6560008201527f7200000000000000000000000000000000000000000000000000000000000000602082015250565b50565b7f4552433732313a207472616e736665722063616c6c6572206973206e6f74206f60008201527f776e6572206e6f7220617070726f766564000000000000000000000000000000602082015250565b7f496e697469616c697a61626c653a20636f6e7472616374206973206e6f74206960008201527f6e697469616c697a696e67000000000000000000000000000000000000000000602082015250565b7f556e61626c6520746f2073656e642076616c75653a20726563697069656e742060008201527f6d61792068617665207265766572746564000000000000000000000000000000602082015250565b7f45646974696f6e20646f6573206e6f7420657869737400000000000000000000600082015250565b614d5d81614423565b8114614d6857600080fd5b50565b614d7481614447565b8114614d7f57600080fd5b50565b614d8b81614453565b8114614d9657600080fd5b50565b614da28161449f565b8114614dad57600080fd5b50565b614db9816144a9565b8114614dc457600080fd5b5056fea2646970667358221220bdcc62d763b57c99145023df49027110c6b534c93d45467a90838e7d50fd4c5364736f6c63430008040033",
  "linkReferences": {},
  "deployedLinkReferences": {}
}